:020000040800F2
:1000000040190020E1000008FD150008A5150008B2
:1000100000000000000000000000000000000000E0
:1000200000000000000000000000000001160008B1
:100030000000000000000000FF150008591600082D
:10004000F3000008F3000008F3000008F3000008C4
:10005000F3000008F3000008F3000008F3000008B4
:1000600000000000F3000008D5080008F3000008B5
:10007000F3000008F3000008F3000008000000008F
:1000800079170008F300000800000000F3000008E2
:10009000F3000008F3000008F3000008F300000874
:1000A000F3000008F3000008F3000008D917000867
:1000B000F300000800000000000000000000000045
:1000C000F300000800000000F30000080348854624
:1000D00000F038F800480047ED24000840190020DF
:1000E0000448804704480047FEE7FEE7FEE7FEE7D6
:1000F000FEE7FEE7CD160008CD00000803460B43DF
:100100009B0703D009E008C9121F08C0042AFAD2CD
:1001100003E00B780370401C491C521EF9D2704753
:10012000D2B201E00270401C491EFBD2704700228F
:10013000F6E710B513460A4604461946FFF7F0FFE6
:10014000204610BD064C0125064E05E0E36807CCAD
:100150002B430C3C98471034B442F7D3FFF7BAFF57
:10016000A8310008C831000880B592B0134611903C
:1001700010910FA802701198002804D0FFE7109882
:10018000002801D1FFE7F9E011980E90119800784E
:10019000412801D0FFE7F1E01198401C1190784808
:1001A0000078002807D1FFE7754800210170084654
:1001B00000F07CFEFFE711990DA801220B900A9236
:1001C00000F040F91199891C119111990CAA09901C
:1001D00010460A9A00F036F91199891C11910B9971
:1001E0000A88012A08921DD0FFE70898022821D02A
:1001F000FFE70898032836D0FFE7089804284FD077
:10020000FFE70898FF286BD0FFE740F2001008993D
:10021000814200D18AE040F201100899814200D168
:1002200095E0ABE00E980021C1700E98012101F01D
:1002300087F8A3E058480021C160816041600160F7
:10024000012202705548564B03600791069200F058
:100250002BFC0E99079ACA700E99059008460699CC
:1002600001F06EF88AE04C480078002810D0FFE7D3
:1002700011980CA9098800F0BFFC002808D0FFE7FE
:100280000E980021C1700E98012101F059F806E086
:100290000E980121C1700E9801F052F8FFE76DE051
:1002A0003D484078002813D0FFE70E980021C17028
:1002B0000E98012101F044F8FFE701F07FFC0028CF
:1002C00001D0FFE7F9E700F007FC01F06DF906E067
:1002D0000E980121C1700E9801F032F8FFE74DE051
:1002E0000E980021C1700E980121049101F028F8A8
:1002F0002648072141700499C17003228270FFE7EC
:1003000001F05CFC002801D0FFE7F9E7204802F08B
:10031000DFFC012001F082FD1C49002001F078FB88
:100320001C490390084600F0F1FA27E00E98C01C23
:10033000154980220292029B01F098F80E9940F232
:10034000002201900846114600F0FAFF16E00D4821
:10035000012101F035F8002808D0FFE70E980021B0
:10036000C1700E98012100F0EBFF06E00E9801210C
:10037000C1700E9800F0E4FFFFE7FFE712B080BD08
:100380007900002000380008003A0008240000200E
:100390000038014030150020201500207400002096
:1003A0000040000881B000900B480078C00700288A
:1003B00004D1FFE709480821016003E0074808214C
:1003C0000160FFE704480178012213468B43037064
:1003D000104601B07047C0467A040020180000485B
:1003E00010B584B013460C46029001A801806846FF
:1003F00002700298002804D1FFE703A800210170D1
:100400001CE06846007800280AD0FFE701A8407881
:1004100002994A1C0292087001980299087009E03A
:10042000019802994A1C0292087001A8407802992A
:100430000870FFE703A801210170FFE703A8007817
:1004400004B010BD84B0134602900191684602705A
:100450000298002804D0FFE70198002804D1FFE7A4
:1004600003A80021017024E06846007800280ED01F
:10047000FFE70198411C0191007800020299088071
:100480000198007802990A8802430A800DE00198D9
:10049000411C0191007802990880019800780002BF
:1004A00002990A8802430A80FFE703A8012101702C
:1004B000FFE703A8007804B0704784B013460290A9
:1004C0000191684602700298002804D0FFE7019865
:1004D000002804D1FFE703A8002101704CE0684622
:1004E0000078002822D0FFE70198411C0191007894
:1004F0000006029908600198411C019100780004EF
:1005000002990A6802430A600198411C019100782F
:10051000000202990A6802430A600198411C019195
:10052000007802990A6802430A6021E00198411CA0
:1005300001910078029908600198411C01910078AE
:10054000000202990A6802430A600198411C019165
:100550000078000402990A6802430A600198411C6D
:1005600001910078000602990A6802430A60FFE7D9
:1005700003A801210170FFE703A8007804B07047C9
:1005800080B58AB00A46089007A80180089800281C
:1005900005D0FFE707A80088022804DCFFE709A8C8
:1005A0000021017070E00798C01E05A90880087836
:1005B000C007002804D0FFE709A80021017063E00C
:1005C00005A80188490801800898019008980290C0
:1005D0000898401C089006A800210180FFE706A8A3
:1005E000008805A90988884232DAFFE70898411C8B
:1005F0000891017804A800F04BF8002805D0FFE727
:100600000498000103A9087003E009A80021017003
:100610003AE00898411C0891017804A800F038F8E5
:10062000002806D0FFE704980399014303A801704E
:1006300003E009A80021017026E0039801994A1CF3
:1006400001920870FFE70698401C06A90880C6E7DB
:100650000598401E05A9088002980A880091114655
:1006600000F0D6F803A9087008780299009A138858
:10067000C95C884204D0FFE709A80021017003E0AB
:1006800009A801210170FFE709A800780AB080BD20
:1006900083B00A460190684601700198002804D191
:1006A000FFE702A80021017036E068460078302894
:1006B0000ADBFFE768460078392805DCFFE7009889
:1006C00030380199087023E06846007841280ADB39
:1006D000FFE768460078462805DCFFE700983738D2
:1006E0000199087013E06846007861280ADBFFE78B
:1006F00068460078662805DCFFE7009857380199BE
:10070000087003E002A80021017005E0FFE7FFE7A1
:1007100002A801210170FFE702A8007803B070472A
:1007200010B5FFB089B00A46869085A8018002A85E
:100730000190869800280CD0FFE785A80088002843
:1007400007D0FFE785A8008840003049884204DBD5
:10075000FFE787A80021017053E086980090019878
:1007600040F20021FFF7E3FC859884A90870FFE7B9
:1007700084A801784A1E0270002934D0FFE700984F
:100780000078000982A90870009800780F221040B4
:1007900083AA10700098401C00900878092807DC94
:1007A000FFE78298303001994A1C0192087006E0F8
:1007B0008298373001994A1C01920870FFE783A89C
:1007C0000078092807DCFFE78398303001994A1C3C
:1007D0000192087006E08398373001994A1C019213
:1007E0000870FFE7C4E78698401C8690869885A924
:1007F00009884A0002A9FFF781FC87A901220A7033
:10080000FFE787A800787FB009B010BD01020000A3
:1008100083B00A46029001A8018068460021017059
:10082000FFE701A801884A1E0280002909D0FFE7DE
:100830000298411C029100780099081869460870D6
:10084000EFE700984042C0B203B0704787B0059010
:10085000049103920498002804D0FFE7039800282D
:1008600004D1FFE706A8002101702BE002A8FF21B8
:10087000017001A80170FFE70398411E0391002851
:1008800015D0FFE7029804994A1C04920978484061
:100890006946087001980A780C4B9A5C504002AA8D
:1008A000107008780A49085C01A90870E4E701980B
:1008B000000202A9097840180599088006A80121BC
:1008C0000170FFE706A8007807B0704750300008B5
:1008D000502F000880B582B00120022101F088FB72
:1008E000012806D1FFE701200190019901F06EFB7C
:1008F000FFE705480121009002F06AF9009802F034
:10090000B6F802B080BDC0460004004080B58EB08D
:100910000D900A200021059101F010FE40F20050D8
:1009200001F076FF0120049001F078FA06A8039008
:1009300001F0D2FB0498039988760D9A9268089288
:100940004876059A09920A92214B06930A760792F5
:1009500043F200030B93029301F08CFA0220019002
:1009600001F05CFA039801F0B7FB059803998876CB
:100970000D9A12680892049A4A7609900D9B9B88FA
:100980000A93144B069308760990029B0B930198E7
:1009900001F070FA049801F021FA049801F08AFB42
:1009A000019801F02BFA019801F084FB0498019959
:1009B00001F0FCFA0198019901F0E8FA064880215B
:1009C00002F0C8F9019801F0F9F90EB080BDC046F7
:1009D00028380140243801400038014080B586B0F5
:1009E000059003A82E49022202900192019B00F07B
:1009F0003DFD02994A78FF2A41D1FFE703A880789C
:100A0000002805D0FFE703A88078FF2804D1FFE77E
:100A100076480121017004E003A8807873490870CA
:100A2000FFE703A8C078082804DBFFE76F4803212D
:100A3000417004E003A8C0786C494870FFE703A840
:100A40000079042804DBFFE768480321817003E094
:100A5000049866498870FFE703A84079032804DBFF
:100A6000FFE762480221C17004E003A840795F49B2
:100A7000C870FFE75D49002000F0CAFF0CE0154890
:100A800000680849084001214907884203D1FFE76F
:100A900000F08AFDFFE7FFE7002006B080BDC046FA
:100AA000003A00080000FE2F80B582B001A80121A5
:100AB000017008482E2100F083FC002804D1FFE7D4
:100AC00001A800210170FFE701A80078012108407A
:100AD00002B080BD0040000870B51C4EB54406A8A9
:100AE00040F200410590FFF722FB154940F200104B
:100AF000059A04901046049A049B00F0B7FC114933
:100B0000059A515CFF2917D1FFE70F480D490022D4
:100B1000425406A842540A49012203900846029111
:100B2000114600F04DFC40F2001202990190084677
:100B3000039900F0E5FCFFE7054EB54470BDC046E3
:100B400000380008010200007A000020E8F7FFFFEB
:100B50001808000080B588B000F064F994480021BE
:100B6000C160816041600160012242701A481B4AE5
:100B7000026040F600028280194A826040F24042E0
:100B80008281184B05930692174A0792174A0490E0
:100B90000846049B0391194600F074FE04990290E4
:100BA0000846FFF7B3FE05A800F0C4FF019000F06F
:100BB000D9F90F49022040F2E832039B00921A460D
:100BC000009B00F0F3F90B490398039A009B00F097
:100BD000EDF908B080BDC04630150020BB080020EC
:100BE000BB1000207B0400206901000824000020C5
:100BF000A5030008DD09000870B56F4EB544704AC2
:100C00006A440B4650616F4868440180506900286F
:100C1000069206D0FFE76B4868440088032805DC8D
:100C2000FFE76948684400210170BBE0069841690C
:100C30006348684401220592FFF704FC06994A695B
:100C4000921C4A614969614A6A4404901046059AB7
:100C5000FFF7F8FB06994A69921C4A610A69121F5C
:100C6000584B6B441A80524A1278012A11D1FFE77F
:100C70004F480221017006990A68828049690C3048
:100C800001220392FFF719FC4F496944039A0A7045
:100C900088E0474880884A4969440988884205D0E5
:100CA000FFE749486844002101707BE040484088E4
:100CB000401C464969440988884205D0FFE74248FC
:100CC0006844002101706DE0FFE7FFE70698416886
:100CD000374A51804169C16001693D4A6A441180C7
:100CE000FFE73B48684401884A1E028000290AD079
:100CF000FFE70698C1684A1CC26009782C4A9368CD
:100D000059189160EDE7069840692E4969440A88B0
:100D10000291114600F05EF806984169029A128825
:100D200007AB18460193FFF7E9F922490968029ACF
:100D300013889A0800900846019900F0E1FB00280A
:100D400005D1FFE720486844002101702AE01D48D2
:100D50006844008817490A6810180860FFE71448BB
:100D600081884088401C814217D1FFE71048C16844
:100D7000806881420BD1FFE70D480021C16081608E
:100D80004160016001214170FFF7A6FE04E00E48BA
:100D900068440021017005E0FFE70B486844012129
:100DA0000170FFE7084868440078044EB54470BD00
:100DB0002015002074000020C8F7FFFF380800004D
:100DC0001C0800002C080000340800002008000067
:100DD0002408000083B00A46029001A801806846FA
:100DE00000210180FFE701A801884A1E0280002936
:100DF00014D0FFE768460188094A515C0B31029A1A
:100E000013784B4013700299491C02910099491CB8
:100E1000018001883F2211400180E4E703B0704760
:100E20006831000880B50848006840F2E831B0FB3E
:100E3000F1F000F0E7FB002802D0FFE7FFE7FEE754
:100E400000F004F880BDC0460000002010B581B05D
:100E500000200090FFE70098022824D8FFE70098C0
:100E600014210A4642436F48821800235360009AB7
:100E70000C46544302199360009A0C4654430219DD
:100E80005370009A0C4654430355009A0C46544341
:100E900002191361009A51434018C360FFE700989C
:100EA000401C0090D7E701B010BDC04610B581B01E
:100EB0000090009814210A4642435A4882180023A1
:100EC0005360009A0C46544302199360009A0C46F2
:100ED000544302195370009A0C4654430355009A28
:100EE0000C46544302191361009A51434018C360E1
:100EF00001B010BD80B582B000200190FFE70198DD
:100F000002282DD8FFE70198142141434548401895
:100F1000407800281FD0FFE7019814210A46424379
:100F20004048821800235370019A514340180169C8
:100F3000C068884700280DD0FFE7019814210A46B1
:100F400042433848821853689360019A5143012202
:100F50004254FFE7FFE7FFE70198401C0190CEE70E
:100F600002B080BD80B584B00D4801F051FC09206D
:100F7000C0060121002208230390029101920093F0
:100F800001F024FA03980199029A009B01F066FA95
:100F90000448009901600448016004B080BDC04667
:100FA000110500002800004818000048B0B584B0C2
:100FB000044603AD2870029101920093287802281C
:100FC00008DCFFE70298002804D0FFE7009800281B
:100FD00001D1FFE724E003A80178142213464B4314
:100FE00010490024CC54029B0478154665434C19E3
:100FF0002361019B0478154665434C19E360009B0F
:101000000478154665434C196360009B04781546C7
:1010100065434C19A3600078424301208854FFE7E0
:1010200004B0B0BD38000020B0B58CB001460BAAAA
:1010300010801088002801D1FFE764E0DF48407885
:1010400002283DD1FFE7DC4841680BAA13880790CE
:10105000084619460692FFF7DBFB09A908700798B6
:101060004168069A1388C9180A9109990A9B197050
:101070000B99491C118040681188FFF751FB00282B
:1010800001D1FFE73FE00B9840000BA90880CA4858
:1010900040680A900A98421C0A923A220270088814
:1010A0000A9A10180A900A98184A012305911146C5
:1010B0001A46FFF795F90B99C91C059A11801DE096
:1010C000BD4841680BAA138808AC049020460392DF
:1010D0001A460294FFF7BAFB04994A68039B1C88DE
:1010E0001219029C21880025019010462A46FFF71C
:1010F00077F90B99891C039A1180FFE70BA80088E8
:1011000000F040FDFFE70CB0B0BDC0460A0D000086
:1011100010B58CB00A9088480068002804D1FFE719
:101120000BA80021017003E1002009908348418849
:101130000088814215DAFFE7804881880288891A91
:1011400009917D49096882680388D218099B059036
:10115000084611461A46FEF7D1FF0021059A118074
:10116000FFE7754800680999401874498A680B8838
:10117000D2184C88E31A049111461A46FEF7BEFFB6
:1011800004994A880B88D21A099B9A1809924A88AE
:101190000A808A4A5278022A65D1FFE7FFE7099858
:1011A000042801D8FFE75DE06348006808900898CC
:1011B00000783A2801D0FFE754E0099808994018D0
:1011C000801E0890089800780D2801D0FFE749E0BC
:1011D0000898401C0890089800780A2801D0FFE77A
:1011E00040E05548006809A90988FFF7C9F90028B7
:1011F00001D1FFE736E05048006808900898007871
:10120000002808D0FFE7089800786C4909788842E0
:1012100001D0FFE726E00998401F4008099009988F
:10122000401E09900898411C0891007800280CD0B5
:10123000FFE7414880680899099A0023039008460F
:1012400011461A46039B98470BE03B488068089973
:10125000099A01230290084611461A46029B9847B4
:10126000FFE7FFE760E0FFE70998032801D8FFE701
:1012700059E031480068089008980078002808D0A4
:10128000FFE7089800784D490978884201D0FFE7C8
:1012900049E00998801E099027480168099A07A823
:1012A000FFF7D4FA002801D1FFE73CE0099808993C
:1012B000081808900898411C0891007806A9088031
:1012C000089800780002069A02430A80088807A955
:1012D0000988884201D0FFE725E00998401E09905F
:1012E0001548006808900898411C0891007800286B
:1012F0000CD0FFE7104880680899099A00230190F4
:10130000084611461A46019B98470BE00A48806838
:101310000899099A01230090084611461A46009B35
:101320009847FFE7FFE7FFE70BA800210170FFE701
:101330000BA800780CB010BD001500200C15002083
:1013400010B588B00A46079006A801801A49496876
:1013500005911A490978059B5C1C0594197005993B
:10136000079B9C788C705C784C701B780B7005998F
:10137000C91C059105990388012404900846194663
:1013800003922246FFF72CF80599891C05910599CF
:10139000079AD21C049B1C880290084611462246DC
:1013A000FEF7ACFE0699891D89B201900846FFF749
:1013B0003BFE08B010BDC04618150020FB140020ED
:1013C00080B584B00A46029001A8018000880028F8
:1013D00004D1FFE703A80021017040E0029801A9B1
:1013E0000988890240182049884204D3FFE703A8EE
:1013F0000021017033E000F037FF202000F0A0FE54
:10140000102000F09DFE042000F09AFEFFE701A8E6
:1014100001884A1E0280002910D0FFE7029800F0E0
:101420009DFE002804D0FFE703A80021017016E00C
:10143000029840F2004140180290E8E700F014FFE3
:10144000202000F07DFE102000F07AFE042000F045
:1014500077FE00F07DFE03A801210170FFE703A8DD
:10146000007804B080BDC0460100010886B0049039
:101470000391029201930498002805D0FFE7029897
:101480000199884204D2FFE705A80021017030E0ED
:1014900003981A49884204D8FFE705A80021017083
:1014A00027E0FFE70198411E019100281DD0FFE7CA
:1014B000039800680090009804994A1C04920870F0
:1014C0000098000A04994A1C0492087068464188F2
:1014D000049A531C04931170C07804994A1C049216
:1014E00008700398001D0390DCE705A80121017036
:1014F000FFE705A8007806B07047C046FF37000830
:1015000080B586B013460390029101A802800020A6
:1015100000900298002805D0FFE701A80088002865
:1015200004D1FFE704A80021017035E0039801A968
:101530000988890040181A49884204D3FFE704A8A3
:101540000021017028E000F08FFEEFF3108072B6EA
:101550000590FFE701A801884A1E0280002914D0E7
:10156000FFE703980299009A531C00939200895850
:1015700000F08EFE002804D0FFE704A800210170CF
:101580000AE00398001D0390E4E762B600F0E0FD76
:1015900004A801210170FFE704A8007806B080BD0F
:1015A00000000108FFE7FEE780B582B0A24801F025
:1015B000B9FB0120009000F0F1FB022000F0EEFBEF
:1015C00024480168009A914301600848006808496E
:1015D000086008680749086007480068019001989A
:1015E00080F308880868804702B080BD0440000886
:1015F0003000002034000020004000087047704791
:101600007047000080B584B002900298401E000E22
:10161000002803D0FFE70120039013E00298401E4A
:101620000A4908600020C143032201900846114680
:1016300000F030FB0648019901600648072202606D
:101640000391FFE7039804B080BDC04614E000E0BA
:1016500018E000E010E000E081B000200090FFE71B
:10166000009802282DD8FFE700981421414316481E
:10167000405C012820D1FFE7009814214143124823
:1016800040188068002809D0FFE7009814214143E2
:101690000D4840188168491E81600CE000981421B3
:1016A0000A4642430848821801235370009A514366
:1016B00000224254FFE7FFE7FFE70098401C00903C
:1016C000CEE701B07047C0463800002080B582B038
:1016D00020480168012211430160FFE71D480068AE
:1016E0008007002801D4FFE7F8E71B4801681B4A80
:1016F0001140016001681A4A1140016015480168F3
:10170000184A11400160184801680F229143016096
:101710001648016840F203129143016001680122FA
:101720001304994301600168D3079943016010488D
:101730000168914301600F4800210160019200910E
:1017400001F00EF90198C006009900F011FF02B0F7
:1017500080BDC04600100240041002400C00FF088B
:10176000FFFFC277FFFFF2FE2C1002403010024054
:10177000341002400810024080B584B015480121A1
:1017800001F088F9012805D1FFE71248012101F095
:1017900077F9FFE70F48039001F060F90020039903
:1017A00002900846029901F0DFF8012003990190A8
:1017B0000846019901F002FA8F48029901700198D8
:1017C00000F0ECFA0920C006042100F0EFFD04B09F
:1017D00080BDC0460004004080B584B0D0481749A1
:1017E00001F0E0FA012825D1FFE7CD481349039025
:1017F00001F0C8FA039801F061FA7D498A88022352
:10180000029018460191009200F08CFC0099081A91
:101810000199488008884A8890420AD0FFE7C24868
:10182000807807490B5C074901200022FFF7BEFBC7
:10183000FFE7FFE704B080BD003801400407000067
:10184000503100081111000880B584B00C4800F038
:10185000DFFF0920C0060121002204230390029229
:10186000019300F0B3FD032203980299019B00F05D
:10187000F5FD0398019900F099FD04B080BDC046C4
:1018800011050000B0B58EB003460CAC20700B9172
:101890000A920A98002804D1FFE70DA800210170E0
:1018A000A2E00B980068002805D0FFE70B9880881D
:1018B000002804D1FFE70DA80021017094E00B98E7
:1018C0008068002805D0FFE70B988089002804D1A4
:1018D000FFE70DA80021017086E0454800218160E6
:1018E00041600160018041800B9A928882800B9A4E
:1018F000126882603F48416001600B9A92684260C2
:101900000B9A92890280B04801700CA802783B4B78
:101910009A5C09901046089100F010FE0998017831
:101920004900374A505A00F073FF0998017849007E
:10193000344A505A00F06CFF099801788900324A05
:1019400051580923DB060124184607912146079DBB
:1019500006922A460593049400F0C6FC0998017883
:1019600089002A4A51580598049B03911946039C03
:101970000292224600F0B8FC099801788900069A84
:101980005358022105980191049A00F01FFD09980F
:1019900001788900069A535805980899049A00F02E
:1019A0005DFD099801788900029A535805980199BC
:1019B000049A00F00BFD099801788900029A5358A7
:1019C00005980899049A00F049FDFFF73DFF0A9831
:1019D000407800F0FBF8099800780A9900F018F8B0
:1019E0000DA9049A0A70FFE70DA800780EB0B0BDEB
:1019F0000C15002018150020780000201000002091
:101A000004000020280000201C00002014000020FA
:101A100080B58AB0024609AB18700891404807901B
:101A20001878012108401870187880003D4908583E
:101A300007903D4800218170417001700899C97874
:101A4000417008990978017009998170079808997F
:101A500049788900354B5958069201F0D7F8089813
:101A600080780128059008D0FFE7059802280FD05C
:101A7000FFE70598032816D01FE0079841F2000100
:101A800001F032FA079840F2006101F0E5F91EE03A
:101A9000079841F2000101F027FA079840F200414F
:101AA00001F0DAF913E007980021049101F01CFA23
:101AB0000798049901F0D0F909E0079800210391F3
:101AC00001F012FA0798039901F0C6F9FFE70798A9
:101AD0000021029101F0E4F90798029901F094F9CC
:101AE0000798029901F07BF907980421019101F010
:101AF000C8F90798082101F0E8F9079801F039F9C9
:101B000007980B4901F03EF90798019901F091F906
:101B10000798402101F00FF901200AB080BDC046AE
:101B20000038014008000020FB140020302F00087E
:101B30000607000082B00090009800280AD0FFE756
:101B400000980068002805D0FFE70098406800284A
:101B500004D1FFE701A8002101700DE000980068A2
:101B6000074908600098406848600098806888606D
:101B700001A801210170FFE701A8007802B07047B9
:101B80000015002080B584B0014603AA108009200A
:101B9000C006042302911946019200F00FFC0A4886
:101BA000012101700198028808460091114600F059
:101BB000ABFA009800F002F904B080BD024800784A
:101BC000012108407047C0467800002010B58CB055
:101BD00001460BAA10701D480691059200F018FEF0
:101BE0001B48049000F0CAFE07A8039000F0FAFF1B
:101BF000184800681849B0FBF1F0401E03990880AE
:101C0000002048808880059A13785B00134CE35AC3
:101C10000993C880049B0290184600F051FF1020E1
:101C20000121019100F08AFC0498019900F0C6FF9F
:101C30000498019900F024FF049800F00FFF049825
:101C4000029900F091FE0CB010BDC04601070000E3
:101C50000004004000000020A08601005831000868
:101C600081B001466A461070107840B200280DD449
:101C7000FFE76846007840B21F2102460A40012172
:101C8000914040098000024A8150FFE701B070474F
:101C900000E100E070B582B0024601AB187000911F
:101CA000187840B2002817D4FFE701A8017849B29C
:101CB0000322D2431140384BC958007840B2840700
:101CC000E40EFF25A540A943009DAD01EDB2A5405E
:101CD00029431040C1501AE001A801780F22114099
:101CE00008390323DB4319402A4C0959007840B2D4
:101CF0008507ED0EFF26AE40B143009EB601F6B259
:101D0000AE4031431040083818400151FFE702B09F
:101D100070BDC04670B582B0024601AB187000912C
:101D2000187840B2002817D4FFE701A8017849B21B
:101D30000322D2431140184BC958007840B284079F
:101D4000E40EFF25A540A943009DAD01EDB2A540DD
:101D500029431040C1501AE001A801780F22114018
:101D600008390323DB4319400A4C0959007840B273
:101D70008507ED0EFF26AE40B143009EB601F6B2D8
:101D8000AE4031431040083818400151FFE702B01F
:101D900070BDC0461CED00E000E400E010B581B06D
:101DA00001466A461070107814224243C9481358FD
:101DB0000124A343135001B010BDC04610B581B03B
:101DC00001466A461070107814224243C1481358E5
:101DD00001242343135001B010BDC04610B581B09B
:101DE00001466A461070107814224243B9481358CD
:101DF0002024A343135001B010BDC04610B581B0DC
:101E000001466A461070107814224243B1481358B4
:101E100020242343135001B010BDC04670B581B0DB
:101E200001466A461070107814231C464443A948A2
:101E300025580126B543255014781D4665430024D6
:101E40002C5010781D464543BC482C5010781D4638
:101E500045434C482C50107843434B481C50107855
:101E600080000F228240614803681343036001B081
:101E700070BDC046B0B586B0024605AB187004917F
:101E8000187802920193FFF789FF0498006801997E
:101E90000A7814231C4654433A4AA0500498806898
:101EA0000A781C465443384AA0500498008A0A789D
:101EB0001C465443A14AA05008781A46424385481C
:101EC00012580392039A43F60074A2430392049AB1
:101ED0005468D5682C4352691443039A22430392F1
:101EE000039A0C7863431A500498007E01280AD1A3
:101EF000FFE705A800781421414376480A5840239B
:101F00001A430A5009E005A800781421414371489A
:101F10000A5840239A430A50FFE70498407E01285C
:101F20000AD1FFE705A800781421414369480A58FF
:101F300080231A430A5009E005A800781421414380
:101F400064480A5880239A430A50FFE70498807E29
:101F500000280AD1FFE705A80078142141435D4815
:101F60000A5810239A430A5009E005A80078142162
:101F7000414358480A5810231A430A50FFE706B055
:101F8000B0BDC046100002401400024010B582B03F
:101F9000024601AB187000910098197814234B4346
:101FA0004C495C5884435C5002B010BD10B582B0FF
:101FB000024601AB187000910098197814234B4326
:101FC00044495C5804435C5002B010BD82B00246E4
:101FD00001AB187000910098197889008840034976
:101FE0000B6803430B6002B07047C0460400024018
:101FF00086B0024604AB1870039100200290019055
:1020000003980228009008D0FFE70098042816D013
:10201000FFE70098082824D035E025480068039998
:1020200004AA13789B00994008400190107814216D
:1020300041432848085802210840029024E01C48E7
:102040000068039904AA13789B0099400840019006
:102050001078142141431F48085804210840029079
:1020600012E013480068039904AA13789B00994072
:10207000084001901078142141431648085808215F
:102080000840029000E0FFE70198002808D0FFE731
:102090000298002804D0FFE705A80121017003E0A1
:1020A00005A800210170FFE705A8007806B0704779
:1020B0000000024010B581B001466A4610701078E9
:1020C000142242430348135844F20004A34313501C
:1020D00001B010BD0800024081B0009000980021BE
:1020E0000160009841600098017600988160009836
:1020F000C16000984176009801610098817600984F
:10210000416101B07047000082B0024601AB187017
:10211000009168460088197814234B4307495850AA
:1021200002B0704781B001466A46107010781422E0
:1021300042430248105801B07047C0460C000240AC
:1021400081B0009000984749086001B07047C046D0
:1021500064480168802211430160704780B584B0F3
:1021600003900F20000400F027F802A908700878F7
:1021700000281BD1FFE75B48016802221143016080
:1021800003990C4B196001684023194301600F212A
:10219000090401900846009200F00EF802A90870A8
:1021A00001980168009A91430160FFE702A8007856
:1021B00004B080BD1420024080B584B0039002A812
:1021C00001210170FFE700F025F802A908700398CB
:1021D000401E0390FFE702A800780021012801912A
:1021E00005D1FFE70398411E88410190FFE7019860
:1021F000C0070028E7D1FFE702A80078012804D132
:10220000FFE702A805210170FFE702A8007804B0EB
:1022100080BD000081B0684600210170114800684F
:10222000C007002804D0FFE768460121017015E0CF
:102230000C480068C006002804D5FFE76846042162
:1022400001700AE0074800684007002804D5FFE74E
:10225000684602210170FFE7FFE7FFE76846007864
:1022600001B070470C2002401E480068000600289C
:1022700006D5FFE703480449016004490160FFE710
:102280007047C0460420024023016745AB89EFCD6B
:1022900080B586B0059004910F200004FFF78CFFF5
:1022A00003A908700878002817D1FFE70D480168D6
:1022B0000122114301600499059B19600F21090453
:1022C000029008460192FFF777FF03A90870029871
:1022D0000168019A91430160FFE703A8007806B006
:1022E00080BDC0461020024086B005900491039244
:1022F0000598006A01900598406A009002A80021A4
:102300000180FFE702A8008807281ED8FFE702A87F
:1023100000880399C140C807002810D0FFE702A831
:10232000018889000F228A40019991430191049903
:10233000008880008140019808430190FFE7FFE793
:102340000298401C02A90880DCE702A8082101804D
:10235000FFE702A800880F2820D8FFE702A800881E
:102360000399C140C807002812D0FFE702A80188DE
:10237000890020390F228A400099914300910499E5
:102380000088800020388140009808430090FFE7D3
:10239000FFE70298401C02A90880DAE70198059936
:1023A000086200980599486206B0704782B00190B3
:1023B000009100980199886202B0704782B0019044
:1023C000009100980199886102B0704787B006902B
:1023D0000591049203930698006801900698C068DE
:1023E000009002A800210180FFE702A800880F28C2
:1023F0002CD8FFE702A800880399C140C80700282D
:102400001ED0FFE702A801884900032213468B4033
:10241000019999430191059903885B009940019BBB
:102420000B430193018849008A4000999143009130
:102430000499008840008140009808430090FFE71D
:10244000FFE70298401C02A90880CEE70198069990
:10245000086000980699C86007B0704710B586B04C
:102460000C46059004A8017003920293007801289D
:1024700006D1FFE7029805994A6802434A6005E0E1
:10248000029805994A6882434A60FFE70598806888
:10249000009001A800210180FFE701A800880F2813
:1024A0001ED8FFE701A800880299C140C80700288C
:1024B00010D0FFE701A80188490003228A40009953
:1024C000914300910399008840008140009808439F
:1024D0000090FFE7FFE70198401C01A90880DCE7B6
:1024E00000980599886006B010BD000080B582B0E4
:1024F000002001900E4800688000002812D5FFE7F8
:102500000B4801680122130619430160094800685D
:10251000094908405107884203D1FFE7FFF744F813
:10252000FFE7FFE7FEF716FBFFE7FEF7E3FCFCE73C
:1025300024100240004000080000FE2F10B586B0B5
:102540000A46034605AC207004A80170217849B200
:102550000078039008460399029201930094FFF7D4
:10256000D9FB0098017848B2FFF77AFB06B010BD9E
:1025700082B00190009101980099034A11400843EC
:102580000249086002B0704780FFFF1F08ED00E0BD
:102590009BB001461AAA107000201990189017904D
:1025A00016901590149013901290119010900F9017
:1025B0000E900D900C900B900A908D4A09928D4AC6
:1025C0000892079006900592049003920290E148C9
:1025D00000680C221040800819901998002801907A
:1025E00008D0FFE70198012807D0FFE701980228EB
:1025F00006D045E08248159045E08148159042E0BC
:10260000D44801680F2292041140890C0F91006890
:102610000121C9060840C00E0E900E98012804D171
:10262000FFE70F9811300F900BE00F980F2803D1A0
:10263000FFE710200F9003E00F98801C0F90FFE73A
:10264000FFE7C4480068012109040840000C0D9010
:102650000D9800280ED0FFE7684800680F21084059
:10266000401C0C900C986649B1FBF0F00F99414367
:10267000159104E00F98604941431591FFE702E08E
:102680005F481590FFE7B3480168C9B209090B918B
:102690000B9906AA515C0A9115990A9AD140149196
:1026A000016840F200721140090A0B910B9904AACB
:1026B000515C0A9114990A9AD1401391006843F62B
:1026C00000010840C00A0B900B9802A9085C0A9010
:1026D00014980A99C84012901AA80078052800900A
:1026E00000D981E00098810001A251188F46C046B0
:1026F00000F00AB800F00BB800F00CB800F00DB80C
:1027000000F00EB800F041B8159816906DE01498DE
:1027100016906AE01398169067E01298169064E09D
:102720003848006840F20011084088420FD0FFE7A7
:1027300034480068012109040840884203D0FFE7BB
:102740003248119002E030481190FFE71AE08148CA
:10275000006880B2800B18902A480068C00F17905C
:102760001798002807D0FFE714981899491CB0FB68
:10277000F1F0119005E012981899B0FBF1F011906A
:10278000FFE7FFE7119816902FE01E4800688007CA
:10279000002803D1FFE71298109022E01948006842
:1027A00003210840012803D1FFE71598109017E096
:1027B0001448006803210840022804D1FFE748F2CA
:1027C000000010900BE00F48006803210840032828
:1027D00003D1FFE70A48109000E0FFE7FFE7FFE7BB
:1027E000FFE71098169000E0FFE716981BB07047BF
:1027F000060708090102030400093D002C100240ED
:1028000000127A0030100240003FAB01809FD500DB
:1028100010B581B001466A46108010881F22034619
:10282000134001229A408009484BC4581443C450B5
:1028300001B010BD10B581B001466A461080108805
:102840001F220346134001229A4080093F4BC4587F
:102850009443C45001B010BD10B581B001466A4622
:10286000108010881F220346134001229A408009DD
:10287000364BC4581443C45001B010BD83B000207F
:102880000290019031480168012211430160FFE785
:102890000298401C02902D480068022108400190D7
:1028A000FFE7019800210028009108D1FFE7029876
:1028B00040F20051401A411E88410090FFE7009805
:1028C000C0070028E4D1FFE72048006880070028FF
:1028D00002D4FFE7FFE7FEE71D48016807229143A6
:1028E000016001680222114301601A480168016019
:1028F00001680160016801600168174A11400160C8
:102900000168164A1143016010480168012212064D
:1029100011430160FFE70D4800688001002801D4E1
:10292000FFE7F8E70B480168032291430160016863
:10293000022211430160FFE70648006800070028F3
:1029400001D4FFE7F8E703B07047C046001002402B
:102950000020024004100240FFFFC2F700000408FC
:1029600080B5FFF78BFF80BD82B00A4601906846B4
:10297000018000880199486202B0704780B58AB032
:102980000990099888498842089026D0FFE72D4889
:102990000899814229D0FFE78448089981422CD0C8
:1029A000FFE78048089981420FD0FFE780480899E7
:1029B00081422BD0FFE77F48089981422FD0FFE763
:1029C0007D480899814232D039E023480790FFF7CB
:1029D00043FF0798FFF72EFF32E01E480690FFF7EF
:1029E0003BFF0698FFF726FF2AE019480590FFF7FE
:1029F00033FF0598FFF71EFF22E040F208400490E5
:102A0000FFF72AFF0498FFF715FF19E040F2103096
:102A10000390FFF721FF0398FFF70CFF10E00B482E
:102A20000290FFF719FF0298FFF704FF08E006483D
:102A30000190FFF711FF0198FFF7FCFE00E0FFE7B0
:102A40000AB080BD00100040120300001103000016
:102A500004040000010400000B03000081B000909A
:102A60000098016801229143016001B0704781B074
:102A700000900098016801221143016001B0704785
:102A800082B001900091009801990A6982430A611D
:102A900002B0704783B001900091019800690099DD
:102AA000084204D0FFE702A80121017003E002A858
:102AB00000210170FFE702A8007803B07047000012
:102AC00082B0019000910098008801998862019875
:102AD0003449884205D0FFE701983349884212D132
:102AE000FFE70198016870229143016000984088D7
:102AF00001990A6802430A600098808801990A686F
:102B000002430A60FFE7009880680199C862019853
:102B10002449884219D0FFE701982349884214D0FC
:102B2000FFE70198214988420FD0FFE7019820492B
:102B300088420AD0FFE701981E49884205D0FFE786
:102B400001981D4988420DD1FFE70198016840F2C4
:102B50000032914301600098C08801990A680243DD
:102B60000A60FFE701980F4988420FD0FFE70198FC
:102B70000F4988420AD0FFE701980E49884205D0E4
:102B8000FFE701980C49884205D1FFE70098007BD8
:102B900001990863FFE701984169012211434161EE
:102BA00002B07047002C01400004004000200040AB
:102BB00000400140004401400048014082B00190C3
:102BC000009100980199CA688243CA6002B07047B8
:102BD00082B00190009100980199CA680243CA60CE
:102BE00002B0704781B000900098002101800098E9
:102BF0004180009881800098034A82600098C180DB
:102C00000098017301B07047FFFF000080B588B0E5
:102C10000790069100200590049003900290079879
:102C20003C49884201900AD0FFE73B480199814224
:102C30000AD1FFE70520FFF7ABFC059005E0022075
:102C4000FFF7A6FC059000E0FFE707980068000486
:102C5000002818D5FFE70598400006994A08801813
:102C6000B0FBF1F0029002981349084004900298DA
:102C70000007400F039004A8008803A909880843AF
:102C80000799C86016E0059806994A088018B0FBB5
:102C9000F1F00290029808490840049002980F2130
:102CA0000840039004A8008803A9098808430799ED
:102CB000C860FFE708B080BDF0FF000081B0009061
:102CC0000098406A0149084001B07047FF010000C8
:102CD00080B584B0039003980E49884202900DD0CD
:102CE000FFE70D480299814210D1FFE70C4801909F
:102CF000FFF7B2FD0198FFF79DFD08E0074800903F
:102D0000FFF7AAFD0098FFF795FD00E0FFE704B08C
:102D100080BDC0460044004000380140110400005E
:102D20000E03000081B000900098016801229143D9
:102D3000016001B0704782B00190009101988168F4
:102D4000402291438160009801998A6802438A6019
:102D500002B0704782B00190009101988168802292
:102D600091438160009801998A6802438A6002B0A9
:102D7000704781B000900098016801221143016002
:102D800001B0704782B00A46019068460180008811
:102D90001F210840012181400198036A0B4303620F
:102DA00002B0704783B00A460190684601800199DD
:102DB00003889B09C95800881F231840C140C807D1
:102DC000002804D0FFE702A80121017003E002A857
:102DD00000210170FFE702A8007803B0704782B0BD
:102DE00001900091019801680122914301600198CE
:102DF000816840F2002291438160009801998A68BD
:102E000002438A6002B0704782B00190009101983D
:102E100001680122914301600198816840F200122B
:102E200091438160009801998A6802438A6002B0E8
:102E3000704710B582B00A4601906846018000884C
:102E40001F2103460B4001219940019B80091C581A
:102E50000C431C5002B010BD82B00190009101984B
:102E600001680122914301600198016840F200620B
:102E700091430160009801990A6802430A6002B018
:102E8000704782B00190009101980168042291433B
:102E90000160009801990A6802430A6002B0704715
:102EA00082B0019000910198016801229143016074
:102EB0000198416843F200029143416000980199F2
:102EC0004A6802434A6002B0704782B001900091A4
:102ED00001980168082291430160009801990A68ED
:102EE00002430A6002B0704782B0019000910198DD
:102EF00001680122914301600198016841F20002DA
:102F000091430160009801990A6802430A6002B087
:102F1000704702E008C8121F08C1002AFAD17047A2
:102F20007047002001E001C1121F002AFBD1704749
:102F30008025000060090000C0120000802500000C
:102F4000004B00000096000000E1000000C20100FC
:102F500000C0C101C30302C2C60607C705C5C40439
:102F6000CC0C0DCD0FCFCE0E0ACACB0BC90908C8A9
:102F7000D81819D91BDBDA1A1EDEDF1FDD1D1CDC99
:102F800014D4D515D71716D6D21213D311D1D01009
:102F9000F03031F133F3F23236F6F737F53534F4F9
:102FA0003CFCFD3DFF3F3EFEFA3A3BFB39F9F83869
:102FB00028E8E929EB2B2AEAEE2E2FEF2DEDEC2C59
:102FC000E42425E527E7E62622E2E323E12120E0C9
:102FD000A06061A163A3A26266A6A767A56564A4B9
:102FE0006CACAD6DAF6F6EAEAA6A6BAB69A9A86829
:102FF00078B8B979BB7B7ABABE7E7FBF7DBDBC7C19
:10300000B47475B577B7B67672B2B373B17170B088
:103010005090915193535292965657975595945478
:103020009C5C5D9D5F9F9E5E5A9A9B5B99595898E8
:10303000884849894B8B8A4A4E8E8F4F8D4D4C8CD8
:103040004484854587474686824243834181804048
:1030500000C1814001C0804101C0804100C1814068
:1030600001C0804100C1814000C1814001C0804158
:1030700001C0804100C1814000C1814001C0804148
:1030800000C1814001C0804101C0804100C1814038
:1030900001C0804100C1814000C1814001C0804128
:1030A00000C1814001C0804101C0804100C1814018
:1030B00000C1814001C0804101C0804100C1814008
:1030C00001C0804100C1814000C1814001C08041F8
:1030D00001C0804100C1814000C1814001C08041E8
:1030E00000C1814001C0804101C0804100C18140D8
:1030F00000C1814001C0804101C0804100C18140C8
:1031000001C0804100C1814000C1814001C08041B7
:1031100000C1814001C0804101C0804100C18140A7
:1031200001C0804100C1814000C1814001C0804197
:1031300001C0804100C1814000C1814001C0804187
:1031400000C1814001C0804101C0804100C1814077
:103150000410080402010101C80020039001C80006
:1031600064003A00260012005368656E5A68656E66
:1031700020536F77617920536369656E63652061C1
:103180006E6420546563686E6F6C6F677920446568
:1031900076656C6F706D656E7420436F2E2C204CBD
:1031A00074642E2020202000C83100080000002078
:1031B00030000000122F0008F83100083000002015
:1031C00010190000222F000800A24A041105110561
:1031D00000380140004400401B1C000000040000B7
:1031E00008000000000200000400000001030302C8
:0831F0000E06110700000000AB
:04000005080000CD22
:00000001FF
