:020000040800F2
:10000000F8050020D900000801140008B30E00080C
:1000100000000000000000000000000000000000E0
:10002000000000000000000000000000C1140008F3
:10003000000000000000000049140008C31400087C
:10004000EB000008EB000008EB000008EB000008E4
:10005000EB000008EB000008EB000008EB000008D4
:1000600000000000EB000008EB000008EB000008B7
:10007000EB000008EB0000080000000099150008E4
:100080000000000000000000000000000000000070
:10009000EB00000800000000EB000008EB00000887
:1000A00000000000EB00000800000000000000005D
:1000B000EB000008B50E0008000000000000000082
:1000C0000448854600F090F800480047D51800081D
:1000D000C046C046F8050020044880470448004751
:1000E000FEE7FEE7FEE7FEE7FEE7FEE74515000850
:1000F000C100000830B50B46014600202022012433
:1001000009E00D46D5409D4205D31D469540491B4B
:100110002546954040191546521E002DF1DC30BD94
:10012000F0B51FB40646002082B005464024019178
:1001300000901BE0019922460F46304600F042F83D
:10014000049A059B801A994110D3104619462246FD
:1001500000F028F8361A8F4101972246012000212D
:10016000009F00F01FF838184D4100902046641E93
:100170000028DFDC019B00982946324607B0F0BD1D
:10018000D2B201E00270401C491EFBD2704700222F
:10019000F6E710B513460A4604461946FFF7F0FF86
:1001A000204610BD10B5202A04DB0146203A9140BC
:1001B000002010BD914020239C1A0346E3401943C0
:1001C000904010BD10B5202A04DB0846203AD040EC
:1001D000002110BD0B46D340D0402024A21A9140EC
:1001E0000843194610BD0000064C0125064E05E0E7
:1001F000E36807CC2B430C3C98471034B442F7D348
:10020000FFF762FF9C1B0008BC1B0008084B9842CC
:100210000DD8084BC01872B603E003780B70401C71
:10022000491C1346521E92B2002BF6D162B670479B
:10023000FF03000000000808F8B5104D0F46A91193
:100240001446884218D80E49461872B600F02CF8A9
:100250000C4809E039783170761C7F1C8169C90728
:1002600001D0002DFAD16D1E2146641EA4B20029D2
:10027000F0D100F00FF862B6F8BD0000FFFF0000FB
:100280000000080800200240014840687047000054
:100290000000002003484168012211434160002012
:1002A000704700000020024009494868C0070DD08F
:1002B000EFF3108072B6074ACA60074ACA6080F33B
:1002C00010884868C00701D001207047002070479F
:1002D00000200240EFCDAB8905040302FCB50023EA
:1002E00001249DE027462A469F403A406FD04D6842
:1002F000012D05D0022D03D0112D01D0122D16D1C4
:1003000085680326AC465D00AE46AE406546B54303
:10031000AC46CE687546AE4065462E43866046685C
:100320000D79BE43ED06ED0F9D4035434560C6682F
:100330005F000325BD40AE46AE4335468E68BE40E5
:100340002E43C6604E68022E01D0122E14D1DE0854
:10035000B60036180196366A5D07B446EE0E0F25D4
:10036000B54000966646AE43B4460D69009EB54062
:1003700066462E43019D2E6206687546AE430D7992
:10038000AD07AD0FBD40354305604D68ED0046D566
:10039000264D6E6B26436E639E08254DB60075197B
:1003A000AC46AD689E07360F0F27B740BD43052703
:1003B0003F07B84201D1002710E01E4FB84201D1DB
:1003C00001270BE01C4FB84202D1022706E026E0CD
:1003D0001A4FB84201D1052700E00627B7402F4346
:1003E0006546AF60164D2E684F689643FF0300D5F3
:1003F00016432E606E684F689643BF0300D51643C0
:100400006E60AE684F689643FF0200D51643AE603B
:10041000EE684F689643BF0200D51643EE605B1C42
:100420000A681546DA4000D05CE7FCBD00100240C7
:10043000000001400004005000080050001C005063
:10044000000401400069084000D00120704700000E
:1004500001488068704700001C00002070B504004F
:100460000FD021681348086021681348086003CC46
:1004700041602068083C21688860FFF7E9FF054675
:1004800008E0012070BDFFF7E3FF401B302801D9D1
:10049000032070BD2068C0680028F4D1206802697C
:1004A000E1688A4201D0016101E004490160002055
:1004B00070BD0000CCCC000055550000AAAA000079
:1004C000006802490160002070470000AAAA0000ED
:1004D0000248816802788918816070471C000020FA
:1004E00010B50848002401684022114301602046ED
:1004F00000F00AF8002801D0012401E000F026F8FD
:10050000204610BD0020024070B504460D4D7D20F0
:100510002978C000FFF7EEFD01460B480068FFF7A1
:10052000E9FD00F0DDFB002809D1042C07D20022F0
:100530002146401E00F020F800206C6070BD0120B4
:1005400070BD00001C000020280000200448416B02
:10055000012211434163816B02041143816370479F
:1005600000100240C106C90E012088400149086000
:100570007047000000E100E010B500F043FF10BD3F
:10058000F8B5044600784F4D800672D54D4E0027D1
:10059000403EB06BC00004D4B06BA9050843B06303
:1005A000012749480168C90511D401688215114322
:1005B0000160FFF74DFF009005E0FFF749FF00994C
:1005C000401A642837D840480068C005F5D532681D
:1005D0000321090560680A400140914208D0810367
:1005E000890F032904D13168890301D50120F8BDA1
:1005F0002A69032109040A4022D0084090421FD0F2
:10060000207880061CD528692A6988430121C904FD
:100610000A432A612A698A432A612861C0050FD5E5
:10062000FFF716FF009008E0FFF712FF0099411A4C
:100630002648814201D90320F8BD28698005F3D5F9
:1006400061688803800F032805D132680005824362
:1006500001400A4332602869032261681204114094
:1006600008432861002F04D0B16B012000078143AB
:10067000B1632078800705D5E8680C218843A1681C
:100680000843E8602078400706D5E868032189021E
:100690008843E1680843E8602078000706D5E868E9
:1006A00003210903884321690843E8602078000694
:1006B00006D5E86803218904884361690843E86036
:1006C0000020F8BD40100240007000408813000078
:1006D000F8B50E4605007DD053480068C007C00F2E
:1006E000B0420AD2504801684908490031430160CC
:1006F0000068C007C00FB04271D128784B4C80070A
:1007000005D5E068F0218843A9680843E0602878AF
:10071000C00752D06868022817D0032818D0216873
:10072000012818D08905002959DAE168890889006B
:100730000143E160FFF78CFE69680746022912D089
:1007400003291CD0012926D033E021688903EAE778
:1007500021688901E7E74907E5E7FFF779FEC11B53
:100760003348814223D8E0680007800F0228F4D183
:1007700023E0FFF76DFEC11B2D48814217D8E068CA
:100780000007800F0328F4D117E0FFF761FEC11BBB
:10079000274881420BD8E0680007800F0128F4D178
:1007A0000BE0FFF755FEC11B2148814201D9032010
:1007B000F8BDE0680007800FF3D11B480168C90746
:1007C000C90FB1420DD901684908490031430160A0
:1007D000006800E003E0C007C00FB04201D0012074
:1007E000F8BD2878400706D5E0680721090288434C
:1007F000E9680843E0602878000707D5E06807212A
:10080000C90288432969C9000843E06000F016F86E
:10081000E168084A0906090F515CC84006490860AA
:100820000020FFF771FEF8BD0020024000100240DA
:1008300088130000801B00082800002010B5184A0B
:10084000D1680C20084004280BD0082810D00C28B0
:1008500010D050680004410F0120C003491C88409B
:1008600010BD1068C00601D50E4810BD0E4810BD61
:100870000E4810BD88020E4B000F185C0902D368A9
:10088000890F491CDB0301D5084A05E01268D2062E
:1008900001D5044A00E0044A5043FFF72BFC10BD89
:1008A0000010024000093D000024F40000127A000C
:1008B000901B0008FEB505007ED0FE4CE7680C20BA
:1008C000E66807400120000406402878C00747D0AA
:1008D000082F05D00C2F0AD101200004864206D132
:1008E000206880033CD568680028E5D038E0012006
:1008F00069680004814203D121680143216011E04D
:10090000052301221B0492049942216802D111435C
:100910002160F1E781432160216801400091206856
:1009200090432060686800280DD0FFF791FD00908B
:1009300005E0FFF78DFD0099401A64287ED82068F5
:100940008003F6D50CE0FFF783FD009005E0FFF78C
:100950007FFD0099401A6428F0D820688003F6D4FF
:10096000287880075CD5E868810604D522682021B4
:100970000A43226088430923042F0DD00C2F01D194
:10098000002E09D000283BD0216899430143216003
:10099000FFF75EFD064627E02168490701D50028DC
:1009A0008AD061681F22120291432A691202114300
:1009B00061602168994300E08EE101432160FFF707
:1009C0003DFFE16809060A0FBB49895CC840BB4985
:1009D00008600020FFF798FD002873D120E0FFF7A2
:1009E00037FD801B0228A9D820684007F7D560682A
:1009F0001F210902884329690902084360600FE04A
:100A00002068400840002060FFF722FD064604E011
:100A1000FFF71EFD801B022890D820684007F7D4FE
:100A20002878C00660D5002F0DD0A86900284AD0CC
:100A30002068FF2101310843206000E0C4E0FFF797
:100A400007FD06462CE02068800502D5A86900282D
:100A5000A6D06068072149038843296A084360607B
:100A60006068297F0002000A090608436060286A5E
:100A7000410B0120C003491C8840E16809060A0FA8
:100A80008D49895CC8408D4908600020FFF73CFD16
:100A9000002817D128E0FFF7DBFC801B0228A2D832
:100AA00020688005F7D56068072149038843296AD3
:100AB000084360606068297F0002000A0906084355
:100AC000606011E0E1E02168FF2001308143216096
:100AD000FFF7BEFC064604E0FFF7BAFC801B0228C5
:100AE00072D820688005F7D42878754E000724D581
:100AF00068690028306910D0012108433061FFF790
:100B0000A7FC009005E0FFF7A3FC0099401A02281B
:100B10005AD830698007F6D50FE0400840003061B0
:100B2000FFF796FC009005E0FFF792FC0099401A51
:100B3000022849D830698007F6D42878400765D55F
:100B400000200290A06BC00006D4A06B0121090711
:100B50000843A063012002905A480168C90511D4D6
:100B60000168821511430160FFF772FC009005E0F7
:100B7000FFF76EFC0099401A642825D85148006898
:100B8000C005F5D5FF20AA680130824203D1316942
:100B90000143316111E001218902002A07D00523B8
:100BA0001B029A4203D132690A433261EFE732698C
:100BB00082433261306988433061A86800280FD0D1
:100BC000FFF746FC009007E05EE0FFF741FC00996C
:100BD000411A3D48814257D830698005F5D50DE06E
:100BE000FFF736FC009006E0FFF732FC0099411A4F
:100BF0003548814248D830698005F5D402980028EC
:100C000004D0A16B012000078143A163686A00281A
:100C100064D00C2F3ED0012636060228206805D06D
:100C2000B0432060FFF714FC05462FE0B04320607E
:100C3000FFF70EFC074604E0FFF70AFCC01B022882
:100C400022D820688001F7D4E96AA86AE2680843DC
:100C5000296BFD231B049A4311430843E06020687D
:100C600030432060FFF7F4FB054604E0FFF7F0FB9C
:100C7000401B022808D820688001F7D52EE0FFF736
:100C8000E7FB401B022801D90320FEBD206880013C
:100C9000F5D423E00128F8D0E06801210904AA6A0C
:100CA0000140914218D10F218904EA6A0140914222
:100CB00012D10BE000100240801B00082800002029
:100CC0004010024000700040881300000321890595
:100CD0000840296B884201D00120FEBD0020FEBDE6
:100CE000094910B5401E884201D9012010BD074CAA
:100CF00060610321081F00F085FB0020A061072030
:100D00002061002010BD0000FFFFFF0000E000E0B8
:100D1000F0B502462032137E012B15D0012717763D
:100D20000223537605686C68AB687026B4430E687E
:100D3000496826438024A34319436E60006881609C
:100D4000577600201076F0BD0220F0BD70B504008B
:100D500005D025462035687E002802D006E0012017
:100D600070BD00202876204600F00AF80220687640
:100D7000211D206800F038FC01206876002070BD3D
:100D80007047704770B50446006801690025C94383
:100D90008907002915DBC168C943890711D4E91EF9
:100DA000016101202076206880698007204602D0FA
:100DB000FFF7E7FF04E000F078F8204600F076F84F
:100DC000257620680169C943490717D4C168C9431A
:100DD000490713D40421C943016102202076206809
:100DE00080698005800F204602D0FFF7CAFF04E02B
:100DF00000F05BF8204600F059F82576206801697C
:100E0000C943090716D4C168C943090712D4082188
:100E1000C9430161042020762068C069800720460C
:100E200002D0FFF7AEFF04E000F03FF8204600F0EC
:100E30003DF8257620680169C943C90617D4C16801
:100E4000C943C90613D41021C94301610820207683
:100E50002068C0698005800F204602D0FFF791FF0F
:100E600004E000F022F8204600F020F82576206803
:100E70000169C943C90708D1C168C943C90704D179
:100E8000891E0161204600F012F820680169C943FB
:100E9000490609D4C168C943490605D44021C9435C
:100EA0000161204600F004F870BD7047704770473C
:100EB0007047FEE7F0B52748C16900238906264F31
:100EC000002925DA3979012932D0B978802905D26B
:100ED000426A224CB9786254491CB9703B710122B4
:100EE0001F49FA700C68E5689543E5600C68256A4F
:100EF0001C4E354202D12568954325600C6863621B
:100F00000C682568154325600968CC681443CC60DB
:100F1000C169490617D51449016279783A78914236
:100F200008D20E4A8032525C8262491C79700AE013
:100F3000BB70CDE73B7001684022914301601021F6
:100F4000052212079162C169090701D508210162D2
:100F5000F0BD000000480040080000203C000020D8
:100F60003C0100201111000026060000F8B52648BB
:100F7000264C8178C278090289188DB201794279AC
:100F8000090289188EB2002121700178002902D04F
:100F90001F490A7800E000221B4940310A7040785E
:100FA00048707000887003202070FF2D08D8FF2241
:100FB000A8190132904203D8002E01D000271AE070
:100FC000022000F031F9F8BD002D01D0002001E031
:100FD000FFF75AF984460C4802224030D30061469C
:100FE000083BD9402378C1545B1C2370521EF5D1B5
:100FF0006D1CADB27F1CB742E6DB03482178403060
:1010000000F024F9F8BD0000780100201B0000204A
:101010000D000020F8B535498878CA78000280189C
:101020000A794B791202D21896B2314A0023137012
:10103000304B0C781B7880B20093002C00D1002339
:101040002A4C40342370497861707100A1700321EB
:101050001170264903468D78CF782D02ED190F794E
:1010600049793F027918ADB289B2303B6918132B28
:1010700001D2432907D90346603B212B05D28129A0
:1010800003D8002E01D0002520E0022000F0CCF88B
:10109000F8BD014630390B0000F000FC07050720C1
:1010A000262626232600009901E0124949780223CA
:1010B0008C46DF006146083FF9401778E1557F1CF8
:1010C00017705B1EF5D1401C80B26D1CB542E0DB91
:1010D00006481178403000F0B9F8F8BD0549897824
:1010E000E5E70449C978E2E70021E0E7780100205C
:1010F0001B0000200D000020F8B53E483E4B8178D3
:10110000C278090289188CB2017942790902002754
:1011100089188EB21F700178002901D037490978EB
:10112000344A3448403211704078507071009170E8
:10113000032018702F4822468378C5781B025B195C
:10114000057940792D0228189BB280B2303A1818E0
:10115000132A01D243280FD92246603A212A07D206
:10116000812805D8002E03D022488079814203D0FF
:10117000022000F059F8F8BD002534E02046303850
:10118000030000F08BFB07050E1A181818232D001A
:101190001848C019017A1948012201700146104609
:1011A00007E014481549C019007A4870012202204E
:1011B000491CFFF741F8BF1C12E00E480F49C01947
:1011C000007A887001220320891CF2E709480B4944
:1011D000C019007AC87001220420C91CFFF72CF83E
:1011E000641CA4B26D1CB542C8DB0621014800F0A6
:1011F0002DF8F8BD780100201B0000200D00002014
:1012000070B5084DFF22EE1D1346F93605E004784F
:1012100054402A5D5A40335D401C491EF7D21802E3
:10122000104370BD8019000870B5074A80255478B6
:10123000044B2C435470907003211970104600F039
:1012400005F870BD1B000020B801002070B50546F0
:1012500008480C46007800280AD02846FFF7D0FF3F
:101260002855000A29194870A11C284600F00AFADE
:1012700070BD00007801002070B50C460546FFF7F0
:10128000BFFF2855000A29194870A11C284600F004
:10129000F9F970BD7CB500251D4800950195816B5D
:1012A0000122114381631B4C800420601F20A56034
:1012B0006060256118486561E0602046FFF746FDE3
:1012C0000095694620460195FFF722FD0222002184
:1012D0000F20FFF751F90F20FFF744F92068C1688C
:1012E00049084900C1602168A81E08612068C168DA
:1012F00049084900C1602068016A084A114203D1C7
:101300000168490849000160206845627CBD000011
:10131000001002403C010020D50600001111000021
:1013200070B50C480C4D0078287002206870A870C9
:101330000324FEF7A9FF0221CB000246083BDA4056
:101340002A55491E641C0029F6D121460248FFF7A0
:1013500093FF70BD0D000020B8010020F8B54021BA
:10136000244800F06DF907460146224800F08AF94A
:10137000204CE0192038C17F857F09020D43002FE2
:101380002EDD1D4E20783178814201D0002827D1F2
:10139000B91E1848FFF734FF164A184B4032802711
:1013A0000321A8420AD020783578A84218D11070BD
:1013B000607838435070082090700CE06078022804
:1013C0000FD0032810D0102811D0247814700124D5
:1013D000384350709470074819704030FFF736FF5B
:1013E000F8BDFFF7C3FDF8BDFFF714FEF8BDFFF72A
:1013F00083FEF8BD780100200D0000201B000020B6
:10140000704700008307FF22DB0E9A408907090E10
:10141000994000280BDA0007000F083883080848B5
:101420009B001818C36993430B43C361704783083B
:1014300004489B001B1818689043084318607047C5
:1014400000ED00E000E400E07047000008B5012274
:1014500069460020FEF7DAFE0E48694600780978F2
:10146000884204D005220B490020FEF7E5FE094919
:101470000522491D0020FEF7C9FE0648401D014611
:10148000427809390A7082784A70C2788A70007985
:10149000C87008BD1100002010B50520022100070A
:1014A000FEF7D0FF05490128087005D0002802D1B9
:1014B000FF200002486010BD0020FBE70000002074
:1014C000704710B5FFF704F810BD000010B598B0D4
:1014D00034216846FEF75BFE14210DA8FEF757FE87
:1014E000182112A8FEF753FE154801680322D20204
:1014F0009143C21489180160012102200391102137
:1015000000900491099040040B90000100240C907D
:101510000A946846FFF7CEF90F200D9003200E9035
:101520000F941094012111940DA8FFF7D1F8042015
:101530001290159412A8FFF723F818B010BD000000
:101540000070004010480168821511430160C168B5
:101550000E4A1140C16001680D4A11400160816866
:1015600049084900816001680122920491430160A9
:10157000C168FD2212049143C16000210161054947
:10158000C003886070470000001002400C40FF88D4
:10159000F6FFF6FE00ED00E010B51048FFF7F2FB95
:1015A0000E480168CA68D243D20715D1CA680C4AEE
:1015B0000C4BD478012C03D10024D4700124147175
:1015C000CA6852085200CA600068016A194203D111
:1015D000016849084900016010BD00003C0100207D
:1015E000080000201111000070B5026801239B075C
:1015F000114C124D984203D0A04201D0A84203D111
:101600007026B2434E683243984203D0A04201D0C4
:10161000A84204D103231B029A43CB681A438023B8
:101620009A430B691A4302608A68C2620968816240
:101630000121416170BD000000080140001401401B
:1016400030B50023044600290CD0002C0AD00B4AE8
:101650001079002806D09078002803D0814203D268
:10166000581E30BD002030BD054902E0CD5CE55478
:101670005B1C8342FAD30021917030BD080000202A
:101680003C00002030B502460020002905D0002A89
:1016900003D00F4B1C78002C01D0002030BD0D4C26
:1016A000802903D98021155C2554401C8842FAD337
:1016B00010200522120790610748227882620122D9
:1016C0005A701970026840231A430260084630BD00
:1016D00008000020BC0000200048004070B500F069
:1016E00099F84348816B0122920411438163414878
:1016F000C169FF2212029143012292038918C1613C
:101700003D49C00408603D4C20684008400020600E
:101710003B493C488A78012A09D0022A226803D032
:1017200002400C32226007E00240374802E02268A3
:10173000024036481018206060680322120390436C
:101740006060A0680B2212029043A06049784B228F
:10175000C91ED2012E480B0000F0A0F80541042359
:101760002D37410000684B23010E0002DB010022EF
:10177000C01851415A000023FEF7D2FCE0606068B7
:101780000921C90288436060A0682A218843A060BB
:101790002068202108432060206801210843206040
:1017A00070BD00684B23010E00021B020022C0180E
:1017B00051415A00DFE70068E123010E0002DB011E
:1017C0000022C01851415A00D5E70068E123010EFC
:1017D00000021B020022C01851415A00CBE70068EA
:1017E0004B25010E0002AD01002340195941C2E70B
:1017F0000010024000E400E000E100E0004800408A
:101800000D000020F369FFEF0C1400000C1600001F
:10181000280000201748C16A01221143C162052037
:1018200000070268032109028A4302600268FF235D
:1018300001331A4302604368102293434360836874
:101840000B43836082620168F0229143016001686A
:10185000A0221143016041680C2291434160016A5A
:10186000FF22120291430162016A332252021143A4
:10187000016270470010024010B506480121416026
:101880007D2149018160C16003490160FEF7E6FDE9
:1018900010BD00002C0000200030004030B4744621
:1018A000641E2578641CAB4200D21D46635D5B005C
:1018B000E31830BC184702E008C8121F08C1002A0C
:1018C000FAD170477047002001E001C1121F002AC1
:1018D000FBD1704708B5FEF7BBFD0090FEF700FE98
:1018E000FFF7F4FDFFF7B2FDFFF7F8FEFFF7D2FCBC
:1018F00000F02AF8FFF7C0FF104C114D00261148E8
:10190000FEF7DEFDFFF7C8FD2078012812D0E87849
:101910000028F4D0FEF79CFD00997D22411AE8785A
:10192000D20050438142EAD3FFF7FAFCFEF790FD64
:101930000090E4E7FFF712FD2670F7E70C000020A7
:101940000D0000202C00002000B587B0142168464F
:10195000FEF71DFC0948C26A01210A43C262C06A3F
:10196000029108400590022000900020019005207F
:1019700069460007FEF7B2FC07B000BD0010024048
:1019800000C1814001C0804101C0804100C181404F
:1019900001C0804100C1814000C1814001C080413F
:1019A00001C0804100C1814000C1814001C080412F
:1019B00000C1814001C0804101C0804100C181401F
:1019C00001C0804100C1814000C1814001C080410F
:1019D00000C1814001C0804101C0804100C18140FF
:1019E00000C1814001C0804101C0804100C18140EF
:1019F00001C0804100C1814000C1814001C08041DF
:101A000001C0804100C1814000C1814001C08041CE
:101A100000C1814001C0804101C0804100C18140BE
:101A200000C1814001C0804101C0804100C18140AE
:101A300001C0804100C1814000C1814001C080419E
:101A400000C1814001C0804101C0804100C181408E
:101A500001C0804100C1814000C1814001C080417E
:101A600001C0804100C1814000C1814001C080416E
:101A700000C1814001C0804101C0804100C181405E
:101A800000C0C101C30302C2C60607C705C5C4041E
:101A9000CC0C0DCD0FCFCE0E0ACACB0BC90908C88E
:101AA000D81819D91BDBDA1A1EDEDF1FDD1D1CDC7E
:101AB00014D4D515D71716D6D21213D311D1D010EE
:101AC000F03031F133F3F23236F6F737F53534F4DE
:101AD0003CFCFD3DFF3F3EFEFA3A3BFB39F9F8384E
:101AE00028E8E929EB2B2AEAEE2E2FEF2DEDEC2C3E
:101AF000E42425E527E7E62622E2E323E12120E0AE
:101B0000A06061A163A3A26266A6A767A56564A49D
:101B10006CACAD6DAF6F6EAEAA6A6BAB69A9A8680D
:101B200078B8B979BB7B7ABABE7E7FBF7DBDBC7CFD
:101B3000B47475B577B7B67672B2B373B17170B06D
:101B4000509091519353529296565797559594545D
:101B50009C5C5D9D5F9F9E5E5A9A9B5B99595898CD
:101B6000884849894B8B8A4A4E8E8F4F8D4D4C8CBD
:101B7000448485458747468682424383418180402D
:101B8000000000000000000001020304060708092D
:101B9000030406080C10182030000000BC1B0008CD
:101BA000000000202C000000B6180008E81B000808
:101BB0002C000020CC050000C61800080000000022
:101BC00000000000000000000000000000015103C0
:101BD00003010000000000000100000004000000FC
:081BE0000000000000002000DD
:04000005080000C12E
:00000001FF
