:020000040800F2
:10000000A8040020450100082B1400080F13000865
:10001000291400081B040008DD1600080000000079
:100020000000000000000000000000002F14000885
:100030006B060008000000002D14000831140008B1
:100040005F0100085F0100085F0100085F01000810
:100050005F0100085F0100085F0100085F01000800
:100060005F0100085F0100085F0100085F010008F0
:100070005F0100085F0100085F0100085F010008E0
:100080005F0100085F0100085F0100085F010008D0
:100090005F0100085F0100085F0100085F010008C0
:1000A0005F0100085F0100085F0100085F010008B0
:1000B0005F0100085F0100085F0100085F010008A0
:1000C0005F0100085F0100085F0100085F01000890
:1000D0005F0100085F0100085F0100085F01000880
:1000E0005F0100085F0100085F0100085F01000870
:1000F0005F0100085F0100085F0100085F01000860
:100100005F0100085F0100085F0100085F0100084F
:100110005F0100085F0100085F0100085F0100083F
:100120005F0100085F0100085F0100085F0100082F
:10013000DFF80CD000F050F900480047651A0008BD
:10014000A80400200648804706480047FEE7FEE76F
:10015000FEE7FEE7FEE7FEE7FEE7FEE7FEE7FEE777
:100160008114000831010008202A04DB203A21FA1A
:1001700002F00021704721FA02F3D040C2F12002C0
:100180009140084319467047D2B201E000F8012BB4
:10019000491EFBD270470022F6E710B513460A4607
:1001A00004461946FFF7F0FF204610BD2DE9FE4F2B
:1001B00081EA030404F0004421F0004100944FF070
:1001C000000B23F0004350EA01045ED052EA03041E
:1001D0005BD0C3F30A54C1F30A552C44A4F2F334A0
:1001E0000194A0FB0254C1F3130141F48011C3F345
:1001F000130343F4801301FB024400FB034E840A03
:10020000970A44EA815447EA8357A4FB076802959A
:100210008D0A05FB07854FEA932C04FB0C54270538
:10022000029D4FEA065847EA1637B5EB08056EEB14
:10023000070C870E920E47EA811742EA8312A7FB4A
:100240000201B6EB0B0164EB00042B0D43EA0C3307
:100250005E1844EB1C50DA465146E7FB0201C5F339
:1002600013044FEA0B3343EA14534FEA0432019C60
:1002700043EA0603A4F10C040294009CCDE900B407
:1002800000F05BF803B0BDE8F08F00200146F9E70D
:100290000EB5C10F80EAE0700844CA07002140F2A1
:1002A00033438DE80E000A460B4600F046F803B0D3
:1002B00000BD70B5C1F30A5201F000450024C1F33E
:1002C000130140F2FF3341F480119A4201DA002019
:1002D00070BD40F233439A42A2F2334203DC5242F1
:1002E000FFF742FF00E090402C43F1D0404270BD48
:1002F00030B50B46014600202022012409E021FAF6
:1003000002F59D4205D303FA02F5491B04FA02F5F2
:100310002844151EA2F10102F1DC30BD10B5141EF7
:1003200073F1000408DA401C41F1000192185B41AE
:100330001A4301D120F0010010BD2DE9F04D924685
:100340009B4611B1B1FA81F202E0B0FA80F220329C
:10035000904600F053F804460F4640EA0A0041EA8E
:100360000B0153465A46084313D0114653EA010085
:1003700019D0C8F140025046FFF7F6FE05460E467A
:1003800050465946424600F039F8084305D001204E
:1003900004E020463946BDE8F08D0020054346EADA
:1003A000E0762C4337430A986305E40AA0EB080083
:1003B0000022FD0A44EA47540A3002D500200146D3
:1003C000E9E7010510196941DDE9084500196941AE
:1003D000BDE8F04DA2E70000064C074D06E0E068DE
:1003E00040F0010394E8070098471034AC42F6D37C
:1003F000FFF7A2FEF01A0008101B0008202A04DBF9
:10040000203A00FA02F1002070479140C2F1200327
:1004100020FA03F3194390407047FEE770B50024BB
:1004200000F064F84FF40045114E03E0641CE4B2A0
:1004300001F06CFA2946304600F0BEFA10B1A02C4B
:10044000F4D30EE0A02C0CD2002403E0641CE4B230
:1004500001F05CFA2946304600F0AEFA18B1C82C1B
:1004600004D3012070BDC82CF0D3FAE7002070BD82
:1004700000080140054B4FF40041012803D0002241
:10048000184600F09EBA0122FAE700000008014079
:1004900070B500F0B8F800F0A7F8FFF7BFFFCC2068
:1004A00000F0BEF8BE2000F0BBF800F08DF8044666
:1004B00000F08AF8072805D9C043E143C0B2CCB2A6
:1004C000002500E0012504EB002000B2FFF7E0FE6C
:1004D0000022054BFFF76AFEFFF7EBFE00B2002D8E
:1004E00001D1404200B270BD0000E43F1FB54FF49F
:1004F0000040009000200190012002900320039012
:100500006946024800F05CF91FBD00000008014088
:100510001FB54FF40040009001200190029003208D
:1005200003906946014800F04BF91FBD00080140E7
:10053000114800B5816985B041F00401816180698D
:10054000694600F0040004904FF400400090012040
:100550000190029003200390084800F031F900F068
:1005600087F838B100F00CFF00F03EF8FFF756FFB7
:1005700005B000BD1020FBE700100240000801405C
:1005800010B5FFF7C5FF0020FFF774FF01F0DCF99D
:100590000120FFF76FFFFFF7A9FF01F0F3F901F06A
:1005A000F1F94FF40041074800F006FA08B10124C0
:1005B00000E0002401F08CF901F08AF901F088F9DB
:1005C000204610BD0008014070B500255FF0010411
:1005D000FFF7D6FFC001641C40EA5500E4B2C5B283
:1005E000082CF5D9284670BD10B5FFF791FF002003
:1005F000FFF740FF01F002FA0120FFF73BFFBDE8E3
:10060000104001F065B910B5FFF7EEFFFFF706FFE8
:10061000CC2000F005F8BDE810404420AFF3008086
:1006200070B50546FFF774FF5FF0010415F0010F88
:100630004FEA55054FF0000009D0FFF71BFF01F00E
:1006400083F90120FFF716FF01F0BAF908E0FFF780
:1006500011FF01F0B5F90120FFF70CFF01F074F96B
:10066000641CE4B2082CE1D970BD704770470000EB
:1006700070B549484A4A02210368484801241D18B8
:100680004848954211D80170447081701421C1709E
:10069000662181804FF4E671C18041F25C71018175
:1006A00041F628714181182070BD3F4D1D4495428F
:1006B00011D80170447081702421C1708C21818017
:1006C0004FF41C71C18041F62C71018142F69811E2
:1006D0004181202070BD354C1D251E1908249642ED
:1006E00011D80622027041708470C570602181802B
:1006F0004FF4CC71C18041F20E41018141F6C2211B
:100700004181302070BD2A4E1E44964210D804709C
:1007100041708470C570622181804FF4D271C180B4
:1007200041F2BE41018141F6C4314181402070BD9A
:1007300020495C186821944213D8092202700322D0
:1007400042700A2282701F22C27081804FF4D771DA
:10075000C18041F21451018141F61E41418148207E
:1007600070BD154A1A44154B9A4213D80B220270D9
:10077000052242700C2282702222C270818040F2D7
:10078000A711C18041F27E41018141F6583141817A
:10079000A82070BD002070BD10000020804EB0FE6B
:1007A0003F4B4C0014000020803C36FE801842FD78
:1007B00080F44DFC80E2D3FB003AC1FABF7AF20428
:1007C0002DE9F84FDFF8C891002409F1040A0AF175
:1007D000040B23460F270BF1040ED1E00125A540A1
:1007E00006EA0502AA4276D1DFF8A8C14E68A6EB58
:1007F0000C0866452BD00DDC032E34D005DC36B357
:10080000012E19D0022E2FD11BE0112E16D0122E40
:100810002AD119E0B8F5881F19D006DCB8F5803F59
:1008200015D0B8F5801F1FD111E0B8F5001F0ED00C
:10083000B8F5041F18D10AE0CB6815E0CB681B1D82
:1008400012E0CB6808330FE0CB680C330CE08B6808
:100850002BB1012B4FF0080303D0456104E00423C2
:1008600002E0056100E00023FF2A01D8064601E00E
:1008700000F104064FEA840501D9A5F12005D6F858
:10088000008007FA05FC28EA0C0803FA05F548EA97
:100890000508C6F800804D68ED0070D53E4DAE6984
:1008A00046F00106AE61AD6924F0030605F00105CE
:1008B00000953A4D06EB050CDCF80850A607360FFC
:1008C00007FA06F825EA0805DFF8D480404503D189
:1008D0004FF0000825E052E0DFF8C880404502D123
:1008E0004FF001081DE0DFF8C080404502D14FF015
:1008F000020816E0DFF8B480404502D14FF003084B
:100900000FE0DFF8AC80404502D14FF0040808E06A
:10091000DFF8A080404502D14FF0050801E04FF01C
:10092000060808FA06F848EA0508CCF808804D6879
:10093000D9F80060ED034D4601D5164300E096431B
:100940002E604D68DAF80060AD03554601D51643B8
:1009500000E096432E604D68DBF80060ED025D46D6
:1009600001D5164300E096432E604D68DEF8006026
:10097000AD02754601D5164300E096432E60641C17
:100980000A681646E2407FF429AFBDE8F88F000000
:10099000000401400000111000100240000001405E
:1009A00000080140000C014000100140001401400B
:1009B00000180140001C01408068084000D0012060
:1009C00070470AB1016170470904FBE7014880687C
:1009D000704700000400002002488168027811443A
:1009E0008160704704000020074810B5016841F09D
:1009F00010010160032000F067F8002000F006F805
:100A000000F024F8002010BD0020024070B50D4D0C
:100A100004464FF47A712878B1FBF0F00A4909686E
:100A2000B1FBF0F000F0DEFA48B9102C07D200223A
:100A30002146501E00F028F800206C6070BD012097
:100A400070BD000004000020100000200C4808B514
:100A5000816941F001018161816901F00101009129
:100A6000C16941F08051C161C06900F080500090BF
:100A70000448416821F0E06141F00071416008BD27
:100A80000010024000000140F0B40E4B1B680C4601
:100A9000C3F30223C3F10705042D00D90425191D52
:100AA000072901D2002300E0DB1E012606FA05F12A
:100AB000491E214099409E40761E16403143F0BCAD
:100AC00000F01EBE0CED00E0064900F007020868C9
:100AD0004FF6FF03184040EA0220034A1043086023
:100AE000704700000CED00E00000FA052DE9F0472A
:100AF0000F46050061D0434E306800F00700B84251
:100B000009D2306820F0070038433060306800F0C8
:100B10000700B84251D128683B4C810712D54007E5
:100B200003D5606840F4E06060602878000703D572
:100B3000606840F4605060606068A96820F0F00070
:100B4000084360602878C00728D06868012810D062
:100B50002168022810D0890700292EDA616821F067
:100B6000030101436160FFF731FF804641F288399C
:100B70000DE021688903EFE78901EDE7FFF726FF24
:100B8000A0EB0801494502D90320BDE8F087606861
:100B9000696800F00C00B0EB810FEFD1306800F015
:100BA0000700B8420BD9306820F0070038433060A6
:100BB000306800F00700B84201D00120E5E728784E
:100BC000400705D56068E96820F4E060084360608C
:100BD0002878000706D56068296920F4605040EA4B
:100BE000C100606000F038F86168084AC1F3031181
:100BF000515CC8400649086006480068FFF706FFD8
:100C00000020C2E70020024000100240D81A00086D
:100C100010000020080000200448054900684968C9
:100C2000044AC1F30221515CC84070471000002003
:100C300000100240E81A00080448054900684968A5
:100C4000044AC1F3C221515CC84070471000002023
:100C500000100240E81A000812A185B00FC98DE803
:100C60000F0014A0144A006804905168134801F062
:100C70000C03042B10D0082B0ED1C1F38343C903FE
:100C80001DF803000AD5516804AAC1F34041515C24
:100C90000A4A5043B0FBF1F005B070470849484399
:100CA000FAE7000002030405060708090A0B0C0D09
:100CB0000E0F1010010200000010024000127A0016
:100CC00000093D002DE9F84F040070D02078C04D98
:100CD000C00749D06868C0F38100012807D0686860
:100CE000C0F38100022809D16868C00306D52868CE
:100CF000800339D560680028E7D035E06068B0F53A
:100D0000803F0BD010B1B0F5A02F11D0286820F48F
:100D100080302860286820F4802002E0286840F4B1
:100D200080302860606890B1FFF750FE06460AE008
:100D3000286840F480202860F0E700BFFFF746FEF7
:100D4000801B642873D828688003F7D50CE0FFF770
:100D50003DFE064605E000BFFFF738FE801B642815
:100D6000F0D828688003F7D420789A4E80074FF097
:100D700001094FF0000839D5686810F00C0F07D052
:100D80006868C0F38100022809D16868C00306D4EE
:100D90002868800714D52069012808D110E020694F
:100DA000B0B1C6F80090FFF711FE074605E00AE172
:100DB000FFF70CFEC01B0228C4D828688007F7D5AF
:100DC0002868616920F0F80040EAC10028600DE061
:100DD000C6F80080FFF7FAFD074604E0FFF7F6FDCE
:100DE000C01B022823D828688007F7D42078000782
:100DF0002CD57948A169D9B1C0F80090FFF7E6FD7C
:100E0000074604E0FFF7E2FDC01B02280FD8686A1E
:100E10008007F7D571484FF4FA510068B0FBF1F044
:100E2000009000BF0098411E0091FAD20EE080E0D1
:100E3000C0F80080FFF7CAFD074604E0FFF7C6FDD3
:100E4000C01B022875D8686A8007F7D4207840074D
:100E500060D5E8690027C00008D4E86940F08050F8
:100E6000E861E869012700F0805000905C48016863
:100E7000C90513D40168834641F480710160FFF70E
:100E8000A5FD824606E000BFFFF7A0FDA0EB0A002B
:100E900064284ED8DBF80000C005F5D5E0680128CD
:100EA0000AD008B1052813D0286A20F00100286272
:100EB000286A20F0040002E0286A40F0010028625D
:100EC000E06841F2883B98B1FFF780FD82460BE075
:100ED000286A40F004002862EEE700BFFFF776FDC5
:100EE000A0EB0A0159455AD8286A8007F6D50CE0CC
:100EF000FFF76CFD824605E0FFF768FDA0EB0A01F5
:100F000059454CD8286A8007F6D41FB1E86920F00B
:100F10008050E861E06988B36968C1F38101022902
:100F200044D00228C6F8608004D0FFF74FFD044685
:100F300038E034E0FFF74AFD074604E0FFF746FDDE
:100F4000C01B02282BD828688001F7D4206AB0F58E
:100F5000803F05D16868A16820F4003008436860CC
:100F6000D4E908010843696821F4741108436860F2
:100F7000C6F86090FFF72AFD044606E025E000BFB2
:100F8000FFF724FD001B022809D828688001F7D547
:100F90001BE000BFFFF71AFD001B022802D9032047
:100FA000BDE8F88F28688001F4D40EE00128F7D05E
:100FB0006868226A00F48031914204D1616A00F4C9
:100FC0007010884201D00120EAE70020E8E7000025
:100FD0000010024000004242800442421000002003
:100FE0000070004010B5401EB0F1807F01D3012099
:100FF00010BD4FF0E02460610F21601700F080FB0E
:101000000020A06107202061002010BD70B590F87D
:101010003C20012A19D0012400F83C4F02224270E2
:1010200050F83C3C5A689D6822F070060A6849688E
:10103000324325F0800529435A6050F83C2C9160DA
:10104000447000210170084670BD022070BD10B5CB
:10105000040003D094F83D0010B107E0012010BD5A
:10106000002084F83C00204600F00CF8022084F8B0
:101070003D00211D206800F027FA012084F83D0082
:10108000002010BD08B500680649884208D106480E
:10109000C16941F00201C161C06900F00200009025
:1010A00008BD0000000400400010024070B5044676
:1010B00090F83C00012817D0012584F83C5002200C
:1010C00084F83D002068826822F0770222F47F4293
:1010D00082600868502830D00DDC20284DD005DC17
:1010E00098B310283BD148E0022070BD302844D08E
:1010F000402834D139E0602828D0702806D0B0F5D7
:10110000805F2CD0B0F5005F29D10AE0CB68D1E92F
:101110000121206800F01EFA2068816841F0770103
:1011200009E0CB68D1E90121206800F013FA2068BA
:10113000816841F48041816011E0CA684968206893
:1011400000F01AFA5021206807E016E0CA684968E2
:10115000206800F022FA6021206800F005FA84F887
:101160003D50002084F83C0070BDCA684968206882
:1011700000F002FA40212068EFE72268014610469D
:10118000EBE770B5040004D094F83900002510B1E5
:1011900006E0012070BD84F83850204600F022F8A7
:1011A000242084F839002068C16821F40051C1600E
:1011B000204600F005FA2068016921F490410161A0
:1011C0002068416921F02A0141612068C16841F429
:1011D0000051C160E563202084F8390084F83A00AA
:1011E000002070BD30B585B00024009401940294B5
:1011F000039400681449884224D11448816941F459
:1012000080418161816901F480410491816941F0EB
:101210000401816180690E4D00F0040004904FF4D8
:101220000070009002200190032003906946284638
:10123000FFF7C6FA2815CDE900046946284602944E
:10124000FFF7BEFA05B030BD003801400010024083
:10125000000801402DE9F843044690F839001F4684
:1012600016460D46202850D1A5B19EB194F83800FD
:1012700001284AD0012084F838004FF00008C4F853
:101280003C80212084F83900FFF7A0FBA68481462A
:10129000E68426E00120BDE8F883E08C401EE0846F
:1012A000A0684B46B0F5805F4FF000024FF0800120
:1012B0002046009703D000F0DFF9E8B90DE000F018
:1012C000DBF9C8B928882168C0F3080048602069A4
:1012D00008B16D1C05E0AD1C03E0216815F8010B99
:1012E0004860E08C0028D8D14B460022402120469F
:1012F000009700F0C1F908B10320CCE7202084F862
:10130000390084F838800020C5E70220C3E7FEE7F3
:1013100070B586B000241848009401940294039498
:10132000816941F010018161816901F0100104912E
:10133000816941F020018161816901F020010491FE
:10134000816941F00401816180690C4E00F0040064
:101350004FF480550490002229463046FFF731FBB8
:1013600001200095CDE90104022003906946304632
:10137000FFF726FA06B070BD0010024000080140D9
:1013800010B586B000241848009401940294039488
:10139000049414490594016014490978C0E90114C2
:1013A0004FF6FF71C0E9031480218161FFF74FFE02
:1013B00008B1FFF75BF94FF48050009069460A4886
:1013C000FFF774FE08B1FFF751F9049404A9064829
:1013D0000594FFF71BFE002801D0FFF747F906B080
:1013E00010BD000000040040640000201400002034
:1013F0000C4810B50A4901604FF4E1314160002109
:1014000081600C22C160C0E904128161C161FFF7F3
:10141000B8FE002803D0BDE81040FFF727B910BD83
:101420000038014024000020FEE7704770477047F5
:10143000FFF7D2BA30B58FB028216846FEF7ABFE71
:1014400014210AA8FEF7A7FE01210804CDE9001027
:101450000024029402250491CDE90750C0000990B0
:101460006846FFF72FFC0F20CDE90A056802CDE999
:101470000C4001210AA80E94FFF738FB0FB030BDD5
:101480000D48016841F00101016041680B4A1140BB
:10149000416001680A4A11400160016821F480211D
:1014A0000160416821F4FE0141604FF41F01816039
:1014B0000449C00308607047001002400000FFF8B4
:1014C000FFFFF6FE08ED00E0F0B502681C4B1D4D75
:1014D0001D4E1E4F1E4C4FF0804C984209D0A0422A
:1014E00007D0604505D0A84203D0B04201D0B84231
:1014F00004D122F0700E4A6842EA0E02984209D0E6
:10150000A04207D0604505D0A84203D0B04201D028
:10151000B84203D122F44075CA682A434D6922F0CB
:1015200080022A4302608A68C2620A688262984224
:1015300001D0A04201D10969016301214161F0BDDF
:10154000002C01400004004000080040000C004056
:101550000034014010B5846842EA032224F47F4439
:101560000A432243826010BD826822F070020A435F
:1015700042F007018160704710B5036A046A24F0E5
:1015800001040462846924F0F00444EA021423F0A4
:101590000A020A438461026210BD10B5036A23F097
:1015A000100303628369046A23F4704343EA02323E
:1015B00024F0A00343EA01118261016210BD000022
:1015C0002DE9F041044600680169E26821F44051C8
:1015D000114301612169A0680843616908432168DA
:1015E000CA6841F20C639A430243CA6020684169A9
:1015F000A26921F44071114341611E4920686425AC
:101600003226884202D1FFF717FB01E0FFF704FB07
:1016100000EBC00101EB001160686FF0180780005B
:10162000B1FBF0F2B2FBF5F2B1FBF0F37A4303EB5E
:101630008202B1FBF0F306EB0212B2FBF5F2B3FB50
:10164000F5F302F0F00202EB0312B1FBF0F3B1FB91
:10165000F0F0B0FBF5F0784303EB800006EB0010F0
:10166000B0FBF5F0216800F00F0010448860BDE881
:10167000F0810000003801402DE9F04198461746FE
:101680000E460446069D1DE0681C1BD02DB1FFF7D9
:101690009DF9A0EB0800A84214D92068C16821F484
:1016A000D071C1602068416921F0010141612020B1
:1016B00084F8390084F83A00002084F838000320C8
:1016C000BDE8F0812068006836EA000004D0002000
:1016D000B842D9D00020F3E70120F9E7FEE7000087
:1016E0000FB4054B10B503A9044A029800F028F87E
:1016F00010BC5DF814FB00004D1A0008200000200B
:101700000907090E002804DB00F1E02080F800142E
:10171000704700F00F0000F1E02080F8141D7047C2
:1017200002E008C8121F08C1002AFAD170477047AA
:10173000002001E001C1121F002AFBD17047000008
:101740002DE9FF4F89B09B460446002506E0252879
:101750000BD05A460B999047641C6D1C20780028CA
:10176000F5D10DB02846BDE8F08F0027B84601221C
:10177000474900E0074314F8013F203B02FA03F019
:101780000842F7D120782E2819D114F8010F47F01C
:1017900004072A280ED06FF02F022078A0F1300124
:1017A00009290CD808EB880102EB410100EB010884
:1017B000641CF2E70A98641C50F8048B0A902078A5
:1017C0000028CED0642808D0692806D075281ED0FD
:1017D0005A460B9990476D1C58E00A994FF00A0938
:1017E00001C90A91002802DA40422D2102E03905A0
:1017F00004D52B218DF82010012103E0F90704D036
:101800002021F7E78A4608AE0DE00021FAE70A99A1
:101810004FF00A0901C90A91F7E74946FEF768FD4A
:10182000303106F8011D0028F7D1ADEB060000F1BC
:101830002009780701D44FF00108C84502DDA8EB64
:10184000090000E000208046002706E008A85A466C
:10185000C05D0B9990476D1C7F1C5745F6DB04E07B
:1018600030205A460B9990476D1CB8F10001A8F141
:101870000108F5DC05E016F8010B5A460B99904774
:101880006D1CB9F10001A9F10109F4DC641C65E7E4
:10189000092801000B484EF6FF714089081A0A49D1
:1018A0000A6850620948026842F001020260096851
:1018B0004EF6FE724B6A9342FCD3016821F001019F
:1018C0000160704714000020640000200004004004
:1018D0000B484EF6FF718088081A0A490A68506260
:1018E0000948026842F00102026009684EF6FE7281
:1018F0004B6A9342FCD3016821F0010101607047FB
:101900001400002064000020000400400B484EF644
:10191000FF714078081A0A490A685062094802684B
:1019200042F00102026009684EF6FE724B6A934271
:10193000FCD3016821F00101016070471400002010
:1019400064000020000400400B484EF6FF718078D0
:10195000081A0A490A6850620948026842F00102FE
:10196000026009684EF6FE724B6A9342FCD301682E
:1019700021F0010101607047140000206400002084
:10198000000400400B484EF6FF71C078081A0A495F
:101990000A6850620948026842F001020260096860
:1019A0004EF6FE724B6A9342FCD3016821F00101AE
:1019B0000160704714000020640000200004004013
:1019C0000B484EF6FF71C088081A0A490A6850622F
:1019D0000948026842F00102026009684EF6FE7290
:1019E0004B6A9342FCD3016821F00101016070470A
:1019F0001400002064000020000400400B484EF654
:101A0000FF710089081A0A490A6850620948026889
:101A100042F00102026009684EF6FE724B6A934280
:101A2000FCD3016821F0010101607047140000201F
:101A3000640000200004004010B5044602E000BF2E
:101A4000FFF728FF641EFBD210BD000013B54FF650
:101A5000FF73012269460248FFF7FCFB00981CBD9A
:101A600024000020FEF7C0FFFFF7E4FCFFF750FC66
:101A7000FFF7BEFCFEF75CFD0F4C014620800FA077
:101A8000FFF72EFE20881028FDD00028FDD10A2562
:101A90004FF4FA76FEF7FCFC80B2B0FBF5F105FBE3
:101AA0001102B0FBF5F1208009A0FFF719FE3046C6
:101AB000FFF7C2FFEEE7000000000020445331387A
:101AC0004232305F496E69743D25640A00000000AF
:101AD00025642E25640A00000000000000000000BC
:101AE00001020304060708090000000001020304C4
:101AF000101B000800000020240000002017000830
:101B0000341B000824000020840400003017000863
:101B100000000000010000001000000000000000B4
:101B20000024F40002010224900070022C1F982966
:041B300000000000B1
:0400000508000131BD
:00000001FF
