:020000040800F2
:10000000C0040024AD0200083B2500087924000844
:1000100039250008E50300088937000800000000C2
:10002000000000000000000000000000A5270008FC
:10003000E7030008000000003D250008A72700088E
:10004000C7020008C7020008C7020008C70200086C
:10005000C7020008C7020008C7020008C70200085C
:10006000C7020008C7020008C7020008C70200084C
:10007000C7020008C7020008C7020008C70200083C
:10008000C7020008C7020008C7020008C70200082C
:10009000C7020008C7020008C7020008C70200081C
:1000A000C7020008C7020008C7020008C70200080C
:1000B000C7020008C7020008C7020008C7020008FC
:1000C000C7020008C7020008C7020008C7020008EC
:1000D000C70200087D370008C7020008C7020008F1
:1000E000C7020008C702000800000000C70200089D
:1000F000C7020008C7020008C7020008C7020008BC
:10010000C7020008C7020008C7020008C7020008AB
:10011000C7020008C7020008C7020008C70200089B
:10012000C7020008C7020008C7020008C70200088B
:10013000C7020008C7020008C7020008C70200087B
:1001400000000000000000000000000000000000AF
:10015000C7020008C7020008C7020008C70200085B
:10016000C7020008C7020008C7020008C70200084B
:10017000C7020008C7020008C7020008000000000C
:10018000C7020008C7020008C7020008C70200082B
:10019000C7020008C7020008C7020008C70200081B
:1001A000C7020008C7020008C7020008C70200080B
:1001B000C7020008C7020008C7020008C7020008FB
:1001C000C7020008C7020008C7020008C7020008EB
:1001D000C7020008C7020008C7020008C7020008DB
:1001E000C7020008C7020008C7020008C7020008CB
:1001F000C7020008C7020008C7020008C7020008BB
:10020000C7020008C7020008C7020008C7020008AA
:10021000C7020008C7020008C7020008C70200089A
:10022000C7020008C7020008C7020008000000005B
:10023000C7020008C702000800000000C70200084B
:10024000C7020008C7020008C7020008C70200086A
:10025000C7020008C7020008C7020008C70200085A
:10026000C7020008C7020008C7020008C70200084A
:10027000C7020008C7020008C7020008000000000B
:10028000C7020008C7020008C702000800000000FB
:1002900000000000C7020008DFF80CD000F090F862
:1002A0000048004759390008C00400240648804728
:1002B00006480047FEE7FEE7FEE7FEE7FEE7FEE74B
:1002C000FEE7FEE7FEE7FEE7652800089902000862
:1002D0002DE9F05F0546002092469B46884606467B
:1002E000814640241BE0284641464746224600F00E
:1002F00057F853465A46C01A914110D31146184632
:10030000224600F03EF82D1A67EB01084F462246C0
:100310000120002100F035F817EB00094E41201EA6
:10032000A4F10104DFDC484631462A464346BDE8D5
:10033000F09FD2B201E000F8012B491EFBD27047BA
:100340000022F6E710B513460A4604461946FFF7A1
:10035000F0FF204610BD30B50B460146002020229C
:10036000012409E021FA02F59D4205D303FA02F5C2
:10037000491B04FA02F52844151EA2F10102F1DC22
:1003800030BD202A04DB203A00FA02F10020704739
:100390009140C2F1200320FA03F3194390407047C3
:1003A000202A04DB203A21FA02F00021704721FACA
:1003B00002F3D040C2F12002914008431946704731
:1003C000064C074D06E0E06840F0010394E80700A2
:1003D00098471034AC42F6D3FFF762FFA439000807
:1003E000C4390008FEE770477047000040F2311141
:1003F00040F2271010B502F0C3F905490968421A06
:10040000012A02DC0A1A012A00DD084610BD00009C
:10041000180000242DE9F05F28B190F8351002296A
:1004200004D0802141650120BDE8F09F904C904BA5
:100430000168183C18338E4ADFF83C92A1428D4C7B
:10044000DFF838E28E4FDFF83CB2DFF83CA28F4D88
:100450008F4E31D091422FD099422DD0A1422BD036
:10046000494529D0714527D0B94225D0DFF810C2BF
:100470000CF1180C61451FD0DFF808C2ACF1600C1C
:10048000614519D0DFF8FCC1ACF1480C614513D0CF
:10049000DFF8F0C1ACF1300C61450DD0DFF8E4C1FC
:1004A000ACF1180C614507D0594505D0514503D032
:1004B000A94201D0B1422CD1DFF8B4C14FF00408F9
:1004C00080F83580ACF1180C61451DD091421BD0ED
:1004D000994219D0A14217D0494515D0714513D082
:1004E000B94211D06648183081420DD06548603855
:1004F000814209D063484838814205D0614830388C
:10050000814201D05F481838086820F00100086077
:10051000ABE0D1F800C02CF00E08DFF854C1C1F8F0
:100520000080ACF1180C0168614527D0914225D0BC
:10053000994223D0A14221D049451FD071451DD0F9
:10054000B9421BD0DFF838C10CF1180C614515D049
:10055000DFF830C1ACF1600C61450FD0DFF824C189
:10056000ACF1480C614509D0DFF818C1ACF1300C92
:10057000614503D0DFF80CC1ACF1180CD1F800C014
:100580002CF0010CC1F800C0DFF8E4804FF0010C42
:100590000168A8F11808414546D0914244D09942DB
:1005A00042D0A14240D049453ED071453CD0B942ED
:1005B0003AD0334A1832914236D0324A603A9142A8
:1005C00032D0304A483A91422ED02E4A303A9142A7
:1005D0002AD02C4A183A914226D0594524D0514568
:1005E00022D0A94220D0B1421ED02A4A91421BD02B
:1005F000284A1432914217D0264A2832914213D009
:10060000244A3C3291420FD0224A503291420BD0C0
:10061000204A6432914207D01E4A7832914203D078
:100620001C4A8C32914218D1016E0A6822F4807201
:100630000A6090F85C20816D02F01F020CFA02F251
:100640004A60D0E919124A60C16E31B10A6822F4D9
:1006500080720A60D0E91C124A600022016D80F8A5
:10066000342080F835C001B188470020DCE6000066
:1006700028000240580002407000024088000240FA
:10068000A00002407004024088040240A00402401E
:10069000B80402400854025870B5044600F02CF922
:1006A0000546601C02D004480078044400F024F998
:1006B000401BA042FAD370BD040000242DE9FC4F7A
:1006C00001257E4C00234FF0030A4FF0B04E4FF04F
:1006D0000F0BEBE005FA03F637403A0077D04F688E
:1006E000012F05D0022F03D0112F01D0122F1AD1C4
:1006F00087684FEA4308D1F80CC00AFA08F927EADC
:1007000009070CFA08FC4CEA070CC0F808C0476857
:1007100091F804C0B743CCF3001C0CFA03FC4CEA7C
:10072000070CC0F804C0C6684FEA430CD1F8088033
:10073000E1460AFA0CF7BE43019708FA09F848EABD
:100740000608C0F80C804E68022E01D0122E12D17D
:10075000DE084FEA437C00EB860600960F69366A96
:100760004FEADC6C0BFA0CF807FA0CF726EA0806DD
:100770003743009E37620E790768DDF804C006F043
:10078000030606FA09F627EA0C073E4306604E68A0
:10079000F6001CD54A4E376847F0020737603668C6
:1007A0009F0706F00206009623F0030606F1B04606
:1007B000B1463F0FD6F80864DFF808810BFA07FC52
:1007C000404526EA0C0603D14FF0000C41E06CE0F6
:1007D000DFF8F4C0604502D14FF0010C39E0DFF8DA
:1007E000ECC0604502D14FF0020C32E0DFF8E0C00F
:1007F000604502D14FF0030C2BE0DFF8D8C0604514
:1008000002D14FF0040C24E0DFF8CCC0604502D1E7
:100810004FF0050C1DE0DFF8C4C0604502D14FF079
:10082000060C16E0DFF8B8C0604502D14FF0070CA7
:100830000FE0DFF8B0C0604502D14FF0080C08E0CF
:10084000DFF8A4C0604502D14FF0090C01E04FF081
:100850000A0C0CFA07FC4CEA060CC9F808C4266816
:100860004F6826EA0206FF0300D516432660666835
:100870004F6826EA0206BF0300D516436660D1F82A
:1008800004C07646DEF800705FEACC2C27EA020747
:1008900000D517433760D1F804C077685FEA8C2C25
:1008A00027EA020700D5174377605B1C0A681746E2
:1008B000DA407FF40FAFBDE8FC8F000080000058E5
:1008C000F44402580000025800040258000802587C
:1008D000000C025800100258001402580018025868
:1008E000001C0258002002580024025801480068E9
:1008F000000C70470010005C0148806870470000E1
:100900000400002402488168027811448160704725
:1009100004000024032010B500F086F800F0D8FF92
:100920000F4A104914681368C4F3032203F00F033D
:100930008A5CC95C02F01F0201F01F01D0400A4A24
:1009400020FA01F1116009490860002000F010F858
:1009500008B1012010BD00F02BF8002010BD0000F0
:100960001844025894390008140000241000002490
:1009700070B50D4D04462878A0B14FF47A71B1FBE3
:10098000F0F00A490968B1FBF0F001F03FFB48B90B
:10099000102C07D200222146501E00F025F800201E
:1009A0006C6070BD012070BD0400002410000024A4
:1009B000054808B5016841F002010160006800F0D7
:1009C0000200009008BD0000F4440258002809DB32
:1009D000410900F01F028900012001F1E02190404F
:1009E000C1F80001704700000E4BF0B41B680D46C3
:1009F000C3F30223C3F10706042E00D90426191DF0
:100A0000072901D2002300E0DB1E012404FA06F1CD
:100A10009C40491E2940641E994014402143F0BC6B
:100A200002F0C4BE0CED00E0064900F0070210B56C
:100A30004FF6FF040868044B204040EA02201843A8
:100A4000086010BD0CED00E00000FA05134970B518
:100A50000A68D243520705D5096801F007018142AF
:100A600013D118E00A6822F0070202430A60FFF778
:100A700043FF0A4D4FF47A760446083D07E000BF75
:100A8000FFF73AFF001BB04201D9012070BD286872
:100A9000C0438004F4D4002070BD00000C4802580C
:100AA00010B500F0CFFE05490968054AC1F30211EF
:100AB000515C01F01F01C84010BD000020440258E5
:100AC00094390008494930B5484C0B1D0A68143464
:100AD00009681D68246802F00303C5F30012C1F31E
:100AE0000531C4F3CC04002914FB02F200EE102AF5
:100AF000F8EE400A75D03F4A9FED3D1AB7EE000A66
:100B00006BB1DFED3D1A012B01D0022B64D002EE58
:100B1000101A1168F8EE422A81EEA22A21E0334C25
:100B2000283C23689B0612D5344B246801EE901AAA
:100B30001168C4F3C104F8EE612AE34001EE903A73
:100B4000C1F30801F8EE611A81EEA22A0BE001EE72
:100B5000901ADFED2B2A00BFF8EE611A116882EEC1
:100B6000A12AC1F3080101EE901A1168F8EE611A8A
:100B700040EE811A71EE800A62EE200AC1F346212E
:100B800001EE101AB8EE411A31EE001AC0EE811AC9
:100B9000BCEEE11A80ED001A1168C1F3064101EEC6
:100BA000101AB8EE411A31EE001AC0EE811ABCEEEE
:100BB000E11A80ED011A1168C1F3066101EE101A05
:100BC000B8EE411A31EE000A80EE801ABCEEC10A7E
:100BD00080ED020A30BD04E001EE901ADFED092A33
:100BE000BAE70021016041608160F3E728440258C0
:100BF00000000039384402580024744A0090D003A1
:100C00000024744C20BCBE4B494930B5484C0B1DE8
:100C10000A681C3409681D68246802F00303C5F3E0
:100C20000022C1F30551C4F3CC04002914FB02F2E5
:100C300000EE102AF8EE400A75D03F4A9FED3D1AAB
:100C4000B7EE000A6BB1DFED3D1A012B01D0022B8C
:100C500064D002EE101A1168F8EE422A81EEA22A40
:100C600021E0334C283C23689B0612D5344B246882
:100C700001EE901A1168C4F3C104F8EE612AE34052
:100C800001EE903AC1F30801F8EE611A81EEA22A52
:100C90000BE001EE901ADFED2B2A00BFF8EE611A8F
:100CA000116882EEA12AC1F3080101EE901A1168C1
:100CB000F8EE611A40EE811A71EE800A62EE200AA7
:100CC000C1F3462101EE101AB8EE411A31EE001AB6
:100CD000C0EE811ABCEEE11A80ED001A1168C1F372
:100CE000064101EE101AB8EE411A31EE001AC0EEBC
:100CF000811ABCEEE11A80ED011A1168C1F3066198
:100D000001EE101AB8EE411A31EE000A80EE801A98
:100D1000BCEEC10A80ED020A30BD04E001EE901A7B
:100D2000DFED092ABAE70021016041608160F3E745
:100D30002844025800000039404402580024744AF4
:100D40000090D0030024744C20BCBE4B2DE9FC5F06
:100D5000044650F8241B002500902E460801FE4F43
:100D6000DFF8F8831DD5606E50B1B0F5801F0CD050
:100D7000B0F5001F0ED0B0F5401F1DD001250FE0CB
:100D8000386840F40030386016E00221201D01F080
:100D9000D7FB03E00098022101F062FC05000BD0B4
:100DA0002E462088C00523D5606D05281ED2DFE8B9
:100DB00000F00C11161B1B00626ED8F8001021F415
:100DC00040111143C8F80010EBE7386840F40030D8
:100DD000386009E00021201D01F0B2FB03E000981B
:100DE000002101F03DFC05466DB100E001252E46D5
:100DF0002088800528D5A06D80281ED00CDC90B1FD
:100E000040280ED114E0626DD8F8001021F00701DF
:100E10001143C8F80010EBE7C02813D0B0F5807F6D
:100E200010D001250FE0386840F40030386009E048
:100E30000021201D01F084FB03E00098002101F057
:100E40000FFC054695B12E462088DFF8109340052B
:100E500009F108092CD5D4F8A400B0F5800F20D0F2
:100E60000DDCA0B1B0F5001F0FD115E0A26DD8F8D0
:100E7000001021F4E0711143C8F80010E4E7B0F568
:100E8000C00F13D0B0F5000F10D001250FE0386867
:100E900040F40030386009E00021201D01F050FBD3
:100EA00003E00098002101F0DBFB054675B12E46FA
:100EB000208800052DD5D4F8A800B0F1007F21D0FE
:100EC0000EDCA8B1B0F1807F10D116E0D4F8A420D8
:100ED000D9F8001021F460011143C9F80010E7E7C8
:100EE000B0F1407F13D0B0F1806F10D001250FE03A
:100EF000386840F40030386009E00021201D01F01E
:100F00001FFB03E00098002101F0AAFB05468DB10C
:100F10002E462068DFF844B28001ABF1040B1FD5E8
:100F2000A06CD8B110280FD0202812D0302815D0AE
:100F3000012514E0D4F8A820D9F8001021F0E061D0
:100F40001143C9F80010E4E7386840F40030386015
:100F500004E00221201D01F0F3FA05466DB12E4692
:100F60002088C0042BD5E06DB0F5005F20D00DDCEB
:100F7000A0B1B0F5805F0FD115E0A26CDBF80010D6
:100F800021F030011143CBF80010E9E7B0F5405FE4
:100F900013D0B0F5804F10D001250FE0386840F431
:100FA0000030386009E00021201D01F0C9FA03E09B
:100FB0000098002101F054FB054685B12E4620889B
:100FC000800429D5206EB0F5403F23D010DC08B353
:100FD000B0F5803F14D0B0F5003F0FD115E0E26DC1
:100FE000D8F8001021F4E0411143C8F80010E6E7FA
:100FF000B0F5802F0ED0B0F5A02F0BD001250AE060
:101000000121201D01F09CFA03E00098012101F06C
:1010100027FB05468DB12E46208840042AD5D4F8FA
:10102000AC00B0F1405F23D010DC08B3B0F1805FBA
:1010300014D0B0F1005F0FD115E0226ED8F8001087
:1010400021F4E0211143C8F80010E5E7B0F1804F2A
:101050000ED0B0F1A04F0BD001250AE00121201DD8
:1010600001F06EFA03E00098012101F0F9FA05465B
:101070006DB12E46208800041FD5E06ED8B1B0F1C6
:10108000805F0ED0B0F1005F10D0012514E0D4F8DD
:10109000AC20D9F8001021F0E0411143C9F800104C
:1010A000E8E7386840F40030386004E00121201D92
:1010B00001F046FA05466DB12E462068C0011ED5E6
:1010C000606CD0B101280ED0022811D0032814D0B2
:1010D000012513E0E26ED8F8001021F040511143D1
:1010E000C8F80010E9E7386840F40030386004E0E0
:1010F0000221201D01F024FA054665B12E46206824
:10110000400257D51648016841F480710160FFF72D
:10111000F3FB82460EE0626CDBF8001021F0030165
:101120001143CBF80010EAE7FFF7E6FBA0EB0A005B
:1011300064283DD80A480068C005F5D57DBBDFF8B6
:101140001CA0B4F8B0100AF1200ADAF8000001F48B
:10115000407100F4407005E02C440258504402589D
:1011600000480258884211D0DAF80010DAF800205E
:1011700021F4407142F48032CAF80020DAF80020ED
:1011800022F48032CAF80020CAF80010D4F8B00067
:10119000B0F5807F21D1FFF7AFFB019019E008E0A7
:1011A000FFF7AAFB0199411A41F28830814210D918
:1011B00003252E462078DFF80CA4C0073DD0A06F91
:1011C000182838D026DC80B3082829D0102825D14B
:1011D0002CE0DAF800008007E2D5D4F8B010C1F3B3
:1011E00001200328F8480DD0016821F47C510160EA
:1011F000B4F8B020DAF80010C2F30B021143CAF8B9
:101200000010D7E7F14A036802EA111223F47C5177
:101210001143ECE720280ED028280CD001250BE044
:101220000121201D01F08CF904E004E00098012167
:1012300001F016FA05465DB12E46207880071ED5CE
:10124000606F062819D2DFE800F0160C111616168A
:10125000A26FDAF8001021F038011143CAF800102B
:10126000EBE70121201D01F06BF903E0009801215B
:1012700001F0F6F9054675B100E001252E4620780B
:1012800040071FD5D4F89000062819D2DFE800F0F7
:10129000160C11161616626FDAF8001021F007010D
:1012A0001143CAF80010EAE70121201D01F048F9B6
:1012B00003E00098012101F0D3F905469DB100E05B
:1012C00001252E46207880062BD5D4F88C00B0F16D
:1012D000405F24D011DC10B3B0F1805F15D0B0F1C5
:1012E000005F10D116E0D4F89020D9F8001021F05A
:1012F00007011143C9F80010E4E7B0F1804F0ED0A8
:10130000B0F1A04F0BD001250AE00021201D01F013
:1013100017F903E00098022101F0A2F905468DB10A
:101320002E46207840062BD5D4F89800B0F5406FB3
:1013300024D011DC10B3B0F5806F15D0B0F5006F7C
:1013400010D116E0D4F88C20DAF8001021F0E0413A
:101350001143CAF80010E4E7B0F5805F0ED0B0F595
:10136000A05F0BD001250AE00021201D01F0E8F864
:1013700003E00098022101F073F905468DB12E4675
:10138000207800062BD5D4F89C00B0F5C04F24D0AF
:1013900011DC10B3B0F5005F15D0B0F5804F10D15F
:1013A00016E0D4F89820D9F8001021F4E051114348
:1013B000C9F80010E4E7B0F5004F0ED0B0F5204FAB
:1013C0000BD001250AE00021201D01F0B9F803E04F
:1013D0000098022101F044F905464DB12E462078CF
:1013E00000071ED5D4F88000B0F5805F0AD00FE06A
:1013F000D4F89C20D9F8001021F460411143C9F8B9
:101400000010ECE70098022101F02AF900B1012652
:10141000D4F88020DAF8001021F440511143CAF8C2
:1014200000102078C00613D5D4F89400B0F5807F62
:1014300005D10098022101F013F900B10126D4F87A
:101440009420D9F8001021F440711143C9F800101C
:101450002068000316D5D4F8A00038B1B0F5803F5D
:1014600009D0B0F5003F0BD001250AE00021201D76
:1014700001F066F803E00098022101F0F1F805465A
:1014800085B12E462068400322D5D4F88400B0F5FB
:10149000801F11D0B0F5001F13D0B0F5401F15D03C
:1014A000012514E0D4F8A020D9F8001021F440312F
:1014B0001143C9F80010E5E7386840F4003038609F
:1014C00004E00098012101F0CBF8054655B12E4605
:1014D0002068C0031CD5E06C70B1B0F5803F10D01F
:1014E000012514E0D4F88420DAF8001021F440112A
:1014F0001143CAF80010EBE7386840F40030386058
:1015000004E00221201D01F01BF80546CDB12E4656
:101510002068800005D50098022101F0A1F800B1F3
:101520000126206880031BD5E06FB8B1B0F5807F3D
:1015300010D0B0F5007F11D0B0F5407F0ED001255E
:101540000DE0E26CDBF8001021F480311143CBF8A0
:101550000010DDE7386840F400303860C5B32E462F
:101560002068C00207D5226FD8F8001021F0004192
:101570001143C8F800102068800207D5A26ED8F881
:10158000001021F080711143C8F80010206840005D
:1015900009D50D48016821F4004101600168D4F8C3
:1015A000B820114301602068002807DA226DDBF8BB
:1015B000001021F040511143CBF8001096B10120EA
:1015C000BDE8FC9F5444025810440258CFFFFF006E
:1015D000FFE7E26FDAF8001021F440711143CAF816
:1015E0000010BDE70020EBE72DE9F05F04000F4697
:1015F0007ED0DFF83882D8F8000000F00F00B84243
:101600000CD2D8F8001021F00F013943C8F80010AF
:10161000D8F8000000F00F00B84269D12078844D5E
:1016200040070AD52069296801F07001884204D971
:10163000296821F070010143296020787C4E361D15
:1016400000070AD56069316801F07001884204D949
:10165000316821F07001014331602078C0060AD55D
:10166000A069316801F4E061884204D9316821F44D
:10167000E061014331602078DFF8B4B180060BF1FE
:10168000080B0CD5E1695846DBF8002002F0700227
:10169000914204D9026822F070020A430260207865
:1016A00080070AD5E068296801F00F01884204D953
:1016B000296821F00F01014329602078C0073ED03E
:1016C0005B49A2682868183920F4706010432860CC
:1016D0006068022818D0032819D00968012819D099
:1016E000490700294ADADFF848A1AAF1080A00E010
:1016F00044E0DAF8002022F007020243CAF8002092
:10170000FFF7FAF8814612E009688903E9E70968FA
:101710008901E6E7C905E4E7FFF7EEF8A0EB090168
:1017200041F28830814202D90320BDE8F09F616810
:10173000DAF8000000F03800B0EBC10FECD12078EF
:1017400080070AD5E068296801F00F01884204D2B9
:10175000296821F00F0101432960D8F800104046A4
:1017600001F00F01B9420BD9016821F00F01394393
:101770000160006800F00F00B84201D00120D4E7FA
:10178000207840070AD52069296801F07001884255
:1017900004D2296821F070010143296020780007F4
:1017A0000AD56069316801F07001884204D231685D
:1017B00021F07001014331602078C0060AD5A0698C
:1017C000316801F4E061884204D2316821F4E061BB
:1017D00001433160207880060CD5E1695846DBF87A
:1017E000002002F07002914204D2026822F07002DE
:1017F0000A43026000F06CF80E492A682B68C2F3B5
:10180000032203F00F038A5CC95C02F01F0201F09F
:101810001F01D040084A20FA01F111600749086011
:1018200007480068BDE8F05FFFF7A2B8002000524B
:1018300018440258943900081400002410000024B1
:101840000800002430B500F043F80B4A0B490C4B5C
:1018500015681468C5F3032204F00F048A5C095D5F
:1018600002F01F0201F01F01D040064A20FA01F1E8
:1018700019601060084630BD1844025894390008B9
:10188000140000241000002400B5FFF7DBFF054919
:101890000968054AC1F30211515C01F01F01C840FB
:1018A00000BD00001C4402589439000800B5FFF741
:1018B000C9FF05490968054AC1F30221515C01F0DD
:1018C0001F01C84000BD00001C44025894390008A4
:1018D000454970B545480968434B103B11F0380243
:1018E00008D00111082A03D0102A0BD0182A0BD0D7
:1018F000084670BD19688906FBD51968C1F3C10196
:10190000C84070BD3A4870BD3749374D18310C1D7D
:1019100024350A68096826682D6802F0030406F079
:101920000102C1F30511C5F3CC0515FB02F200EE6F
:10193000102AB8EE400AE9B32F4ADFED2E0AB7EEBF
:10194000001A6CB1DFED2D1A012C01D0022C43D00E
:1019500002EE101A1068F8EE422A81EEA22A1EE06A
:101960001C68A40611D51B6801EE901A1168C3F318
:10197000C103F8EE612AD84001EE900AC1F30800D5
:10198000F8EE611A81EEA22A0BE001EE901ADFED6B
:101990001C2A00BFF8EE611A106882EEA12AC0F37B
:1019A000080001EE900AF8EE611A40EE201A31EEBE
:1019B000810A00E015E022EE000A1068C0F346201C
:1019C000401C00EE900AF8EE600A80EE201ABCEE91
:1019D000C10A10EE100A70BD01EE901ADFED092A5F
:1019E000D8E7002070BD0000104402580090D003DA
:1019F00040787D0100000039304402580024744AC8
:101A00000024744C20BCBE4B2DE9F05F04007CD058
:101A1000FF4F2078FE4D1837DFF8F493103DC007D4
:101A200048D0D9F80000396800F03800102815D0E7
:101A3000182803D101F0030002280FD06068B0F528
:101A4000803F12D010B1B0F5A02F18D0286820F434
:101A500080302860286820F4802009E0286880030E
:101A600028D560680028D2D024E0286840F480306F
:101A70002860606888B1FEF73FFF064609E02868E5
:101A800040F480202860F0E7FEF736FF801B6428D2
:101A90007ED828688003F7D50CE0FEF72DFF0646B8
:101AA00005E000BFFEF728FF801B6428F0D82868F7
:101AB0008003F7D4207841F20308D54E0C3E80070E
:101AC0004BD5D9F80000396810F038000ED018282E
:101AD00001D188070AD0E06868B3296821F01901AC
:101AE00001432960FEF708FF824619E02868400795
:101AF00002D5E06800288AD0FEF7F8FE404513D8EA
:101B00002069316821F47C3100E0BEE041EA003018
:101B1000306022E0FEF7F0FEA0EB0A000228B7D802
:101B200028684007F6D5E7E7207C316821F0FE41C0
:101B300041EA0060ECE7286820F001002860FEF729
:101B4000DBFE824606E000BFFEF7D6FEA0EB0A00F1
:101B500002289DD828684007F6D42078C00659D5B9
:101B6000D9F80000DFF8A8B2396800F03800ABF10E
:101B7000040B082812D0182803D101F00300012813
:101B80000CD0E0690028286834D040F0800000E0E4
:101B9000DCE02860FEF7B0FE824623E02868C0053E
:101BA00023D5E069802870D11FE000BF94F82000A1
:101BB000316821F0F84141EA806030602AE000BFDE
:101BC00094F82010DBF8002022F07C5242EA0161F8
:101BD000CBF800101EE000BFFEF78EFEA0EB0A005F
:101BE00002289CD82868C005F6D5FEF77FFE404540
:101BF000E6D8DBE720F080002860FEF77DFE064691
:101C000005E000BFFEF778FE801B022887D8286811
:101C1000C005F7D42078000729D57D486169643074
:101C200000298046016811D041F001010160FEF7F2
:101C300063FE064605E000BFFEF75EFE801B02283D
:101C400087D8D8F800008007F6D510E021F0010110
:101C50000160FEF751FE064605E000BFFEF74CFEB0
:101C6000801B022872D8D8F800008007F6D42078AC
:101C7000800623D5A0690028286810D040F4805041
:101C80002860FEF739FE064605E02EE1FEF734FE39
:101C9000801B02285AD828688004F7D50EE020F46B
:101CA00080502860FEF728FE064604E0FEF724FE7A
:101CB000801B02284AD828688004F7D4207840077F
:101CC0004FD5DFF85081D8F8001041F48071C8F882
:101CD0000010FEF711FE064605E000BFFEF70CFE01
:101CE000801B642832D8D8F80000C005F6D5484ECD
:101CF000A068603601280AD008B1052813D03068E2
:101D000020F001003060306820F0040002E030680C
:101D100040F001003060A06841F2883A90B1FEF7CF
:101D2000EBFD80460AE0306840F004003060EEE7EA
:101D3000FEF7E2FDA0EB0801514507D830688007A7
:101D4000F6D50EE0FEF7D8FD804607E084E000BF40
:101D5000FEF7D2FDA0EB080151457DD83068800721
:101D6000F6D4606AF0B3DFF8A880D9F8001008F163
:101D70002008C1F3C20103296FD00228286820F08F
:101D80008070286003D0FEF7B7FD044682E0FEF7BE
:101D9000B3FD064605E000BFFEF7AEFD801B02283E
:101DA00075D828688001F7D4E26A40F2F3313868C8
:101DB00054F8283F884340EA021018433860217BDA
:101DC0004FF4FE0C22894FF0FE47208A4902267DFF
:101DD000521E401EA1F5007189B20CEA0040C2F308
:101DE000080200E083E01143761E0143084807EA39
:101DF00006621143064A1C30C8F8001024320168FC
:101E000021F00101016011684FF6F876B14303E05B
:101E10001044025800480258236A41EAC301116085
:101E20000168A26921F00C01114301600168E269B7
:101E300021F0020111430160016841F48031016029
:101E4000016841F400310160016841F480210160C2
:101E5000016841F0010101E019E01FE0016028681C
:101E600040F080702860FEF747FD044605E000BFA3
:101E7000FEF742FD001B022809D828688001F7D52B
:101E800035E000BFFEF738FD001B022802D9032011
:101E9000BDE8F09F28688001F4D428E03968012863
:101EA000D8F8000021D0A26A01F0030393421CD1AC
:101EB000E26AC1F305118A4217D1216BC0F308020F
:101EC000491E8A4211D1616BC0F34622491E9142DC
:101ED0000BD1A16BC0F30642491E914205D1E16BC3
:101EE000C0F30660491E814201D00120D0E70020E6
:101EF000CEE700002DE9F0470446007A00278A4625
:101F000001280ED0607A01254FF0000925720128C2
:101F100009D00420E060012784F808903846BDE825
:101F2000F0870220FBE74FF0020884F80980FEF7F3
:101F3000E3FC06460CE000BFFEF7DEFC801B022837
:101F400006D96572C4F80C80012084F80890E6E791
:101F500020684068C043C007EED1206880682061D7
:101F6000CAF800006572D7E72DE9F04104002AD0D5
:101F7000607A4FF0000820B9204684F8088000F00D
:101F800031F8022666720427D4E90002016821F0C4
:101F90002001114301602068016841F004010160E3
:101FA00020684068C043400601D467720BE0FEF72A
:101FB000A3FC05460AE000BFFEF79EFC401B02287A
:101FC00004D96772E6600120BDE8F08120684068AE
:101FD000C0434007F0D501216172C4F80C80002095
:101FE000F2E7000008B500680649884208D10648B3
:101FF000016841F040010160006800F0400000907D
:1020000008BD000000180248DC440258401EB0F130
:10201000807F10B501D3012010BD4FF0E024606136
:102020000F21601701F0C2FB0020A0610721216190
:1020300010BD30B590F87C10012918D0012280F82D
:102040007C202421C0F880100022202450F8601B3E
:102050000B680D6823F0005325F001050D60426008
:1020600050F8601C0B6004620277104630BD0220FD
:1020700030BD704770B5044690F87C0001281DD033
:10208000012284F87C202420C4F8800020680568A0
:10209000026822F0010202602068826822F0606219
:1020A0000A438260204600F02BFC22682021002099
:1020B0001560C4F8801084F87C0070BD022070BDEB
:1020C00070B5044690F87C0001281DD0012284F8E8
:1020D0007C202420C4F8800020680568026822F073
:1020E000010202602068826822F060420A43826036
:1020F000204600F005FC2268202100201560C4F86D
:10210000801084F87C0070BD022070BD704770475D
:10211000704700002DE9F04103680446002540F6B1
:102120000F06D86919689A68304209D186067DD5AC
:1021300001F0200602F080573E4377D0E16E9EE02A
:10214000614E624F16400F4037436FD0C70709D02A
:10215000CF0507D501271F62D4F8883043F001036B
:10216000C4F8883083070AD5D30708D0276802232C
:102170003B62D4F8883043F00403C4F88830430746
:102180000AD5D30708D0276804233B62D4F88830E7
:1021900043F00203C4F8883003070CD501F0200394
:1021A000334308D0266808233362D4F8883043F0DC
:1021B0000803C4F8883003050BD54B0109D5266800
:1021C0004FF400633362D4F8883043F02003C4F83E
:1021D0008830D4F88830002B34D0800609D501F03F
:1021E000200002F08051084303D0E16E09B120467F
:1021F00088472168D4F888008968490602D410F01D
:10220000280F21D0204600F04BFC20688168490649
:1022100015D5816821F040018160A06F78B12C490B
:102220000165A06FFEF7F6F8002800E012E009D083
:10223000A06F016D00E02046BDE8F0410847204650
:10224000FFF766FFBDE8F0812046FFF761FFC4F8A5
:102250008850F7E7C60209D5560207D54FF480101B
:1022600018622046BDE8F041FFF751BF060609D5C8
:1022700001F0800602F40002164303D0216F00290A
:10228000D9D1DFE742060DD54A060BD51A682021C1
:10229000204622F040021A60C4F88010256700F042
:1022A000EAF8CFE7020206D54A0004D52046BDE889
:1022B000F041FFF72BBFC001C4D50029C2DA204688
:1022C000BDE8F041FFF7D5BE010000102001000479
:1022D0008B2A000810B5040003D0D4F8800010B198
:1022E00007E0012010BD002084F87C00204600F0AB
:1022F00027F82420C4F880002068016821F001013B
:102300000160204600F0E0FB0128EBD0A06A10B18C
:10231000204600F027FB2068416821F4904141608D
:102320002068816821F02A0181602068016841F0FD
:10233000010101602046BDE8104000F077BB0000BD
:1023400010B586B0044614216846FDF7F9FF174919
:102350002068884228D11648016841F010010160C8
:10236000006800F01000059011481038016841F035
:102370000101016000680723022200F001000590BE
:1023800000204FF4C06100916946CDE90120CDE9FC
:1023900003030848FEF792F9002225201146FEF7B4
:1023A00023FB2520FEF712FB06B010BD00100140F4
:1023B000F0440258000002582DE9F8430446D0F8D2
:1023C00080001F4616460D46202852D1DDB1D6B1F9
:1023D00094F87C0001284CD0012284F87C20212133
:1023E0004FF00008C4F88880C4F880101834FEF755
:1023F00083FA814654F8100CA687E687183CB0F59E
:10240000805F03D004E00120BDE8F883206910B1AB
:102410002E46002510E000260EE08021204601F027
:102420005BF9B8B9C6B116F8010B21688862B4F837
:102430005600401EA4F85600B4F856004B464FF024
:10244000000200970028E8D14FF04001204601F03B
:1024500043F938B10320D7E735F8020B2168C0F300
:102460000800E3E72021C4F88010002084F87C8075
:10247000CAE70220C8E77047FEE70000094808B530
:10248000016841F080010160016801F08001009164
:10249000016841F001010160006800F00100009056
:1024A00008BD0000E044025807480022054910B565
:1024B000C0E90012FFF758FD04494FF49670086018
:1024C00010BD000000180248AC00002418000024D1
:1024D0001848002110B5164C0C224FF4E13304606B
:1024E000C0E90131C160C0E904128161C1610162CA
:1024F00041628162FFF7EEFE08B1FDF775FF0D48FE
:102500000021FFF7DDFD08B1FDF76EFF094800214E
:10251000FFF7B0FD08B1FDF767FF0648FFF789FD3B
:10252000002803D0BDE81040FDF75EBF10BD0000DD
:102530000010014020000024FEE7704770470000B3
:102540002DE9F047454D044689464FF0000A2868BA
:10255000C04380070AD0414E283E306820F080609A
:102560003060FEF7C9F90746B04608E00120BDE833
:10257000F08700BFFEF7C0F9C01B022867D8D8F863
:1025800000000001F6D4206829684FF4FE0721F40A
:102590007C313E0241EA00302860207AA389B4F8F9
:1025A00004C040022D4D2D495B1E227CACF1010C74
:1025B0001035091DA0F5007080B2521ECCF3080C36
:1025C00007EA034340EA0C00184306EA026210439C
:1025D00028600868626920F0C000104308600A683B
:1025E000A06922F0200202430A60281D0A6822F036
:1025F00010020A6002684FF6F873E4699A4342EAEF
:10260000C40202600868B9F1000F40F010020A60CD
:1026100011D00868B9F1010F11D040F40010086022
:10262000D8F80000444640F08060C8F80000FEF78B
:1026300063F905460DE0086840F40020EFE740F438
:102640008010ECE7FEF758F9401B022801D903205F
:102650008DE720680001F5D5504688E728440258E8
:102660002DE9F047454D044689464FF0000A286899
:10267000C04380070AD0414E283E306820F0805089
:102680003060FEF739F90746B04608E00120BDE8A2
:10269000F08700BFFEF730F9C01B022867D8D8F8D2
:1026A00000008000F6D4208829684FF4FE0721F04E
:1026B0007C713E0241EA00502860207AA389B4F878
:1026C00004C040022D4D2D495B1E227CACF1010C53
:1026D0001835091DA0F5007080B2521ECCF3080C0D
:1026E00007EA034340EA0C00184306EA026210437B
:1026F00028600868626920F44060104308600A6836
:10270000A06922F4007202430A60281D0A6822F4BC
:1027100080720A6002684FF6F873E4699A4342EAED
:10272000C40202600868B9F1000F40F480720A60C8
:1027300011D00868B9F1010F11D040F08070086025
:10274000D8F80000444640F08050C8F80000FEF77A
:10275000D3F805460DE0086840F48000EFE740F448
:102760000000ECE7FEF7C8F8401B022801D903205F
:102770008DE720688000F5D5504688E72844025848
:1027800038B50D46044606486946FFF7B3FB009985
:10279000281B401CB1FBF0F200FB1210204438BD96
:1027A000AC0000247047FEF7ADB80000F0B5CBB028
:1027B0004C212FA8FDF7C4FD202142A8FDF7C0FD44
:1027C000BC216846FDF7BCFD0220FEF73FF9224818
:1027D00000242249026842F44042026002680A680A
:1027E00042F001020A60096801F001014A910168A2
:1027F0008904FCD50DF1E40C012335930521C02299
:10280000022038908CE807003C9008253D90C603D4
:102810003E902127CDE93F5441942FA8CDE92F7652
:10282000FFF7F2F840203F210301CDE94550032294
:10283000CDE9470342AB499042A883E81600042142
:10284000FEF7D2FE06481E941F9400906846FEF7DD
:102850007DFA4BB0F0BD0000184802582C04005817
:1028600001000200214A30B5214914680020204BA4
:1028700044F47004146010330A681E4D42F00102E3
:102880000A6018600A681A4B2A400A6018331C1D37
:10289000251D174A186028322060131D28601C1D52
:1028A000251D10602A1D1860131D20601C1D286046
:1028B000251D10601860206028600A680C4B0E4CC3
:1028C00022F4802260330A60186020686FF30F00E2
:1028D000B0F1005F03D209490120C1F808014FF0AF
:1028E000006002498039086030BD000088ED00E0DA
:1028F000004402587FEDF6EA0010005C00800051B1
:102900003FB514A1D1E9002314A1CDE90023D1E9F9
:102910000021CDE90221416EB9B1016802AC8A689B
:102920008968C2F34262490F1DF80150615CED00F5
:10293000B5FBF1F1A0F86A101DF80210A25CC90005
:10294000B1FBF2F1A0F868103FBD0121A0F86A10B8
:10295000F8E7000001010103070100000804020478
:102960000801010190F82810C90706D00168C36A60
:102970004A6822F400321A434A6090F82810890706
:1029800006D50168036B4A6822F480321A434A6014
:1029900090F82810490706D50168436B4A6822F46D
:1029A00080221A434A6090F82810090706D501686A
:1029B000836B4A6822F400421A434A6090F8281058
:1029C000C90606D50168C36B8A6822F480521A438F
:1029D0008A6090F82810890606D50168036C8A6819
:1029E00022F400521A438A6090F82810490611D543
:1029F0000168436C4A6822F480121A434A60416CB1
:102A0000B1F5801F06D10168836C4A6822F4C002C8
:102A10001A434A6090F82810090606D50168C26C6E
:102A2000486820F40020104348607047F8B500263D
:102A30000446C0F88860FDF75FFF054620686FF028
:102A40007E470068000708D500222B464FF400118E
:102A50002046009700F040FE60B9206800684007FB
:102A60000AD500222B464FF480012046009700F043
:102A700033FE08B10320F8BD2020C4F8800084F89C
:102A80007C60C4F884000020F8BD10B5806B002184
:102A9000A0F85E10A0F85610FFF73AFB10BD00003A
:102AA00030B501682023074D00240A6822F4907293
:102AB0000A6001688A682A408A60C0F88430C46667
:102AC00030BD0000FEFFFFEF2DE9F04F04468068A7
:102AD000F94E87B02168D4E90457E269636E284350
:102AE0000D6817433843F54A03434FF0000835405B
:102AF0001D430D602068E368416821F4405119438B
:102B000041602368A069934201D0216A08439D680F
:102B1000EB4FEC4EEC493D4005439D602068656AF3
:102B2000C36A23F00F032B43C3622068B0420ED167
:102B3000096801F03801182973D047DCB9B30829B6
:102B400079D010296FD178E028297ED17BE0DF4B46
:102B5000984209D1096801F00701062975D2DFE81A
:102B600001F0546A6C6E7072D94B984209D10968B1
:102B700001F00701062968D2DFE801F0475D5F61D7
:102B80006365D44B984209D1096801F00701062911
:102B90005BD2DFE801F03A5052545658CE4B98427F
:102BA0000BD1096801F0070106294ED200E010E0C0
:102BB000DFE801F02B4143454749C84B98420AD111
:102BC000096801F03801182939D0B7DD2029BBD1B7
:102BD00037E001273AE0C24B984209D1096801F079
:102BE0000701062931D2DFE801F01026282A2C2E11
:102BF000BC4B98420BD1096801F00701062924D289
:102C0000DFE801F003191B1D1F2100271EE0904281
:102C10001BD1AD49091D096801F00701062914D22D
:102C200002E00CE007E010E0DFE801F0030507092F
:102C30000B0D02270AE0042708E0082706E010270A
:102C400004E0202702E0402700E08027DFF898A278
:102C5000DFF898B290424FF480754FF000097AD1B6
:102C6000102F51D006DC022F09D0042F27D0082FB7
:102C700072D12DE0202F70D0402F6DD1F0E0FDF704
:102C80000FFF0146606A1FE0012827D0022827D0E5
:102C9000032827D0042827D0052827D0062827D0A6
:102CA000072827D0082827D0092827D00A2827D086
:102CB0000B2827D00AE000BFB1FBF0F07EE06846A9
:102CC000FDF700FF606A01990028DDD10120F3E7DC
:102CD00003A8FDF799FF606A0499F5E70220EBE786
:102CE0000420E9E70620E7E70820E5E70A20E3E714
:102CF0000C20E1E71020DFE72020DDE74020DBE7C4
:102D00008020D9E72846D7E7DBF80000594680063F
:102D1000606A39D50968C1F3C1012AFA01F2A8B184
:102D200001281BD002281BD003281BD004281BD04D
:102D300005281BD006281BD007281BD008281BD02D
:102D400009281BD00A281BD00B281BD05FF00100DC
:102D5000B2FBF0F032E033E2A2E050E00220F7E70D
:102D60000420F5E70620F3E70820F1E70A20EFE763
:102D70000C20EDE71020EBE72020E9E74020E7E713
:102D80008020E5E72846E3E7A8B1012821D0022802
:102D900021D0032821D0042821D0052821D00628BD
:102DA00021D0072821D0082821D0092821D00A289D
:102DB00021D00B2821D00120BAFBF0F000286ED0E2
:102DC000666806EB460181426AD8B0EB063F67D8D9
:102DD0009DE00220F0E70420EEE70620ECE7082063
:102DE000EAE70A20E8E70C20E6E71020E4E72020E5
:102DF000E2E74020E0E78020DEE72846DCE7606A83
:102E0000A8B1012816D0022816D0032816D004280D
:102E100016D0052816D0062816D0072816D0082860
:102E200016D0092816D00A2816D00B2816D0012053
:102E30002F4941E70220FBE70420F9E70620F7E7E6
:102E40000820F5E70A20F3E70C20F1E71020EFE770
:102E50002020EDE74020EBE78020E9E72846E7E780
:102E6000606AA8B1012818D002281AD003281AD005
:102E700004281AD005281AD006281AD0072839D0D5
:102E8000082839D0092839D00A2839D00B2839D058
:102E90005FF001004FF400410EE70220FAE77CE208
:102EA00032E00420F6E70620F4E70820F2E70A20E3
:102EB000F0E70C20EEE70000F369FFCF000C0058AC
:102EC000FFF4FF1100100140544402580044004038
:102ED00000480040004C00400050004000140140F9
:102EE00000780040007C00400090D003004402586D
:102EF00000093D001020CDE72020CBE74020C9E7A6
:102F00008020C7E72846C5E74FF0010845E2102FAB
:102F10007FD023DC022F4ED0042F75D0082FF3D1A1
:102F200003A8FDF771FE0499606AA8B1012846D094
:102F3000022846D0032846D0042846D0052846D08B
:102F4000062846D0072846D0082846D0092846D06B
:102F50000A2846D00B2845D0012543E0202F7DD0FC
:102F6000402FD1D1606AA8B1012878D0022877D04B
:102F7000032876D0042875D0052874D0062873D08D
:102F8000072872D0082871D0092870D00A286FD07D
:102F90000B2800D001254F4600232A464FF400405D
:102FA0000021FDF795F902467008130E1202101861
:102FB00043EA01216AE0FDF773FD0146B4E702250B
:102FC00010E004250EE006250CE008250AE00A259D
:102FD00008E00C2506E0102504E0202502E040254D
:102FE00000E080254E4600232A4608461946FDF794
:102FF0006FF962680902030241EA1061500818186B
:10300000714145E005E0FFE76846FDF75BFD01998A
:103010008AE7DBF800105846890656D50068C0F3E9
:10302000C1002AFA00F1606AA8B1012839D002284B
:1030300039D0032839D0042839D0052839D00628BA
:1030400039D0072839D0082839D0092839D00A289A
:1030500039D00B2800D001252A460AE067E099E024
:103060009AE09BE09CE09DE09EE09FE0A0E0A1E074
:10307000A2E000234F4608461946FDF729F9090248
:10308000034672080002801841EA13613246794112
:103090000023FDF71DF9FA49A0F540728A426ED966
:1030A00032E70225D8E70425D6E70625D4E7082528
:1030B000D2E70A25D0E70C25CEE71025CCE720255E
:1030C000CAE74025C8E78025C6E7606AA8B101289D
:1030D00019D0022819D0032819D0042819D005289E
:1030E00019D0062819D0072819D0082819D009287E
:1030F00019D00A2819D00B2800D001254F460023EB
:103100002A4650464CE70225F8E70425F6E706254F
:10311000F4E70825F2E70A25F0E70C25EEE710258D
:10312000ECE72025EAE74025E8E78025E6E7606A46
:10313000A8B1012819D0022819D0032819D00428D1
:1031400019D0052819D006281AD007281AD008281F
:103150001AD009281AD00A281AD00B2800D0012525
:10316000C84800234F462A461AE70225F8E70425F7
:10317000F6E70625F4E70825F2E70A25F0E71DE063
:103180000C25EDE71025EBE72025E9E74025E7E7EB
:103190008025E5E70225FEE60425FCE60625FAE69D
:1031A0000825F8E60A25F6E60C25F4E61025F2E6F1
:1031B0002025F0E64025EEE68025ECE62168EBE0F0
:1031C000E0694FF400414FF6EF7688426FD1082F47
:1031D00065D00BDC6FB3012F5CD0042F7FF460AFA0
:1031E0006846FDF76FFC606A01995DE0102F5FD0C3
:1031F000202F7DD0402FF1D1606AA8B1012878D06E
:10320000022877D0032876D0042875D0052874D0FA
:10321000062873D0072872D0082871D0092870D0EA
:103220000A286FD00B2800D001256068B1FBF5F1AA
:10323000A0E0FEF729FB2FE0012815D0022815D0C9
:10324000032815D0042815D0052815D0062815D038
:10325000072815D0082815D0092815D00A2815D018
:103260000B2814D0012512E0022510E004250EE001
:1032700006250CE008250AE00A2508E00C2506E0F2
:10328000102504E0202502E0402500E08025B1FB68
:10329000F5F13EE0FEF70AFB0146606A04E003A890
:1032A000FDF7B2FC606A04990028DBD0C4E7D8E0DF
:1032B000DBF8000059468006606A40D50968C1F312
:1032C000C1012AFA01F208B3012824D0022824D02F
:1032D000032824D0042824D0052824D0062824D06C
:1032E000072824D0082824D0092824D00A280AE056
:1032F00074E0A2E0A3E0A4E0A5E0A6E0A7E0A8E0D7
:10330000A9E0AAE0ABE018D00B2800D00125B2FB61
:10331000F5F160682EE00225F9E70425F7E70625B8
:10332000F5E70825F3E70A25F1E70C25EFE7102577
:10333000EDE72025EBE74025E9E78025E7E7A8B1A1
:10334000012837D0022837D0032837D0042837D0B7
:10335000052837D0062837D0072837D0082837D097
:10336000092837D00A2837D00B2800D001256068FB
:10337000BAFBF5F1490001EB5001B1FBF0F080B26E
:10338000A0F11001B1423FF68BAE4FF6F073216809
:10339000C0F3420218401043C8600121A4F86A102B
:1033A0004046A4F86810C4F86C90C4F8709007B058
:1033B000BDE8F08F0225DAE70425D8E70625D6E731
:1033C0000825D4E70A25D2E70C25D0E71025CEE75B
:1033D0002025CCE74025CAE78025C8E7606AA8B168
:1033E000012816D0022816D0032816D0042816D09B
:1033F000052816D0062816D0072816D0082816D07B
:10340000092816D00A2816D00B2800D001251D49FE
:103410000BE70225FBE70425F9E70625F7E7082572
:10342000F5E70A25F3E70C25F1E71025EFE720255E
:10343000EDE74025EBE78025E9E70225F5E60425E1
:10344000F3E60625F1E60825EFE60A25EDE60C256C
:10345000EBE61025E9E62025E7E64025E5E68025B0
:10346000E3E6082F6AD00FDC8FB3012F61D0042F61
:103470007FF416AE6846FDF725FB606A019962E0AD
:10348000FFFC0F0000093D00102F5FD0202F7DD0E2
:10349000402FEDD1606AA8B1012878D0022877D0FA
:1034A000032876D0042875D0052874D0062873D058
:1034B000072872D0082871D0092870D00A286FD048
:1034C0000B2800D001256068B1FBF5F1A0E0FFE713
:1034D000FEF7DAF92FE0012815D0022815D00328CD
:1034E00015D0042815D0052815D0062815D0072892
:1034F00015D0082815D0092815D00A2815D00B2872
:1035000014D0012512E0022510E004250EE0062566
:103510000CE008250AE00A2508E00C2506E0102545
:1035200004E0202502E0402500E08025B1FBF5F114
:103530003DE0FEF7BBF90146606A04E003A8FDF731
:1035400063FB606A04990028DBD0C4E7DBF8000065
:1035500059468006606A40D50968C1F3C1012AFA5C
:1035600001F208B3012824D0022824D0032824D053
:10357000042824D0052824D0062824D0072824D0C5
:10358000082824D0092824D00A280AE05FE08DE02A
:103590008EE08FE090E091E092E093E094E095E09F
:1035A00096E018D00B2800D00125B2FBF5F1606839
:1035B0002EE00225F9E70425F7E70625F5E70825BB
:1035C000F3E70A25F1E70C25EFE71025EDE72025C5
:1035D000EBE74025E9E78025E7E7A8B1012822D0FD
:1035E000022822D0032822D0042822D0052822D065
:1035F000062822D0072822D0082822D0092822D045
:103600000A2822D00B2800D001256068BAFBF5F10A
:1036100001EB5001B1FBF0F080B2A0F11001B1421A
:103620007FF6CCAD70E40225EFE70425EDE7062533
:10363000EBE70825E9E70A25E7E70C25E5E710258C
:10364000E3E72025E1E74025DFE78025DDE7606A45
:10365000A8B1012816D0022816D0032816D00428B5
:1036600016D0052816D0062816D0072816D0082808
:1036700016D0092816D00A2816D00B2800D001250C
:10368000144920E70225FBE70425F9E70625F7E7BB
:103690000825F5E70A25F3E70C25F1E71025EFE704
:1036A0002025EDE74025EBE78025E9E702250AE73D
:1036B000042508E7062506E7082504E70A2502E7AA
:1036C0000C2500E71025FEE62025FCE64025FAE65D
:1036D0008025F8E600093D002DE9F0479A46174697
:1036E0000E460446089D4FF000094FF0200839E0CF
:1036F000681C37D0FDF700F9A0EB0A00A84222D8D9
:103700000DB32068016849072CD5C069C043000586
:1037100028D423684FF40061196221680B6823F4F0
:10372000D0730B6021688B6823F001038B60C4F8B1
:103730008080C4F88480C4F8888000BF032084F8A7
:103740007C90BDE8F08721680B6823F4D0730B6090
:1037500021688B6823F001038B60C4F88080C4F873
:103760008480EBE72068C06936EA000004D00020BE
:10377000B842BDD00020E4E70120F9E70148FEF798
:10378000C9BC000020000024FEE700000FB4054B78
:1037900010B503A9044A029800F028F810BC5DF89F
:1037A00014FB0000413900081C0000240907002810
:1037B0004FEA116104DB00F1E02080F8001470474B
:1037C00000F00F0000F1E02080F8141D704702E0C7
:1037D00008C8121F08C1002AFAD17047704700209C
:1037E00001E001C1121F002AFBD170472DE9FF4FF4
:1037F00089B09B460446002506E025280BD05A4692
:103800000B999047641C6D1C20780028F5D10DB0F1
:103810002846BDE8F08F0027B8460122474900E05E
:10382000074314F8013F203B02FA03F00842F7D1A6
:1038300020782E2819D114F8010F47F004072A2800
:103840000ED06FF02F022078A0F1300109290CD89A
:1038500008EB880102EB410100EB0108641CF2E770
:103860000A98641C50F8048B0A9020780028CED067
:10387000642808D0692806D075281ED05A460B99AE
:1038800090476D1C58E00A994FF00A0901C90A9146
:10389000002802DA40422D2102E0390504D52B210F
:1038A0008DF82010012103E0F90704D02021F7E76B
:1038B0008A4608AE0DE00021FAE70A994FF00A099E
:1038C00001C90A91F7E74946FCF745FD303106F892
:1038D000011D0028F7D1ADEB060000F120097807A3
:1038E00001D44FF00108C84502DDA8EB090000E053
:1038F00000208046002706E008A85A46C05D0B99C4
:1039000090476D1C7F1C5745F6DB04E030205A467B
:103910000B9990476D1CB8F10001A8F10108F5DC86
:1039200005E016F8010B5A460B9990476D1CB9F14A
:103930000001A9F10109F4DC641C65E70928010014
:1039400013B5044801224FF47A736946FEF734FD3B
:1039500000981CBD20000024FCF7DCFFFEF726FFCA
:10396000FEF78CFDFEF7A0FDFEF7B2FD064C00BF92
:10397000FCF73CFD0146206004A0FFF707FF642030
:10398000FCF78AFEF4E700000000002425640D0A1D
:103990000000000000000000010203040102030413
:1039A00006070809C43900080000002420000000B0
:1039B000CE370008E439000820000024A0040000ED
:1039C000DE370008000000000100000010000000C9
:1039D000000000000090D0030090D0030000000021
:0439E00000000000E3
:040000050800029954
:00000001FF
