:020000040800F2
:10000000A0040020CD000008850F0008950E000810
:1000100000000000000000000000000000000000E0
:10002000000000000000000000000000890F000830
:100030000000000000000000870F00088B0F000880
:10004000DF00000800000000DF000008DF000008FB
:10005000DF000008DF000008DF000008DF00000804
:1000600000000000DF000008DF000008DF000008DB
:10007000DF000008DF000008DF00000800000000CB
:10008000DF000008DF000008DF000008DF000008D4
:10009000DF000008DF000008DF000008DF000008C4
:1000A000DF000008DF000008DF000008DF000008B4
:1000B000DF000008DF0000080348854600F06CF808
:1000C00000480047891B0008A0040020044880471E
:1000D00004480047FEE7FEE7FEE7FEE7FEE7FEE72F
:1000E00001100008B900000830B50B460146002099
:1000F0002022012409E00D46D5409D4205D31D462E
:100100009540491B2546954040191546521E002D25
:10011000F1DC30BDD2B201E00270401C491EFBD2BE
:1001200070470022F6E710B513460A460446194602
:10013000FFF7F0FF204610BDF0B51FB406460020C3
:1001400082B005464024019100901BE001992246AF
:100150000F46304600F042F8049A059B801A9941F8
:1001600010D310461946224600F028F8361A8F415F
:100170000197224601200021009F00F01FF8381847
:100180004D4100902046641E0028DFDC019B009852
:100190002946324607B0F0BD064C0125064E05E063
:1001A000E36807CC2B430C3C98471034B442F7D398
:1001B000FFF786FF301C0008501C000810B5202AED
:1001C00004DB0146203A9140002010BD91402023DD
:1001D0009C1A0346E3401943904010BD10B5202AF5
:1001E00004DB0846203AD040002110BD0B46D34026
:1001F000D0402024A21A91400843194610BD002087
:1002000000BF401C3A28FBDB7047704770B50446BE
:1002100000F0B4F80546601C02D004484068241879
:1002200000F0ACF8401BA042FAD370BD00000020E3
:10023000F0B5002388E001229A4094461440220041
:100240007ED04C68022C01D0122C0CD1DC08A4000A
:1002500027183C6A5D07ED0E0F26AE40B4430E69C9
:10026000AE4026433E6205685E000324B4400F7929
:10027000A543BF07BF0FB7402F4307604D68012D4F
:1002800005D0022D03D0112D01D0122D0ED185687D
:10029000CF68A543B7402F43876047686546AF43A3
:1002A0000D79ED06ED0F9D403D434560C568A543C2
:1002B0008C68B4402C43C4604C68E40043D59D086E
:1002C000244CAD002F193C6E9D07EE0E0F25B54056
:1002D000AC4305252D07A84201D100250FE01E4D96
:1002E000A84201D101250AE01C4DA84201D10225F6
:1002F00005E01B4DA84201D1032500E00525B540CE
:100300002543144C3D66134D80352E684F68964347
:10031000FF0300D516432E606E684F689643BF03F7
:1003200000D516436E6025684E689543F60200D5E9
:100330001543256065684E689543B60202D500E016
:1003400001E0154365605B1C0A681446DA4000D082
:1003500071E7F0BD00180240000400500008005092
:10036000000C00500069084000D001207047002AAE
:1003700001D0816170478162704700000148806848
:100380007047000000000020024881684268891818
:10039000816070470000002010B508480024016803
:1003A000821511430160204600F00AF8002801D0B0
:1003B000012401E000F028F8204610BD0020024092
:1003C00070B50F4E002471680546002915D07D20B8
:1003D000C000FFF789FE01460A480068FFF784FE67
:1003E00000F0F8FB002808D1042D06D2002229468F
:1003F000401E00F01FF8356000E00124204670BD6B
:10040000000000200C00002008B509480168012206
:100410001143016000681040009005484038C26BED
:1004200001040A43C263C06B0840009008BD00008D
:100430004010024010B501F07DF810BD10B50F4C12
:10044000216803225202914301432160C11FFF39F9
:10045000FA390ED10A480621006848430949FFF7D6
:1004600043FE401C02E0002805D0401E616949059A
:10047000F9D4002010BD032010BD00000070004022
:100480000C00002040420F00F8B50446006800262A
:10049000524D800358D5514800274038C06BC000EA
:1004A00009D44E484038C26B01040A43C263C06B92
:1004B0000840012700904A480168821511430160F5
:1004C000FFF75CFF009005E0FFF758FF0099401A26
:1004D000022825D842480068C005F5D5E8690321FF
:1004E000090208400FD0A16981420CD0E8690321BC
:1004F0000902EA698843012109040A43EA61EA69B9
:100500008A43EA61E861C0070FD0FFF737FF009028
:1005100008E0FFF733FF0099411A3248814201D9C0
:10052000032609E0E8698007F3D5E8690321090299
:100530008843A1690843E861002F05D02748403867
:10054000C16B02049143C1632078C00705D068697C
:10055000616880088000084368612078800705D5BD
:1005600068690C218843A1680843686120784006C7
:1005700006D56869032109038843E1680843686177
:100580002088400411D568696169800080080843AB
:100590006861012160698907884206D10F484038A7
:1005A000C168012212041143C1602088000512D5E0
:1005B000686903218903884321690843686101212F
:1005C00020698903884206D104484038C168012265
:1005D00012041143C1603046F8BD000040100240D3
:1005E0000070004088130000F8B50F46060043D0A5
:1005F0004D4D28684007400FB84213D22868C00804
:10060000C00038432860FFF7B9FE044605E0FFF755
:10061000B5FE011B4548814261D828684007400F5C
:10062000B842F4D13068424C81070DD5400704D55B
:10063000A068072109030843A060A0680F210902F0
:100640008843B1680843A0603078C00732D0706832
:1006500001280AD002280BD000280FD0344940319D
:1006600003280ED0C969890704E02168890301E0E5
:1006700021688901002906DB0120F8BD21684905B0
:10068000F8E7096AEFE7A168C908C9000143A1605A
:10069000FFF774FE009006E0FFF770FE0099411A24
:1006A000224881421BD8A068382108407168C900DF
:1006B0008842F1D128684007400FB84217D91A483C
:1006C0000168C908C90039430160FFF757FE0546B4
:1006D00007E0FFF753FE411B1448814201D9032074
:1006E000F8BD114800684007400FB842F1D130789A
:1006F000400706D5A068072109038843F16808432D
:10070000A06000F031F8A1683C2289091140094A33
:10071000515CC906C90EC84007490860074800680F
:10072000FFF74EFEF8BD00000020024088130000D5
:1007300000100240D01B00080C0000200000002028
:100740000648074900688968064A4904490F890034
:10075000515CC906C90EC840704700000C0000205B
:1007600000100240101C000810B5204CA068204A60
:100770008006400F16D0A0688006410F5010012956
:100780000FD0A1688906490F022912D0A0688006FF
:10079000400F042823D0A0688006400F032821D0F2
:1007A000002010BD206801218004400F81401046C8
:1007B00012E0E1688B07E1689B0F4906490F491C6D
:1007C000032B00D01046FFF78FFCE1684904490E67
:1007D0004843E168490F491CFFF786FC10BD012022
:1007E000C00310BD7D20000210BD000000100240BB
:1007F0000024F400F8B504007ED020783827C00724
:10080000EB4D002846D0A868E96838408907890F71
:10081000102802D008280BD001E0032908D00120BD
:100820006268000482420AD129680143296015E008
:10083000286880032ED560680028DDD02AE00523D3
:1008400001211B0489049A422A6802D10A432A60C2
:10085000EAE782432A6028688843286060680028A5
:100860000CD0FFF78BFD064604E0FFF787FD801BE9
:10087000642873D828688003F7D50BE0FFF77EFD66
:10088000064604E0FFF77AFD801B6428F1D828684B
:100890008003F7D42078800769D5A868E9683840D4
:1008A0008A070721920FC902102802D0002813D00E
:1008B00001E0022A10D0E068002846D0286888436A
:1008C0002169084328602868FF2101310843286016
:1008D000FFF754FD06462CE02A68520502D5E2686F
:1008E000002A89D06A687F231B029A4363691B022E
:1008F0001A436A60002800E08DE00ED12868884322
:10090000216908432860286801218004400F814044
:10091000A848FFF7E9FBA8490860A8480068FFF766
:100920004FFD002877D122E0FFF728FD801B022829
:100930009FD828684005F7D568687F210902884359
:10094000616909020843686011E02968FF200130ED
:1009500081432960FFF712FD064605E098E0FFF7A6
:100960000DFD801B022884D828684005F7D4207824
:10097000934E00072ED5A8688006400F03280AD0A2
:10098000A0690028306A16D0012108433062FFF7C1
:10099000F5FC07460BE0306A80071BD5A0690028EC
:1009A0009FD017E0FFF7EAFCC01B022870D8306A1E
:1009B0008007F7D50EE0400840003062FFF7DEFC0C
:1009C000074604E0FFF7DAFCC01B022860D8306A53
:1009D0008007F7D4207840076CD5A86800278006E8
:1009E000400F042818D0E86BC00008D4E96B012040
:1009F00000070143E963E96B014001270091714859
:100A00000168C90519D40168821511430160FFF717
:100A1000B5FC00900DE083E0F06980074AD5A0683E
:100A200000287DD046E0FFF7A9FC0099401A022873
:100A30002ED864480068C005F5D5A168012910D0FA
:100A400004200529F16911D049084900F161F169D3
:100A50008143F161A068002816D0FFF78FFC009059
:100A60000EE0F06901210843F061F3E70143F16111
:100A7000F7E7FFF783FC0099411A534881426DD88C
:100A8000F0698007F5D50EE0FFF778FC009007E0ED
:100A900064E0FFF773FC0099411A4B4881425DD82E
:100AA000F0698007F5D4002F04D0E96B012000071E
:100AB0008143E963E069002877D0A9688906490F76
:100AC000022951D001263606022828680DD0B043ED
:100AD0002860E86880088000E860E8683B490840D2
:100AE000E860FFF74BFC04463AE0B0432860FFF7AC
:100AF00045FC074604E0FFF741FCC01B02282DD847
:100B000028688001F7D4616A206AA26A0843E16A12
:100B1000120211430843216B0843E9682C4A00E0A4
:100B200041E011400843E860286830432860E868E5
:100B3000012109070843E860FFF720FC044604E0B0
:100B4000FFF71CFC001B022808D828688001F7D595
:100B50002BE0FFF713FC001B022801D90320F8BD8E
:100B600028688001F5D420E00128F8D0E868226ADE
:100B70008107890F914216D17021626A014091422A
:100B800011D17F21A26A09020140120291420AD1C9
:100B90001F214904E26A0140914204D1400F216BB8
:100BA0004007884201D00120F8BD0020F8BD0000B8
:100BB000001002400024F4000C000020000000207F
:100BC000401002400070004088130000FFFFFEEF5D
:100BD0008C80C11F094910B5401E884201D90120EF
:100BE00010BD074C60610321081F00F0A3FC00202A
:100BF000A06107202061002010BD0000FFFFFF0062
:100C000000E000E030B5014660310A7F012A18D0CB
:100C100001220A77242302468032144613600368B7
:100C20001A681D686D086D001D6001235B079A43FB
:100C30000023436600680260202020600B7718467E
:100C400030BD022030BDF8B5054604466035287F2A
:100C500001281DD001202877242220468030074615
:100C6000026020680668026852085200026020682C
:100C7000826807235B069A430A438260204600F09D
:100C8000C7F9206806602020386000202877F8BD6A
:100C90000220F8BDF8B5054604466035287F0128D6
:100CA0001CD001202877242220468030074602608D
:100CB0002068066802685208520002602068826854
:100CC000D200D2080A438260204600F0A1F92068D1
:100CD00006602020386000202877F8BD0220F8BD8B
:100CE00070B5040006D02046803005460068002814
:100CF00002D007E0012070BD00217C200155204674
:100D000000F026F82420286020680168490849007E
:100D10000160204600F044FA0128ECD0A06A0028C7
:100D200002D0204600F0A4F9206841680922D202CE
:100D300091434160206881682A2291438160206844
:100D40000168012211430160204600F0F7F970BDEF
:100D500010B586B0044614216846FFF7E2F913493E
:100D6000206888421FD112480268012189030A4382
:100D700002600068084005900D484038426B012130
:100D80000A434263406B04910840059003204002EF
:100D900000900220019000200290039005206946F7
:100DA0000007FFF745FA06B010BD0000003801400B
:100DB00040100240FFB5074604468037386885B0CA
:100DC0000D46202864D1002D0CD00798002809D0AA
:100DD0000120A1680003814207D12069002804D1C5
:100DE000E80702D0012009B0F0BD20466030029033
:100DF000007F01284CD00298012101770020B860C3
:100E000021203860FFF7BAFA01902646403607984D
:100E1000B0820798F0820120A1680003814202D1CC
:100E20002069002802D00395002515E000200390DA
:100E300012E000228021204600F038FB002818D163
:100E40000398002817D02168007888620398401C16
:100E50000390F08A401EF082F08A019B00280898D7
:100E60000090E6D100224021204600F01FFB002820
:100E700008D00320B7E728882168C005C00D886224
:100E8000AD1CE6E720203860029900200877AAE729
:100E90000220A8E7FEE70000F0B587B014216846FD
:100EA000FFF73FF91B48426B04210A434263426B40
:100EB0000A400592416B012421434163416B21406B
:100EC0000591416B022529434163406B052728406A
:100ED00026033F070590002231463846FFF747FAC0
:100EE000002210210C48FFF742FA0096032000264A
:100EF00003900194694602963846FFF799F910204D
:100F00006A46039551C269460348FFF791F907B055
:100F1000F0BD0000001002400004005010B5184859
:100F200016490160E1214902416000218160C160F0
:100F300001618161C16101620C2241624261816291
:100F4000FFF7CEFE002801D0FFF75FF900210C4823
:100F5000FFF7A0FE002801D0FFF757F9002108484D
:100F6000FFF771FE002801D0FFF74FF90448FFF7A3
:100F700049FE002801D0FFF748F910BD00380140B4
:100F80001400002070477047704710B5FFF7FCF958
:100F900010BD30B599B034216846FFF7C2F800247F
:100FA0000D940E940F941C2111A81094FFF7B9F81A
:100FB00001204002FFF742FA0225E8010390009564
:100FC0004020059008200A9080030B9007950003AD
:100FD00004940C90089509946846FFF70BFC0720D1
:100FE0000D900F9402210E9510940DA8FFF7FCFAB6
:100FF00001201190129411A8FFF746FA19B030BDE4
:1010000001200249C00688607047000000ED00E042
:10101000F0B513A106C985B00192009112A206CACB
:10102000039202910446416E4034002915D00068B5
:101030008168806809014D0F400F02AE315C6F4638
:10104000385CC000FFF750F86085785D715DC000C6
:10105000FFF74AF8208505B0F0BD01206085F9E76B
:101060000101010307010000080402040801010155
:1010700010B5018DC90707D001684A6801235B04D8
:101080009A43C36A1A434A60018D890707D50168EC
:101090004A6801231B049A43036B1A434A60018D7B
:1010A000490707D501684A6801239B049A43436BAB
:1010B0001A434A60018D090707D501684A68012370
:1010C000DB039A43836B1A434A60018DC90607D537
:1010D0000268916801231B039943C36B1943916014
:1010E000018D890607D501688A6801235B039A434D
:1010F000036C1A438A60018D490612D503685A6849
:1011000001210905446C8A4322435A60426C8A4299
:1011100007D10268516803235B059943836C194327
:101120005160018D090607D501684A680123DB0477
:10113000C06C9A4302434A6010BD0000FEB50546EC
:10114000002680350446AE60FFF718F9019020684C
:101150000068124F000709D50121009700224905B8
:101160002046019B00F0A2F900280DD120680068FC
:1011700040070BD501210097002289052046019BDD
:1011800000F094F9002801D00320FEBD2020286043
:101190006860603426770020FEBD0000FFFFFF017D
:1011A000F8B5044680682169E26908436169002650
:1011B00011430843616E014320680268B24B1A4034
:1011C0000A43026021684868032212039043E268E0
:1011D00010434860A169206A226808439168AB4BBC
:1011E0001940014391602068C16A626A09090901D6
:1011F0001143C162A64A2068A64990420CD14869B1
:101200008007800F23D0012804D002281FD0032894
:101210001CD111E004201AE09F4A90420ED1486987
:101220000C21084013D0042811D0082802D00C2823
:101230000CD101E002200AE0082008E0974988422A
:1012400002D09749884201D1002000E010200122FD
:10125000D203E169D511934B934F91426FD100288E
:1012600006D0022835D004287AD0082869D17AE03F
:10127000FFF766FA76E0012815D0022815D003287A
:1012800015D0042815D0052815D0062815D0072814
:1012900015D0082815D0092815D00A2815D00B28F4
:1012A00014D0012512E0022510E004250EE00625E9
:1012B0000CE008250AE00A2508E00C2506E01025C8
:1012C00004E0202502E0402500E080252946104664
:1012D0001BE0606A002815D001282AD002282AD0F5
:1012E00003282AD004282DD005282DD006282DD05B
:1012F00007282DD008282DD009282DD00A282DD038
:101300000B2800D0012529461846FEF7EDFE61683E
:1013100040004A088018FEF7E7FE80B20146103907
:10132000B9420ED86049491C01400007400F0843EC
:101330007FE00225E7E70425E5E70625E3E716E079
:101340000EE08CE00825DEE70A25DCE70C25DAE76D
:101350001025D8E72025D6E74025D4E78025D2E719
:10136000FFF702FA0246606A00289AD083E7002855
:1013700006D0022835D0042874D0082879D174E02A
:10138000FFF7DEF970E0012815D0022815D00328F8
:1013900015D0042815D0052815D0062815D0072803
:1013A00015D0082815D0092815D00A2815D00B28E3
:1013B00014D0012512E0022510E004250EE00625D8
:1013C0000CE008250AE00A2508E00C2506E01025B7
:1013D00004E0202502E0402500E080252946104653
:1013E0001BE0606A002815D0012825D0022825D0EE
:1013F000032825D0042825D0052825D0062825D067
:10140000072825D0082825D0092825D00A2827D044
:101410000B2800D0012529461846FEF765FE6168B5
:101420004A088018FEF760FE80B201461039B942C2
:101430001FD82168C8601DE00225ECE70425EAE713
:101440000625E8E70825E6E70A25E4E70C25E2E7B4
:101450001025E0E72025DEE74025DCE702E008E094
:101460008025D8E7FFF780F90246606A0028A0D0FF
:1014700089E7012620460121403041850185002071
:10148000E06620673046F8BDF369FFCFFFF4FF1137
:101490000038014040100240004400400048004035
:1014A000004C00400024F400EFFF0000FFB581B0C5
:1014B00017460E4604460A9D09E0681C07D0FEF751
:1014C0005DFF0499401AA8420CD8002D0AD020686C
:1014D000C169304688431AD00020B842EDD00020C0
:1014E00005B0F0BD20680168FF22A1329143016080
:1014F00020688168490849008160202120468030A9
:10150000016041600020603420770320E8E701207B
:10151000E3E700000FB410B503A9044B044A029896
:1015200000F03AF810BC08BC04B01847FD180008D9
:10153000100000208307FF22DB0E9A408907090E66
:101540009940002808DB830809489B001B1818688D
:1015500090430843186070470007000F083883085D
:1015600004489B001B18D86990430843D861704712
:1015700000E400E000ED00E002E008C8121F08C12E
:10158000002AFAD170477047002001E001C1121F04
:10159000002AFBD170470000FFB58FB00F4604460C
:1015A000002606E025280AD0129A11999047641C5B
:1015B000761C20780028F5D1304613B0F0BD002508
:1015C0000121A14A009500E00543641C23780846E8
:1015D000203B98401042F7D120782E2815D10420C6
:1015E00005436078641C2A280AD101CF641C00904E
:1015F0000BE000990A22514330394018641C0090D6
:101600002078014630390929F3D920786C280ED08A
:1016100004DC4C2813D06A2812D104E074280ED0C0
:101620007A280DD10BE001204005054307E0012198
:10163000090562780D43824201D16D18641C641C57
:101640002078864669284AD008DC0028B4D058287B
:101650006DD0632810D0642808D140E070286BD08A
:10166000732812D0752860D0782860D0129A7046FE
:1016700011999047761CE5E0387869460872002099
:10168000487202A80190012003E038680190002010
:10169000C0433F1D69070CD5002500E06D1C009973
:1016A0008D420FDA8542F9DB0199495D0029F5D1B8
:1016B00008E0002500E06D1C8542FCDB0199495DD6
:1016C0000029F8D1761907E0019801990078491CA2
:1016D0000191129A119990476D1EF5D2B2E00A203D
:1016E000029000216802400F039102280CD001CF24
:1016F000C117844600290DDA62460846524200218D
:10170000814194462D2008E0FF1DFF08FF0003CF14
:101710008446EFE7280504D52B206A461074012083
:101720003CE0E8073AD02020F7E70A2000E010204C
:1017300000210391029007E0102002900021042074
:1017400005430820039100906802400F022810D042
:1017500001CF0021844600200D9028071FD5704638
:1017600070280CD0029A1020039B42401A430CD0E0
:1017700015E0FF1DFF08FF0003CF8446EBE7402084
:101780006A46107401200D900CE06046084306D0B4
:1017900030206A4610747046507402200D907046D6
:1017A000582804D029A001900DA80E900DE02CA07F
:1017B000F9E76046039B029AFEF7BEFC019B844654
:1017C0009B5C0E9A521E0E92137060460843F0D135
:1017D0000E9805A9081A20300190680701D50098D5
:1017E00001E0012000900199884203DD0146019843
:1017F000081A00E000200025009006E004A8129AD4
:10180000405D119990476D1C761C0D988542F5DB63
:1018100004E0129A302011999047761C0099481ED6
:1018200000900029F5DC08E00E980E990078491C1C
:101830000E91129A11999047761C0199481E0190B9
:101840000029F1DC641CB4E6092801003031323390
:1018500034353637383961626364656600000000EC
:1018600030313233343536373839414243444546D6
:101870000000000010B5044600F025F9A02000F09B
:10188000EFF800F061F900280FD1204600F0E8F8E9
:1018900000F05AF9002808D100F015F9A12000F055
:1018A000DFF800F051F9002801D0002010BD00F051
:1018B00081F80446012000F02FF800F024F92046BA
:1018C00010BD70B50C46054600F0FDF8A02000F0F4
:1018D000C7F800F039F900280FD1284600F0C0F809
:1018E00000F032F9002808D1204600F0B9F800F0E5
:1018F0002BF9002801D100F006F970BD13B5044B97
:10190000012269460348FFF755FA00981CBD000004
:10191000FFFF00001400002070B5064600F08FF8AD
:1019200001250524ED022407002229462046FEF762
:101930001EFDFEF764FC6900002E01D0012200E0CC
:1019400000222046FEF713FD012229462046FEF71D
:101950000EFDFEF754FC002229462046FEF707FD47
:1019600070BD000010B5124886B0426B01210A43D9
:101970004263426B0A400592426B0A434263406BEA
:10198000052408400590C8020090032001910291AF
:101990002407039069462046FEF74AFC0120000315
:1019A000009069462046FEF743FC06B010BD0000DB
:1019B00000100240F8B5002500F02FF80127052699
:1019C000FF023607002239463046FEF7D0FCFEF70C
:1019D00016FC0024012239463046FEF7C8FCFEF70B
:1019E0000EFC012109033046FEF7BCFC002805D09F
:1019F0000720011B012088402843C5B2FEF7FFFBEA
:101A0000002239463046FEF7B2FCFEF7F8FB641CB4
:101A1000E4B2082CDED32846F8BD00B585B001201D
:101A20000003009000200190012002900320039009
:101A3000052069460007FEF7FBFB05B000BD00B5B9
:101A400085B0012000030090012001900290032046
:101A50000390052069460007FEF7EAFB05B000BDCC
:101A6000F8B50746FFF7EBFF01250526ED0236071F
:101A7000002229463046FEF77AFCFEF7C0FB002420
:101A80000720011B01208840384201D0012200E0DC
:101A90000022012109033046FEF769FCFEF7AFFB87
:101AA000012229463046FEF762FCFEF7A8FB002221
:101AB00029463046FEF75BFCFEF7A1FB641CE4B24E
:101AC000082CDDD3F8BD70B5FFF7B9FF012205255D
:101AD000D4022D0721462846FEF749FC01221603B1
:101AE00031462846FEF743FCFEF789FB00223146CB
:101AF0002846FEF73CFCFEF782FB002221462846E2
:101B0000FEF735FC70BD70B5FFF799FF0124052580
:101B1000E4022D07002221462846FEF728FC660035
:101B2000002231462846FEF722FCFEF768FB012220
:101B300021462846FEF71BFCFEF761FB01223146D9
:101B40002846FEF714FC70BD70B50024FFF765FF52
:101B500001220525D6022D0731462846FEF707FC4F
:101B6000FEF74DFB71002846FEF7FCFB002802D073
:101B70000124FFF7C8FF002231462846FEF7F7FB95
:101B8000FEF73DFB204670BDFEF706FCFFF701FAAD
:101B9000FFF782F9FFF7C2F9FFF7E4FE55211020A5
:101BA000FFF78FFEFF24F5341020FFF763FE014698
:101BB00003A0FFF7AFFC2046FEF728FBF4E7000088
:101BC00061743234633038203D202523780A0000C8
:101BD0000000000000000000000000000000000005
:101BE00000000000000000000000000000000000F5
:101BF00001000000020000000300000004000000DB
:101C000006000000070000000800000009000000B6
:101C100000000000000000000000000000000000C4
:101C200001000000020000000300000004000000AA
:101C3000501C000800000020140000007815000867
:101C4000641C0008140000208C04000088150008A3
:101C50000400000001000000000000000024F40067
:041C60000000000080
:04000005080000B936
:00000001FF
