:020000040800F2
:10000000D8040020D50000084D150008471400084A
:1000100000000000000000000000000000000000E0
:10002000000000000000000000000000971500081C
:100030000000000000000000951500089915000858
:10004000E7000008E7000008E7000008E7000008F4
:10005000E7000008E7000008E7000008E7000008E4
:10006000E7000008E7000008E7000008E7000008D4
:10007000E7000008E7000008E7000008E7000008C4
:10008000E7000008E7000008E700000800000000A3
:10009000E7000008E7000008E7000008E7000008A4
:1000A000E7000008E7000008E7000008E700000894
:1000B000E7000008E7000008E7000008E700000884
:1000C0000348854600F08CF900480047CD1E000823
:1000D000D80400200448804704480047FEE7FEE7B4
:1000E000FEE7FEE7FEE7FEE715160008C100000880
:1000F00030B50B46014600202022012409E00D46C0
:10010000D5409D4205D31D469540491B2546954047
:1001100040191546521E002DF1DC30BDF0B51FB45C
:100120000646002082B005464024019100901BE065
:10013000019922460F46304600F0E2F8049A059BEA
:10014000801A994110D310461946224600F0C8F88B
:10015000361A8F410197224601200021009F00F0AE
:10016000BFF838184D4100902046641E0028DFDC9F
:10017000019B00982946324607B0F0BDD2B201E09B
:100180000270401C491EFBD270470022F6E710B5F2
:1001900013460A4604461946FFF7F0FF204610BDF5
:1001A000F0B51FB488B00B9909980024484009990C
:1001B000C00F490049080991C0070B9900904900F8
:1001C00049080B9109990898A64608431CD00B9939
:1001D0000A98084318D0099801244000420D4800AD
:1001E000410D099824050003000B204309900B984A
:1001F0000003000B20430B9050181C4940180022AC
:1002000001901446104605E0002001460DB0F0BDF7
:10021000032801DA034600E003239C46C11A0AAE14
:100220000AE05F0008ADED5B4F00F75B7D43002700
:10023000AA187C41491C5B1E6145F2DD410004ABFC
:100240005A522104120C0A43240C401C0828DFDBFC
:10025000019802900099704601910090059B049AC4
:100260000799069800F06AF8D0E700000DFCFFFF40
:100270000EB5C217C10F5040CA0740180021054BE8
:100280000293019200910A460B4600F057F803B022
:1002900000BD00003304000070B5CD0F4A00090313
:1002A0000123090B1B0519430B4BED070024520DCD
:1002B0009A4201DA002070BD074B34339A4203DCC6
:1002C0009A1A00F01DF802E00449511888402C43A6
:1002D000F1D0404270BD0000FF030000CDFBFFFFE6
:1002E00010B5202A04DB0146203A9140002010BDC1
:1002F000914020239C1A0346E3401943904010BDCF
:1003000010B5202A04DB0846203AD040002110BD59
:100310000B46D340D0402024A21A914008431946EE
:1003200010BD10B5002B08DA0024401C6141921862
:100330005B411A4301D14008400010BDF0B51FB425
:1003400082B005460C0003D0084601F0EDFB02E048
:1003500001F0EAFB20300246009021462846FFF7D4
:10036000BFFF049B059A04460F46184311430843F8
:1003700014D0184610431BD0009840210A1A184682
:100380000599FFF7BDFF05460E46009A05990498AA
:10039000FFF7A6FF084305D0012004E020463946B8
:1003A00007B0F0BD0020C11705430E432C4337436F
:1003B00000990E986305401A7905E40A00220C435F
:1003C000FD0A0A3002D500200146E9E701051019AF
:1003D00069410C9C0D9D00196941FFF7A2FFDFE701
:1003E000064C0125064E05E0E36807CC2B430C3C88
:1003F00098471034B442F7D3FFF766FE701F000829
:10040000901F000870B5002400F066F80125ED0388
:100410000526360703E0641CE4B201F0A1FC29467E
:10042000304600F0F1F9002802D0A02CF3D30FE001
:10043000A02C0DD2002403E0641CE4B201F090FC77
:100440002946304600F0E0F9002803D0C82C04D338
:10045000012070BDC82CEFD3FAE7002070BD012148
:10046000052310B5C9031B07012804D00022184634
:1004700000F0D3F910BD0122F9E7000070B500F0DB
:10048000B6F800F0A6F8FFF7BDFFCC2000F0BBF8EF
:10049000BE2000F0B8F800F08DF8044600F08AF8AD
:1004A000072805D9C043E143C0B2CCB2002500E023
:1004B00001250002001900B2FFF7DAFE0022054B09
:1004C000FFF76EFEFFF7E8FE00B2002D01D14042BB
:1004D00000B270BD0000E43F00B585B00120C0034C
:1004E000009000200190012002900220039005203E
:1004F0006946000700F0C6F805B000BD00B585B03C
:100500000120C0030090012001900290022003907E
:1005100005206946000700F0B5F805B000BD0000F1
:1005200000B5114887B0C26A01210A43C262C06A9D
:10053000019108400590C8030090022003900291A9
:1005400005206946000700F09DF800F081F80028BA
:1005500007D000F0A5FF00F03CF8FFF753FF07B00D
:1005600000BD1020FBE700000010024010B5FFF7AF
:10057000C5FF0020FFF773FF01F012FC0120FFF719
:100580006EFFFFF7A9FF01F02BFC01F029FC012110
:100590000520C903000700F037F9002801D0012425
:1005A00000E0002401F0BCFB01F0BAFB01F0B8FB55
:1005B000204610BD70B500250124FFF7D7FFC0010C
:1005C00069080843641CE4B2C5B2082CF5D9284672
:1005D00070BD10B5FFF792FF0020FFF740FF01F05C
:1005E0003FFC0120FFF73BFF01F09AFB10BD10B567
:1005F000FFF7EFFFFFF706FFCC2000F004F84420E0
:1006000000F001F810BD70B50546FFF777FF012433
:10061000E807C00F6D0800280AD00020FFF71FFF71
:1006200001F0BEFB0120FFF71AFF01F0F9FB09E022
:100630000020FFF714FF01F0F3FB0120FFF70FFF8D
:1006400001F0AEFB641CE4B2082CE1D970BD704728
:100650000948022101700122427081701421C17089
:1006600066218180FF21CD31C18004490181044987
:1006700041811820704700000C0000205C1700002A
:10068000281F0000F8B500230124A7E027469F405B
:100690003A4070D04D68022D01D0122D14D1DD08E2
:1006A000AD002D1800952D6A5E07AC46F50E0F269D
:1006B000AE46AE406546B543AC460E697546AE40A3
:1006C00065462E43009D2E624D68012D05D0022DFA
:1006D00003D0112D01D0122D16D185680326AC460A
:1006E0005D00AE46AE406546B543AC46CE68754645
:1006F000AE4065462E43866046680D79BE43ED06E2
:10070000ED0F9D403543456006685F000325BD4001
:10071000AE46AE430D79B446AE07B60FBE40654651
:100720002E430660C6687546AE438D68BD403543AE
:10073000C5604D68ED0050D52B4D6E6B26436E6342
:100740009E082A4DB6007519AC46AD689E07360F57
:100750000F27B740BD4305273F07B84201D1002707
:100760001AE0234FB84201D1012715E0214FB842CA
:1007700002D1022710E030E01F4FB84201D1032719
:100780000AE01E4FB84201D1042705E01C4FB842D1
:1007900001D1052700E00627B7402F436546AF602B
:1007A000184D2E684F689643FF0300D516432E6000
:1007B0006E684F689643BF0300D516436E60AE68FF
:1007C0004F689643FF0200D51643AE60EE684F684F
:1007D0009643BF0200D51643EE605B1C0A681546BF
:1007E000DD4000D052E7F8BD00100240000001409B
:1007F0000004005000080050000C00500010005091
:10080000001C0050000401400069084000D0012095
:10081000704742694A4042617047002A01D08161B5
:10082000704781627047000001480068704700000F
:100830000400002002480168491C01607047000064
:100840000400002010B5084800240168402211432C
:100850000160204600F00AF8002801D0012401E0E0
:1008600000F01CF8204610BD0020024070B505467F
:1008700009487D210024C9000068FFF739FC00F019
:1008800051FC002801D0012404E000222946501E1A
:1008900000F010F8204670BD080000200448416BAD
:1008A000012211434163816B02041143816370474C
:1008B0000010024010B500F04BFE10BDF8B5044624
:1008C0000068664D810601D400057DD5634E002782
:1008D000403EB06BC00004D4B06B31040843B06339
:1008E00001275F480168C90511D4016882151143C9
:1008F0000160FFF799FF009005E0FFF795FF009971
:10090000401A642844D856480068C005F5D53168B7
:1009100003200005626801401040884205D103238E
:10092000A0681B051840884208D09003800F032858
:1009300004D13068800301D50120F8BD2869032166
:100940000904084029D00A40824202D02278920647
:1009500006D4A2680A4082421FD0208800051CD518
:1009600028692A6988430121C9040A432A612A693E
:100970008A432A612861C0050FD5FFF755FF009013
:1009800008E0FFF751FF0099411A3648814201D92A
:100990000320F8BD28698005F3D561688803800FBE
:1009A000032805D132680005824301400A433260C2
:1009B0002869032261681204114008432861002F4E
:1009C00006D0B06B012100E002E009078843B06364
:1009D0002078C00705D0E868E168800880000843F7
:1009E000E8602078800705D5E8680C2188432169F4
:1009F0000843E8602078400706D5E86803218902AB
:100A0000884361690843E8602078000706D5E868F4
:100A1000032109038843A1690843E8602088C005D1
:100A200006D5E868032109048843E1690843E860C2
:100A30002078400606D5E868012189068843616A66
:100A40000843E8602078000606D5E8680321890499
:100A50008843216A0843E8600020F8BD4010024046
:100A60000070004088130000F8B50E4605007DD0E8
:100A700053480068C007C00FB0420AD2504801680E
:100A800049084900314301600068C007C00FB04207
:100A900071D128784B4C800705D5E068F021884358
:100AA000A9680843E0602878C00752D06868022827
:100AB00017D0032818D02168012818D089050029EB
:100AC00059DAE168890889000143E160FFF7ACFE6B
:100AD00069680746022912D003291CD0012926D0B3
:100AE00033E021688903EAE721688901E7E74907DC
:100AF000E5E7FFF799FEC11B3348814223D8E06840
:100B00000007800F0228F4D123E0FFF78DFEC11B00
:100B10002D48814217D8E0680007800F0328F4D1E0
:100B200017E0FFF781FEC11B274881420BD8E06820
:100B30000007800F0128F4D10BE0FFF775FEC11B01
:100B40002148814201D90320F8BDE0680007800FE9
:100B5000F3D11B480168C907C90FB1420DD901681B
:100B60004908490031430160006800E003E0C00724
:100B7000C00FB04201D00120F8BD2878400706D54B
:100B8000E068072109028843E9680843E0602878A3
:100B9000000707D5E0680721C90288432969C90011
:100BA0000843E06000F036F8E168084A0906090FDA
:100BB000515CC840064908600020FFF757FEF8BDA9
:100BC0000020024000100240881300004C1F000863
:100BD00008000020044805490068C968044A49051E
:100BE000490F515CC84070470800002000100240C7
:100BF000651F0008044805490068C968044A89045B
:100C0000490F515CC84070470800002000100240A6
:100C1000651F000810B5184AD1680C200840042848
:100C20000BD0082810D00C2810D050680004410FB9
:100C30000120C003491C884010BD1068C00601D5C2
:100C40000E4810BD0E4810BD0E4810BD88020E4B58
:100C5000000F185C0902D368890F491CDB0301D51A
:100C6000084A05E01268D20601D5044A00E0044AA9
:100C70005043FFF73DFA10BD0010024000093D004F
:100C80000024F40000127A005C1F0008FEB5050085
:100C90007ED0F94CE7680C20E6680740012000048C
:100CA00006402878C00747D0082F05D00C2F0AD15E
:100CB00001200004864206D1206880033CD5686884
:100CC0000028E5D038E0012069680004814203D1A2
:100CD00021680143216011E0052301221B049204D5
:100CE0009942216802D111432160F1E781432160DB
:100CF00021680140009120689043206068680028C6
:100D00000DD0FFF791FD009005E0FFF78DFD0099F4
:100D1000401A64287ED820688003F6D50CE0FFF7DF
:100D200083FD009005E0FFF77FFD0099401A6428DD
:100D3000F0D820688003F6D4287880075CD5E8686E
:100D4000810604D5226820210A43226088430923B2
:100D5000042F0DD00C2F01D1002E09D000283BD03C
:100D60002168994301432160FFF75EFD064627E0B5
:100D70002168490701D500288AD061681F22120224
:100D800091432A691202114361602168994300E08E
:100D9000C3E101432160FFF73DFFE16809060A0F47
:100DA000B649895CC840B64908600020FFF75EFD7F
:100DB000002873D120E0FFF737FD801B0228A9D857
:100DC00020684007F7D560681F2109028843296918
:100DD0000902084360600FE020684008400020607E
:100DE000FFF722FD064604E0FFF71EFD801B0228E8
:100DF00090D820684007F7D42878C00660D5002F27
:100E00000DD0E86900284AD02068FF21013108434D
:100E1000206000E0E8E0FFF707FD06462CE02068D0
:100E2000800502D5E8690028A6D06068072149033B
:100E30008843696A084360606068298C0002000A80
:100E4000090608436060686A410B0120C003491C21
:100E50008840E16809060A0F8849895CC8408849CA
:100E600008600020FFF702FD002817D128E0FFF7F7
:100E7000DBFC801B0228A2D820688005F7D56068BB
:100E8000072149038843696A084360606068298CC8
:100E90000002000A09060843606011E023E12168AE
:100EA000FF20013081432160FFF7BEFC064604E0CD
:100EB000FFF7BAFC801B02289AD820688005F7D477
:100EC0002878704E000724D568690028306910D052
:100ED000012108433061FFF7A7FC009005E0FFF710
:100EE000A3FC0099401A02287ED830698007F6D505
:100EF0000FE0400840003061FFF796FC009005E0ED
:100F0000FFF792FC0099401A02286DD830698007DB
:100F1000F6D42878400764D500200290A06BC0006A
:100F200006D4A06B012109070843A06301200290A9
:100F300055480168C90511D4016882151143016043
:100F4000FFF772FC009005E0FFF76EFC0099401A75
:100F5000642849D84C480068C005F5D5FF20AA6828
:100F60000130824203D131690143316111E0012135
:100F70008902002A07D005231B029A4203D1326955
:100F80000A433261EFE73269824332613069884354
:100F90003061A86800280ED0FFF746FC009006E0FC
:100FA000FFF742FC0099411A384881421CD8306949
:100FB0008005F5D50DE0FFF737FC009006E0FFF760
:100FC00033FC0099411A314881420DD830698005BF
:100FD000F5D40298002804D0A06B012109078843AA
:100FE000A0632878800600E07CE02ED52848A96917
:100FF0004314002916D0A26801210A43A260626B43
:101000000A436263016A19430162FFF70DFC064659
:1010100004E0FFF709FC801B022863D8A068800762
:10102000F7D512E0A16849084900A160016A994317
:101030000162FFF7F9FB064604E0FFF7F5FB801BB2
:1010400002284FD8A0688007F7D4A86A002866D085
:101050000C2F4DD0012636060228206805D0B0435B
:101060002060FFF7E1FB05463EE0B0432060FFF75C
:10107000DBFB074613E00000001002404C1F000895
:10108000080000204010024000700040881300005B
:1010900000000140FFF7C8FBC01B022822D82068CF
:1010A0008001F7D4296BE86AE2680843696BFD2385
:1010B0001B049A4311430843E060206830432060DA
:1010C000FFF7B2FB054604E0FFF7AEFB401B02282A
:1010D00008D820688001F7D521E0FFF7A5FB401B69
:1010E000022801D90320FEBD20688001F5D416E056
:1010F0000128F8D0E06801210904EA6A0140914220
:101100000BD10F2189042A6B0140914205D10321A3
:1011100089050840696B884201D00120FEBD00208E
:10112000FEBD0000094910B5401E884201D90120CA
:1011300010BD074C60610321081F00F009FA002070
:10114000A06107202061002010BD0000FFFFFF000C
:1011500000E000E0F0B502462032137E012B15D0EE
:10116000012717760223537605686C68AB687026F2
:10117000B4430E68496826438024A34319436E6034
:1011800000688160577600201076F0BD0220F0BD27
:1011900070B5040005D025462035687E002802D0B1
:1011A00006E0012070BD00202876204600F00AF8F5
:1011B00002206876211D206800F056FA012068762A
:1011C000002070BD00680449884204D10348816B47
:1011D0000222114381637047000400400010024066
:1011E000F8B5054604462035287E012817D001268B
:1011F0002E7602206876226890687727FF23B8430E
:101200001B02984390600A68502A31D00EDC202AD5
:101210004BD006DC002A48D0102A3AD145E0022003
:10122000F8BD302A41D0402A33D136E0602A27D099
:10123000702A12D001200003121A2AD0824228D12B
:10124000CB684A688968206800F042FA20688168A3
:1012500001229203114381601BE0CB684A688968D0
:10126000206800F035FA216888683843886010E00B
:10127000CA684968206800F03EFA5021206806E0FC
:10128000CA684968206800F047FA6021206800F0C9
:101290002AFA6E7600202876F8BDCA684968206868
:1012A00000F029FA40212068F1E711462068EEE7B6
:1012B00010B5040003D0606F002802D007E00120C1
:1012C00010BD002170200155204600F027F8242091
:1012D000606720680168490849000160204600F005
:1012E000C3FA0128ECD0606A002802D0204600F042
:1012F00026FA206841680922D202914341602068A1
:1013000081682A229143816020680168012211438B
:101310000160204600F078FA10BD000010B586B0DC
:10132000044614216846FEF730FF114920688842C0
:101330001BD11048816B0122520411438163C16AA1
:1013400001221143C162C06A6946104005900C2019
:1013500000900220019000200290032003900420BE
:10136000049005200007FFF78DF906B010BD0000BE
:101370000044004000100240FFB50446406F83B0B7
:1013800017460D4620285CD1002D0AD0002F08D02A
:10139000A168C001814207D12069002804D1E80773
:1013A00002D0012007B0F0BD204660300290007CE2
:1013B000012846D00298012101740020E067212015
:1013C0006067FFF731FA2646403601903782778210
:1013D0000120A1680003814202D12069002802D0C7
:1013E0002F46002511E000270FE000228021204633
:1013F00000F058FB002815D1002F15D0216838784F
:1014000088627F1C708A401E7082708A019B00284F
:1014100006980090E9D100224021204600F042FBCE
:10142000002808D00320BDE728882168C005C00D2A
:101430008862AD1CE6E720206067029900200874EE
:10144000B0E70220AEE7FEE770B586B0142168462B
:10145000FEF79BFE1048C16A01242143C162C16AA4
:1014600021400591C26A04210A43C262C06A0B4E40
:1014700008408D010590002229463046FFF7CDF93E
:101480000021029103910095019469463046FFF7CF
:10149000F9F806B070BD00000010024000080050CE
:1014A00010B586B000240094174801940294039468
:1014B00004941449059401601449097884604160DA
:1014C00013490461C16080214161FFF761FE00287A
:1014D00001D0FFF7BCF801200003009069460A48DC
:1014E000FFF77EFE002801D0FFF7B1F8049404A9AD
:1014F00005480594FFF72EFE002801D0FFF7A7F856
:1015000006B010BD000400409C0000200C0000202C
:10151000FFFF000010B50C480A490160E1214902B3
:10152000416000218160C16001618161C1610C2263
:10153000016242614162FFF7BBFE002801D0FFF764
:1015400086F810BD004400401C00002070470000D9
:101550008307FF22DB0E9A408907090E9940002875
:101560000BDA0007000F0838830808489B0018189A
:10157000C36993430B43C3617047830804489B00CE
:101580001B181868904308431860704700ED00E08E
:1015900000E400E07047704710B5FFF74BF910BD4D
:1015A00030B59DB038216846FEF7EFFD142118A82C
:1015B000FEF7EBFD28210EA8FEF7E7FD14480168B1
:1015C0000322D2029143C2148918016001200390C2
:1015D0001020049080030C90022500010095002447
:1015E0000D900A950B946846FFF750FB0F2018905A
:1015F000032019901A941B9401211C9418A8FFF73A
:1016000033FA0EA80E951294FFF758F91DB030BDAD
:101610000070004010480168821511430160C168E4
:101620000E4A1140C16001680D4A11400160816895
:1016300049084900816001680122920491430160D8
:10164000C168FD2212049143C16000210161054976
:10165000C003886070470000001002400C40FF8803
:10166000F6FFF6FE00ED00E0F0B502680124A407E5
:10167000144D154E154FA04205D0A84203D0B042DC
:1016800001D0B84204D11346702293434A681A43EA
:10169000A04205D0A84203D0B04201D0B84204D144
:1016A00003231B029A43CB681A4380239A430B6996
:1016B0001A4302608A68C26209688162012141613D
:1016C000F0BD00000004004000080140001401408B
:1016D00030B58468FF252D021B021343AC430B4336
:1016E0002343836030BD826870239A430A430721F5
:1016F0000A438260704730B5036A046A6408640074
:1017000004628469F025AC43120122430A24A343F6
:101710000B438261036230BD30B5036A1024A343DA
:1017200003628469036A0F252D031203AC4322432D
:10173000A024A343090119438261016230BD10B5A1
:10174000818CC90707D001684A6801235B049A436A
:10175000836A1A434A60818C890707D501684A6801
:1017600001231B049A43C36A1A434A60818C4907C8
:1017700007D501684A6801239B049A43036B1A4307
:101780004A60818C090707D501684A680123DB0399
:101790009A43436B1A434A60818CC90607D5026895
:1017A000916801231B039943836B19439160818CDA
:1017B000890607D501688A6801235B039A43C36BD6
:1017C0001A438A60818C490612D503685A68012140
:1017D0000905046C8A4322435A60026C8A4207D18D
:1017E0000268516803235B059943436C19435160B8
:1017F000818C090607D501684A680123DB04806CE7
:101800009A4302434A6010BDF8B500260446C667F5
:10181000FFF70AF8054620680068124F000709D54F
:1018200001212B46002249052046009700F03AF995
:1018300000280DD12068006840070BD501212B46F8
:10184000002289052046009700F02CF9002801D0DD
:101850000320F8BD20206067A06760342674002054
:10186000F8BD0000FFFFFF01F8B504462669A26835
:10187000E76932436669102000253E4323683243FE
:101880007B491E687B4F3E4016431E6022685368AA
:1018900003263603B343E668334353602368A269E3
:1018A0008B4201D0266A32439E680B273F02BE431B
:1018B00016439E60704E2368704AB3420CD1D268C2
:1018C0009207920F06D0012A3ED0022A3AD0032A6C
:1018D00026D124E0012023E0694EB3420AD1D26828
:1018E0000C2632402CD0042A2ED0082A2AD00C2ACA
:1018F00016D114E0634EB34222D0634EB3421FD0E0
:101900008B420DD1D66803229202164018D00122D4
:101910009202B61A18D0B61A14D0964200D10820F6
:10192000564A0126403A594FF6038B4236D10028D9
:101930000CD002280DD0042812D008281FD11CE09A
:101940000020EDE70220EBE70420E9E7FFF742F98A
:1019500008E01068C00601D5384605E04C4803E0B1
:10196000FFF758F9002873D062685100511881427E
:1019700005D81103814202D303E03046F4E7012584
:1019800066E0010E06025008002330185941FEF7A8
:10199000C5FB03210902411A3E4A55E0E169B14203
:1019A00032D1030000F0D7F809070A0D0625060614
:1019B000062B0600E3E7FFF70DF91CE0FFF71AF925
:1019C00019E010686168C00602D54808324A01E093
:1019D000324A48088018FEF78BFB80B20146304A35
:1019E00010399142CBD8511C01400007400F0843E9
:1019F0002CE0FFF70FF9616840004A08EAE76168E8
:101A0000012248081204E5E7030000F0A4F80907E2
:101A10000A0D06260606062C0600B0E7FFF7DAF8E0
:101A20001DE0FFF7E7F81AE010686168C00602D50C
:101A30004808C01902E016484A081018FEF758FB7B
:101A400080B20146164A1039914298D82168C86080
:101A50000020206660662846F8BDFFF7DBF8616865
:101A60004A088018EAE7616848088019E6E700003C
:101A700000480040F369FFEF003801404010024089
:101A800000440040004C00400050004000093D0070
:101A90000024F400FFFC0F0000127A000048E80167
:101AA000EFFF0000FFB581B017460E4604460A9DC1
:101AB00009E0681C07D0FEF7B7FE0499401AA84257
:101AC0000CD8002D0AD02068C1693046884318D050
:101AD0000020B842EDD0002005B0F0BD20680168BC
:101AE000FF22A132914301602068816849084900C2
:101AF000816020206067A06700206034207403208C
:101B0000EAE70120E5E700000FB410B503A9044B94
:101B1000044A029800F03CF810BC08BC04B0184716
:101B2000B11E0008180000202021020C01D0102155
:101B30001046020A01D010460839020901D01046A9
:101B4000091F820801D01046891E420801D0881E54
:101B50007047081A704730B47446641E2578641CB8
:101B6000AB4200D21D46635D5B00E31830BC1847F2
:101B700002E008C8121F08C1002AFAD17047704756
:101B8000002001E001C1121F002AFBD170470000B4
:101B9000FFB58DB00446002506E025280AD0109A2E
:101BA0000F999047641C6D1C20780028F5D12846B9
:101BB00011B0F0BD00270121484A009700E007431B
:101BC000641C23780846203B98401042F7D12078C7
:101BD0002E2817D1042007436078641C2A280CD1D2
:101BE0000E98641C02C800910E900BE000990A2226
:101BF000514330394018641C009020780146303938
:101C00000929F3D920780028D1D0642808D0692880
:101C100006D075281ED0109A0F9990476D1C5BE076
:101C20000A200E99019001C90E91002802DA404263
:101C30002D2102E0390504D52B216A4611720121BC
:101C400003E0F90704D02021F7E70BAE0B910DE07C
:101C50000021FAE70A200E99019001C90E91F7E7D9
:101C60000199FEF745FA3031761E31700028F7D120
:101C700003A8801B20300190780701D5009801E06F
:101C8000012000900199884201DD401A00E0002007
:101C90000027009006E002A8109AC05D0F999047B7
:101CA0006D1C7F1C0B988742F5DB04E0109A3020F6
:101CB0000F9990476D1C0099481E00900029F5DC93
:101CC00005E03078109A761C0F9990476D1C0199A9
:101CD000481E01900029F4DC641C65E70928010016
:101CE0000B480C494089081A0B490A6850620B4896
:101CF000026801231A430260064A0968521E4B6AB1
:101D00009342FCD301684908490001607047000014
:101D10000C000020FFEF00009C00002000040040A9
:101D20000B480C498088081A0B490A6850620B4816
:101D3000026801231A430260064A0968521E4B6A70
:101D40009342FCD3016849084900016070470000D4
:101D50000C000020FFEF00009C0000200004004069
:101D60000B480C494078081A0B490A6850620B4826
:101D7000026801231A430260064A0968521E4B6A30
:101D80009342FCD301684908490001607047000094
:101D90000C000020FFEF00009C0000200004004029
:101DA0000B480C498078081A0B490A6850620B48A6
:101DB000026801231A430260064A0968521E4B6AF0
:101DC0009342FCD301684908490001607047000054
:101DD0000C000020FFEF00009C00002000040040E9
:101DE0000B480C49C078081A0B490A6850620B4826
:101DF000026801231A430260064A0968521E4B6AB0
:101E00009342FCD301684908490001607047000013
:101E10000C000020FFEF00009C00002000040040A8
:101E20000B480C49C088081A0B490A6850620B48D5
:101E3000026801231A430260064A0968521E4B6A6F
:101E40009342FCD3016849084900016070470000D3
:101E50000C000020FFEF00009C0000200004004068
:101E60000B480C490089081A0B490A6850620B4854
:101E7000026801231A430260064A0968521E4B6A2F
:101E80009342FCD301684908490001607047000093
:101E90000C000020FFEF00009C0000200004004028
:101EA00010B5044601E0FFF71BFF641EFBD210BD16
:101EB00013B5044B012269460348FFF75DFA009809
:101EC0001CBD0000FFFF00001C000020FEF7BAFC54
:101ED000FFF766FBFFF7B8FAFFF71CFBFEF720FBE6
:101EE000114C0146208011A0FFF70EFE208810281B
:101EF000FDD00028FDD1FF25FF26F5350136104F16
:101F0000FEF7BCFA80B220800A21FEF7F1F80A46FB
:101F100001460CA0FFF7F8FD2846FFF7C1FF314648
:101F20003846FEF776FCEBE70000002044533138DA
:101F30004232305F496E69743D25640A000000003A
:101F40000008005025642E25640A000000000000EF
:101F50000000000001020304060708090304060844
:101F60000C101820300000000001020304000000E3
:101F7000901F0008000000201C000000701B0008DB
:101F8000AC1F00081C000020BC040000801B0008DF
:101F900000000000000000000000200002010224F8
:0C1FA000900070022C1F98290000000027
:04000005080000C12E
:00000001FF
