:020000040800F2
:10000000A80400209D0100084F15000833140008C3
:100010004D150008D5040008B518000800000000C0
:100020000000000000000000000000005315000860
:10003000370700080000000051150008551500089A
:10004000B7010008B7010008B7010008B7010008B0
:10005000B7010008B7010008B7010008B7010008A0
:10006000B7010008B7010008B7010008B701000890
:10007000B7010008B7010008B7010008B701000880
:10008000B7010008B7010008B7010008B701000870
:10009000B7010008B7010008B7010008B701000860
:1000A000B7010008B7010008B7010008B701000850
:1000B000B7010008B7010008B7010008B701000840
:1000C000B7010008B7010008B7010008B701000830
:1000D000B7010008B7010008B7010008B701000820
:1000E000B7010008B7010008B7010008B701000810
:1000F000B7010008B7010008B7010008B701000800
:10010000B7010008B7010008B7010008B7010008EF
:10011000B7010008B7010008B7010008B7010008DF
:10012000B7010008B7010008B7010008B7010008CF
:10013000B7010008B7010008B7010008B7010008BF
:10014000B7010008B7010008B7010008B7010008AF
:10015000B7010008B7010008B7010008B70100089F
:10016000B7010008B7010008B7010008B70100088F
:10017000B7010008B7010008B7010008000000003F
:10018000B7010008B7010008DFF80CD000F090F9C3
:10019000004800473D1C0008A8040020064880478E
:1001A00006480047FEE7FEE7FEE7FEE7FEE7FEE75C
:1001B000FEE7FEE7FEE7FEE7D91500088901000823
:1001C0002DE9F05F0546002092469B46884606468C
:1001D000814640241BE0284641464746224600F01F
:1001E000F9F853465A46C01A914110D311461846A1
:1001F000224600F0E0F82D1A67EB01084F46224630
:100200000120002100F0D7F817EB00094E41201E15
:10021000A4F10104DFDC484631462A464346BDE8E6
:10022000F09FD2B201E000F8012B491EFBD27047CB
:100230000022F6E710B513460A4604461946FFF7B2
:10024000F0FF204610BD2DE9FE4F81EA030404F0C3
:10025000004421F0004100944FF0000B23F00043D4
:1002600050EA01045ED052EA03045BD0C3F30A549F
:10027000C1F30A552C44A4F2F3340194A0FB0254B8
:10028000C1F3130141F48011C3F3130343F480134A
:1002900001FB024400FB034E840A970A44EA81549E
:1002A00047EA8357A4FB076802958D0A05FB07857B
:1002B0004FEA932C04FB0C542705029D4FEA065885
:1002C00047EA1637B5EB08056EEB070C870E920E62
:1002D00047EA811742EA8312A7FB0201B6EB0B0142
:1002E00064EB00042B0D43EA0C335E1844EB1C5006
:1002F000DA465146E7FB0201C5F313044FEA0B331C
:1003000043EA14534FEA0432019C43EA0603A4F182
:100310000C040294009CCDE900B400F07AF803B01C
:10032000BDE8F08F00200146F9E70EB5C10F80EA65
:10033000E0700844CA07002140F233438DE80E0004
:100340000A460B4600F065F803B000BD70B5C1F376
:100350000A5201F000450024C1F3130140F2FF33BB
:1003600041F480119A4201DA002070BD40F233431B
:100370009A42A2F2334203DC524200F02BF800E032
:1003800090402C43F1D0404270BD30B50B46014641
:1003900000202022012409E021FA02F59D4205D324
:1003A00003FA02F5491B04FA02F52844151EA2F1CE
:1003B0000102F1DC30BD202A04DB203A00FA02F110
:1003C000002070479140C2F1200320FA03F3194343
:1003D00090407047202A04DB203A21FA02F00021E5
:1003E000704721FA02F3D040C2F120029140084345
:1003F0001946704710B5141E73F1000408DA401C4A
:1004000041F1000192185B411A4301D120F0010033
:1004100010BD2DE9F04D92469B4611B1B1FA81F223
:1004200002E0B0FA80F220329046FFF7C4FF0446A3
:100430000F4640EA0A0041EA0B0153465A46084378
:1004400013D0114653EA010019D0C8F140025046BA
:10045000FFF7C0FF05460E46504659464246FFF795
:10046000AAFF084305D0012004E020463946BDE834
:10047000F08D0020054346EAE0762C4337430A9886
:100480006305E40AA0EB08000022FD0A44EA475491
:100490000A3002D500200146E9E70105101969413B
:1004A000DDE9084500196941BDE8F04DA2E700000B
:1004B000064C074D06E0E06840F0010394E80700B1
:1004C00098471034AC42F6D3FFF762FEDC1C0008FC
:1004D000FC1C0008FEE7000070B5002400F068F87E
:1004E0004FF40045114E03E0641CE4B201F0FAFA47
:1004F0002946304600F0A6FA10B1A02CF4D30EE045
:10050000A02C0CD2002403E0641CE4B201F0EAFA4F
:100510002946304600F096FA18B1C82C04D30120C1
:1005200070BDC82CF0D3FAE7002070BD0000024077
:10053000054B4FF40041012803D00022184600F07B
:100540008DBA0122FAE700000000024070B500F009
:10055000C0F800F0AFF8FFF7BFFFCC2000F0C6F8FE
:10056000BE2000F0C3F800F095F8044600F092F8C1
:10057000072805D9C043E143C0B2CCB2002500E052
:10058000012504EB002000B2FFF7CFFE9FED061B14
:1005900053EC112BFFF757FEFFF7D8FE00B2002DEA
:1005A00001D1404200B270BD000000000000E43FF5
:1005B00000B585B04FF4004000900020019001206C
:1005C0000290022003906946024800F05FF905B0EE
:1005D00000BD00000000024000B585B04FF40040AF
:1005E0000090012001900290022003906946024889
:1005F00000F04CF905B000BD00000240114800B504
:10060000016887B041F0010101600068694600F0AF
:10061000010005904FF400400090012001900290ED
:1006200002200390084800F031F900F087F838B153
:1006300000F038FF00F03EF8FFF74EFF07B000BDB6
:100640001020FBE7303802400000024010B5FFF7F1
:10065000C3FF0020FFF76CFF01F062FA0120FFF7F3
:1006600067FFFFF7A5FF01F079FA01F077FA4FF481
:100670000041074800F0E6F908B1012400E0002439
:1006800001F012FA01F010FA01F00EFA204610BD46
:100690000000024070B500255FF00104FFF7D6FFAF
:1006A000C001641C40EA5500E4B2C5B2082CF5D97B
:1006B000284670BD10B5FFF78FFF0020FFF738FF09
:1006C00001F088FA0120FFF733FFBDE8104001F088
:1006D000EBB910B5FFF7EEFFFFF7FEFECC2000F000
:1006E00005F8BDE810404420AFF3008070B5054622
:1006F000FFF772FF5FF0010415F0010F4FEA550597
:100700004FF0000009D0FFF713FF01F009FA0120B4
:10071000FFF70EFF01F040FA08E0FFF709FF01F0D4
:100720003BFA0120FFF704FF01F0FAF9641CE4B280
:10073000082CE1D970BD70477047000070B549487A
:100740004A4A02210368484801241D184848954236
:1007500011D80170447081701421C17066218180AC
:100760004FF4E671C18041F25C71018141F628715C
:100770004181182070BD3F4D1D44954211D8017034
:10078000447081702421C1708C2181804FF41C71D0
:10079000C18041F62C71018142F6981141812020DF
:1007A00070BD354C1D251E190824964211D806220D
:1007B000027041708470C570602181804FF4CC71EB
:1007C000C18041F20E41018141F6C22141813020B8
:1007D00070BD2A4E1E44964210D804704170847039
:1007E000C570622181804FF4D271C18041F2BE4157
:1007F000018141F6C4314181402070BD20495C181F
:100800006821944213D809220270032242700A22FE
:1008100082701F22C27081804FF4D771C18041F273
:100820001451018141F61E414181482070BD154A95
:100830001A44154B9A4213D80B22027005224270BB
:100840000C2282702222C270818040F2A711C180E6
:1008500041F27E41018141F658314181A82070BDAD
:10086000002070BD10000020804EB0FE3F4B4C00B9
:1008700014000020803C36FE801842FD80F44DFCC0
:1008800080E2D3FB003AC1FABF7AF2042DE9F84FB7
:1008900000224FF0010803254FF00F0E0B6808FAF5
:1008A00002F42340A3426ED14E68012E05D0022EE1
:1008B00003D0112E01D0122E12D186684FEA420CBD
:1008C00005FA0CF7BE43CF6807FA0CF73743876089
:1008D0004668A6430C79C4F3001494403443446042
:1008E000C668570005FA07FC8C6826EA0C06BC406F
:1008F0003443C4604C68022C01D0122C13D1D408AC
:1009000000EB8404A346D4F8209054074FEAD46A3D
:100910000EFA0AF629EA06090E6906FA0AF646EA06
:100920000906CBF8206006680C7926EA0C0604F06C
:100930000304BC40344304604C68E40065D5364C85
:10094000266846F480462660246822F0030604F4F4
:1009500080440094314C3444A446D4F808489607A7
:10096000370F0EFA07F6B4432D4EB04201D10026E0
:1009700024E02C4EB04201D101261FE02A4EB042A5
:1009800002D102261AE040E0284EB04201D10326EF
:1009900014E0274EB04201D104260FE0254EB042AC
:1009A00001D105260AE0244EB04201D1062605E019
:1009B000224EB04201D1072600E00826BE40264361
:1009C000CCF808681E4E34684F689C43FF0300D57E
:1009D0001C4334601A4C241D26684F689E43BF0395
:1009E00000D51E432660164E083634684F689C4377
:1009F000FF0200D51C433460114E0C3634684F683A
:100A00009C43BF0200D51C433460521C102AFFF4E3
:100A100045AFBDE8F88F0000443802400030014087
:100A2000000002400004024000080240000C0240A6
:100A3000001002400014024000180240001C024056
:100A4000003C01400069084000D001207047426925
:100A500031EA020200D10904816170470AB1816163
:100A600070470904FBE700000148806870470000F8
:100A700004000020024881680278114481607047B8
:100A8000040000200B4810B5016841F400710160BA
:100A9000016841F480610160016841F48071016086
:100AA000032000F061F8002000F006F800F024F8C0
:100AB000002010BD003C024070B50D4D04464FF4BF
:100AC0007A712878B1FBF0F00A490968B1FBF0F0BF
:100AD00000F0F4FA48B9102C07D200222146501E2B
:100AE00000F022F800206C6070BD012070BD000095
:100AF00004000020100000200A4808B5016841F4F5
:100B000080410160006800F4804000900548001FAB
:100B1000016841F080510160006800F08050009051
:100B200008BD000044380240F0B40E4B1B680C4670
:100B3000C3F30223C3F10705042D00D90425191DB1
:100B4000072901D2002300E0DB1E012606FA05F189
:100B5000491E214099409E40761E16403143F0BC0C
:100B600000F0BABE0CED00E0064900F0070208688C
:100B70004FF6FF03184040EA0220034A1043086082
:100B8000704700000CED00E00000FA052DE9F04789
:100B90000E46050065D0DFF81481D8F80000F7B2E2
:100BA00000F00F00B04207D288F80070D8F80000BB
:100BB00000F00F00B04254D128683D4C810712D597
:100BC000400703D5206840F4E050206028780007F3
:100BD00003D5206840F4604020602068A96820F0B8
:100BE000F000084320602878C0072DD0304968689D
:100BF0000839012812D0022813D0032811D009681F
:100C0000890700292DDA216821F0030101432160C1
:100C1000FFF72AFF814641F2883A0EE0096889030E
:100C2000EFE709688901ECE7FFF71EFFA0EB090178
:100C3000514502D90320BDE8F0872068696800F0BB
:100C40000C00B0EB810FEFD1D8F80010404601F056
:100C50000F01B14207D90770006800F00F00B042E1
:100C600001D00120E7E72878400705D52068E9682A
:100C700020F4E050084320602878000706D520685B
:100C8000296920F4604040EAC100206000F038F893
:100C90002168084AC1F30311515CC8400649086045
:100CA00006480068FFF708FF0020C4E7003C024048
:100CB00008380240C41C0008100000200800002072
:100CC0000448054900680968044AC1F38221515C5F
:100CD000C84070471000002008380240D41C0008AB
:100CE0000448054900680968044AC1F34231515C6F
:100CF000C84070471000002008380240D41C00088B
:100D0000154810B5006810F00C02144813D04110BB
:100D1000042A0FD0082A0ED10F4C241F2268236802
:100D200002F03F025B0207D52068C0F38810A0FBE9
:100D3000010106E0084610BD2168C1F38811A1FB3E
:100D400000010023FFF73CFA2168C1F30141491C6F
:100D50004900B0FBF1F010BD083802400024F40057
:100D60002DE9F84F04006ED02078DFF83C93C007DF
:100D7000A9F104054AD009F104000168C1F3810119
:100D8000012908D00068C0F3810002280AD1D9F8EF
:100D90000000400206D52868800337D56068002827
:100DA000E1D033E06068B0F5803F10D0B0F5A02FFF
:100DB000286810D020F480302860286820F4802033
:100DC00028606068A8B1FFF74FFE06460DE028686E
:100DD00040F48030F4E740F480202860F7E700BF5B
:100DE000FFF742FE801B642873D828688003F7D57C
:100DF0000CE0FFF739FE064605E000BFFFF734FEC2
:100E0000801B6428F0D828688003F7D42078DFF8A6
:100E10009C8280074FF0000A3ED5A348001D016860
:100E200011F00C0F08D00068C0F3810002280BD12C
:100E3000D9F80000400207D42868800716D5E0687A
:100E4000012800D112E02BE1E068B8B10120C8F818
:100E50000000FFF709FE064605E000BFFFF704FEAD
:100E6000801B0228C0D828688007F7D52868216928
:100E700020F0F80040EAC10028600DE0C8F800A0AA
:100E8000FFF7F2FD064604E0FFF7EEFD801B0228A7
:100E90001FD828688007F7D42078000722D5824E13
:100EA00083486169703671B101210160FFF7DCFD93
:100EB000074604E0FFF7D8FDC01B022809D83068B8
:100EC0008007F7D50EE0C0F800A0FFF7CDFD07467C
:100ED00005E082E0FFF7C8FDC01B02287DD830681E
:100EE0008007F7D42078400768D5DFF8BCB1002729
:100EF0000BF13C0BDBF80000C0000BD4DBF800105A
:100F000041F08051CBF80010DBF80000012700F021
:100F100080500090674E3068C00510D4306840F4AF
:100F200080703060FFF7A0FD009005E0FFF79CFDAA
:100F30000099401A022850D83068C005F6D55A4E9C
:100F4000A0686C3601280FD00528306810D020F03A
:100F500001003060306820F004003060A068B8B153
:100F6000FFF782FD00900FE0306840F00100F4E7E9
:100F700040F004003060F7E7FFF776FD0099411A72
:100F800041F28830814266D830688007F4D50EE09F
:100F9000FFF76AFD009007E0FFF766FD0099411A30
:100FA00041F28830814256D830688007F4D42FB19E
:100FB000DBF8001021F08051CBF80010A069C8B315
:100FC0003949091D0968C1F3810102294AD0022863
:100FD000504607D0C8F8600000E03CE0FFF744FD51
:100FE00004463BE04746C8F86000FFF73DFD064673
:100FF00005E000BFFFF738FD801B02282BD82868CA
:101000008001F7D4D4E907010843A16A2A4A4908B4
:1010100002EB0141626A41EA8211084394F82C1004
:1010200040EA0161C9F8001001203866FFF71CFD95
:10103000044606E036E000BFFFF716FD001B02285D
:1010400009D828688001F7D52CE000BFFFF70CFD18
:10105000001B022802D90320BDE8F88F2868800110
:10106000F4D41FE00128F7D0D9F80000E26900F4B9
:101070008001914214D1226A00F03F0191420FD1C8
:1010800047F6C071626A0140914209D1A26A00F438
:101090004031914204D1E16A00F07060884201D091
:1010A0000120D9E70020D7E704380240000047427A
:1010B000800E4742007000400000FFFF10B5401E48
:1010C000B0F1807F01D3012010BD4FF0E0246061BA
:1010D0000F21601700F000FC0020A06107202061B4
:1010E000002010BD70B590F83C20012A32D00124B8
:1010F00080F83C40022280F83D2003685A689D68D1
:1011000022F070060A6832435A60134B02689A4212
:1011100014D0B2F1804F11D0104B9A420ED0104B28
:101120009A420BD00F4B9A4208D00F4B9A4205D0EF
:101130000E4B9A4202D00E4B9A4204D1496825F0D8
:1011400080031943916080F83D40002180F83C10F5
:10115000084670BD022070BD000001400004004040
:1011600000080040000C0040000401400040014025
:101170000018004010B5040003D094F83D0010B1F1
:1011800007E0012010BD002084F83C00204600F05C
:101190000DF8022084F83D00211D206800F02AFA95
:1011A000012084F83D00002010BD000008B5006853
:1011B0000649884208D10648016841F002010160F1
:1011C000006800F00200009008BD0000000400402C
:1011D0004038024070B5044690F83C00012817D012
:1011E000012584F83C50022084F83D002068826884
:1011F00022F0770222F47F4282600868502830D0C3
:101200000DDC20284DD005DC98B310283BD148E0F8
:10121000022070BD302844D0402834D139E0602805
:1012200028D0702806D0B0F5805F2CD0B0F5005FD4
:1012300029D10AE0CB68D1E90121206800F03EFA0B
:101240002068816841F0770109E0CB68D1E901218C
:10125000206800F033FA2068816841F480418160A1
:1012600011E0CA684968206800F03AFA5021206805
:1012700007E016E0CA684968206800F042FA602179
:10128000206800F025FA84F83D50002084F83C00E6
:1012900070BDCA684968206800F022FA40212068C1
:1012A000EFE7226801461046EBE770B5040004D072
:1012B00094F83900002510B106E0012070BD84F8D3
:1012C0003850204600F022F8242084F839002068A5
:1012D000C16821F40051C160204600F025FA206861
:1012E000016921F4904101612068416921F02A01DE
:1012F00041612068C16841F40051C160E56320206C
:1013000084F8390084F83A00002070BD10B586B02A
:10131000044614216846FEF78BFF14492068884272
:1013200021D113480021026842F0100202600068D7
:1013300000F0100005900E481438026842F00102D7
:101340000260006800F0010005904FF4C06000905A
:101350000220CDE901010320039007200490694693
:101360000448FFF793FA06B010BD000000100140DA
:1013700044380240000002402DE9F843044690F84A
:1013800039001F4616460D46202850D1B5B1AEB1E2
:1013900094F8380001284AD0012084F838004FF032
:1013A0000008C4F83C80212084F83900FFF75CFB7A
:1013B000A6848146E68484F8388026E00120BDE8D2
:1013C000F883E08C401EE084A0684B46B0F5805F57
:1013D0004FF000024FF080012046009703D000F04C
:1013E00037FAE8B90DE000F033FAC8B92888216867
:1013F000C0F308004860206908B16D1C05E0AD1C11
:1014000003E0216815F8010B4860E08C0028D8D172
:101410004B46002240212046009700F019FA08B1FF
:101420000320CCE7202084F839000020C7E7022001
:10143000C5E7FEE770B586B014216846FEF7F8FEF2
:1014400016480024016841F004010160016801F0C0
:1014500004010591016841F080010160016801F01B
:1014600080010591016841F00101016000680C4EA6
:1014700000F001004FF40055059000222946304647
:10148000FFF7ECFA01200095CDE9010469463046EA
:101490000394FFF7FBF906B070BD0000303802403E
:1014A0000000024010B586B0002418480094019452
:1014B0000294039404941449059401601449097832
:1014C000C0E901144FF6FF71C0E903148021816166
:1014D000FFF750FE08B1FFF72FF94FF4805000904E
:1014E00069460A48FFF776FE08B1FFF725F904942C
:1014F00004A906480594FFF7F5FD002801D0FFF781
:101500001BF906B010BD000000040040640000207C
:10151000140000200C4810B50A4901604FF4E13175
:101520004160002181600C22C160C0E90412816128
:10153000C161FFF7BAFE002803D0BDE81040FFF7F5
:10154000FBB810BD0010014024000020FEE77047EA
:1015500070477047FFF78EBA10B592B030216846D9
:10156000FEF766FE14210CA8FEF762FE184801681B
:1015700041F080510160006800F0805011901548E2
:10158000016841F4804101600068022400F4804059
:10159000119001200090000401908001CDE90640E7
:1015A00008AA0420402182E813000B906846FFF748
:1015B000D7FB0F20CDE90C0480200E9040010F9046
:1015C000109001210CA8FFF7E1FA12B010BD000045
:1015D00040380240007000400548016841F4700145
:1015E000016003494FF000608039086070470000D7
:1015F00088ED00E0F0B50268254C264D264E274FB9
:10160000274B4FF0804CA04209D0604507D0A8423C
:1016100005D0B04203D0B84201D0984204D122F0A4
:10162000700E4A6842EA0E02A0421BD0604519D0F3
:10163000A84217D0B04215D0B84213D0984211D06A
:10164000184DA8420ED0184DA8420BD0174DA842F5
:1016500008D0174DA84205D0164DA84202D0164D0D
:10166000A84203D122F44075CA682A434D6922F08A
:1016700080022A4302608A68C2620A688262A042CB
:1016800001D0984201D10969016301214161F0BD96
:10169000000001400004004000080040000C004031
:1016A0000004014000400140004401400048014066
:1016B00000180040001C00400020004010B5846865
:1016C00042EA032224F47F440A432243826010BD8D
:1016D000826822F070020A4342F00701816070477D
:1016E00010B5036A046A24F001040462846924F0DA
:1016F000F00444EA021423F00A020A4384610262FD
:1017000010BD10B5036A23F0100303628369046AF5
:1017100023F4704343EA023224F0A00343EA0111A8
:101720008261016210BD00002DE9F04104460068AD
:101730000169E26821F44051114301612169A06807
:10174000E26908436169114308432168CA6849F2A4
:101750000C639A430243CA6020684169A26921F47C
:10176000407111434161E069192764253226B0F5C3
:10177000004F354A354920684FF0000806D08842AE
:1017800001D0904236D1FFF7ABFA35E0884201D064
:10179000904202D1FFF7A4FA01E0FFF791FA6168E5
:1017A0004A18A0FB070148EB0803FEF709FD0146B4
:1017B000B0FBF5F00201B1FBF5F06FF018035843F0
:1017C00001EB800006EBC000B0FBF5F000F0F80084
:1017D00002EB4002B1FBF5F0584301EB800006EB51
:1017E000C000B0FBF5F000F00700216810448860ED
:1017F000BDE8F081FFF764FA61688B0F8A00A0FBF7
:101800000701FEF7DDFC0146B0FBF5F06FF01802B2
:10181000504301EB800006EB0010B0FBF5F000F048
:10182000F002B1FBF5F002EB0012B1FBF5F06FF046
:101830001803584301EB800006EB0010B0FBF5F0F5
:1018400000F00F00D1E7000000140140001001403B
:101850002DE9F041984617460E460446069D1DE0C8
:10186000681C1BD02DB1FFF7FFF8A0EB0800A842C1
:1018700014D92068C16821F4D071C1602068416921
:1018800021F001014161202084F8390084F83A00F8
:10189000002084F838000320BDE8F081206800684B
:1018A00036EA000004D00020B842D9D00020F3E787
:1018B0000120F9E7FEE700000FB4054B10B503A9BE
:1018C000044A029800F028F810BC5DF814FB0000F0
:1018D000251C0008200000200907090E002804DB51
:1018E00000F1E02080F80014704700F00F0000F1D4
:1018F000E02080F8141D704702E008C8121F08C1DC
:10190000002AFAD170477047002001E001C1121F80
:10191000002AFBD1704700002DE9FF4F89B09B469C
:101920000446002506E025280BD05A460B9990471F
:10193000641C6D1C20780028F5D10DB02846BDE848
:10194000F08F0027B8460122474900E0074314F80A
:10195000013F203B02FA03F00842F7D120782E28FD
:1019600019D114F8010F47F004072A280ED06FF0A0
:101970002F022078A0F1300109290CD808EB88014A
:1019800002EB410100EB0108641CF2E70A98641CB9
:1019900050F8048B0A9020780028CED0642808D014
:1019A000692806D075281ED05A460B9990476D1CA1
:1019B00058E00A994FF00A0901C90A91002802DA91
:1019C00040422D2102E0390504D52B218DF820104D
:1019D000012103E0F90704D02021F7E78A4608AE89
:1019E0000DE00021FAE70A994FF00A0901C90A91AE
:1019F000F7E74946FEF7C9FC303106F8011D00281B
:101A0000F7D1ADEB060000F12009780701D44FF0C3
:101A10000108C84502DDA8EB090000E0002080466F
:101A2000002706E008A85A46C05D0B9990476D1C38
:101A30007F1C5745F6DB04E030205A460B9990474F
:101A40006D1CB8F10001A8F10108F5DC05E016F8FD
:101A5000010B5A460B9990476D1CB9F10001A9F191
:101A60000109F4DC641C65E7092801000B484EF607
:101A7000FF714089081A0A490A68506209480268D9
:101A800042F00102026009684EF6FE724B6A934210
:101A9000FCD3016821F001010160704714000020AF
:101AA00064000020000400400B484EF6FF7180885F
:101AB000081A0A490A6850620948026842F001029D
:101AC000026009684EF6FE724B6A9342FCD30168CD
:101AD00021F0010101607047140000206400002023
:101AE000000400400B484EF6FF714078081A0A497E
:101AF0000A6850620948026842F0010202600968FF
:101B00004EF6FE724B6A9342FCD3016821F001014C
:101B100001607047140000206400002000040040B1
:101B20000B484EF6FF718078081A0A490A6850621D
:101B30000948026842F00102026009684EF6FE722E
:101B40004B6A9342FCD3016821F0010101607047A8
:101B50001400002064000020000400400B484EF6F2
:101B6000FF71C078081A0A490A6850620948026879
:101B700042F00102026009684EF6FE724B6A93421F
:101B8000FCD3016821F001010160704714000020BE
:101B900064000020000400400B484EF6FF71C0882E
:101BA000081A0A490A6850620948026842F00102AC
:101BB000026009684EF6FE724B6A9342FCD30168DC
:101BC00021F0010101607047140000206400002032
:101BD000000400400B484EF6FF710089081A0A49BC
:101BE0000A6850620948026842F00102026009680E
:101BF0004EF6FE724B6A9342FCD3016821F001015C
:101C000001607047140000206400002000040040C0
:101C100010B5044602E000BFFFF728FF641EFBD2A8
:101C200010BD000013B54FF6FF730122694602484C
:101C3000FFF7A2FB00981CBD24000020FEF722FF46
:101C4000FFF78AFCFFF7F6FBFFF764FCFEF7D6FC14
:101C5000134C0146208013A0FFF72EFE2088102889
:101C6000FDD00028FDD10A254FF4FA764FF4005735
:101C7000DFF84480FEF76AFC80B2B0FBF5F105FBAB
:101C80001102B0FBF5F120800CA0FFF715FE3046E5
:101C9000FFF7BEFF39464046FEF7D9FEEAE70000EF
:101CA00000000020445331384232305F496E69747D
:101CB0003D25640A000000000000024025642E2536
:101CC000640A00000000000000000000010203049C
:101CD000060708090000000001020304FC1C0008BC
:101CE0000000002024000000F8180008201D000853
:101CF00024000020840400000819000800000000EF
:101D00000100000010000000000000000024F400AA
:101D100002010224900070022C1F9829000000008C
:040000050800018965
:00000001FF
