:020000040800F2
:1000000018150020E1000008250C0008DD0B000891
:1000100000000000000000000000000000000000E0
:10002000000000000000000000000000290C000893
:100030000000000000000000270C0008510C000820
:10004000F3000008F3000008F3000008F3000008C4
:10005000F3000008F3000008F3000008F3000008B4
:1000600000000000F3000008E1040008F3000008AD
:10007000F3000008F3000008F3000008000000008F
:10008000010D0008F300000800000000F300000864
:10009000F3000008F3000008F3000008F300000874
:1000A000F3000008F3000008F3000008490D000801
:1000B000F300000800000000000000000000000045
:1000C000F300000800000000F30000080348854624
:1000D00000F038F800480047811400081815002087
:1000E0000448804704480047FEE7FEE7FEE7FEE7D6
:1000F000FEE7FEE7810C0008CD00000803460B4335
:100100009B0703D009E008C9121F08C0042AFAD2CD
:1001100003E00B780370401C491C521EF9D2704753
:10012000D2B201E00270401C491EFBD2704700228F
:10013000F6E710B513460A4604461946FFF7F0FFE6
:10014000204610BD064C0125064E05E0E36807CCAD
:100150002B430C3C98471034B442F7D3FFF7BAFF57
:100160008C1C0008AC1C0008F0B583B000284CD0F3
:1001700000294AD004460078412846D1002000904A
:1001800000F08EFB611C02AD01262846324600F0CD
:10019000B3F8E71C01A83946324600F0ADF82888CC
:1001A000FE281DDC401E03282FD8810001A2511813
:1001B0008F46C04600F034B800F004B800F027B80D
:1001C00000F033B83C48009D05600670C56085604E
:1001D00045603A483A49016000F032FAE57038E08B
:1001E000FF2839D040F20011884254D040F201116A
:1001F00088420AD12E480126314600F07BFC78B9AE
:10020000E6702046314600F053FC03B0F0BD2A48AA
:100210000078E8B1601D01A9098800F08DFAB8B135
:100220000098E070012120463EE02348407878B1F4
:100230000098E0700121204600F03AFC00F0DEFE5C
:100240000028FBD100F004FA00F0CAFC03B0F0BDB6
:10025000E6702046314627E00098E070204631469F
:1002600000F026FCF548C67007214170032181701B
:1002700000F0C4FE0028FBD1D54801F01DFB012091
:1002800000F05CFF0020ED4900F02AFE094800F074
:100290003DF903B0F0BDE74980223846134600F02F
:1002A0005DFC204640F2002100F002FC03B0F0BDEE
:1002B0000038000808110020F81000204C00002031
:1002C0000040000804480821016004490A78012020
:1002D00042400A707047C046180000485100002094
:1002E00018B122B10A0A027003E0002070470170C1
:1002F000090A417001207047002368B161B10B7891
:1003000022B11A0202804978511803E0038049782B
:100310000902C91801800123184670470023E8B17B
:10032000E1B10B7862B11A0602604B781B049A188F
:1003300002608B781B029A180260C97851180BE092
:1003400003604A781202D21802608B781B049A1854
:100350000260C978090689180160012318467047B0
:10036000F0B585B0034600207BB303292DD3CA1E08
:10037000D1072AD1029390B24008039019D0029D70
:100380006F1C00240194397804A800F023F8F0B120
:1003900004A80678797800F01DF8C0B130010499FE
:1003A00001432970BF1C6D1C641CA0B203998842D4
:1003B000E9D30398401E84B2029D2846214600F0EE
:1003C0005EF8295D411A4842484105B0F0BD0198E8
:1003D00005B0F0BD10B502460020C2B10B46303B5F
:1003E000DCB2092C02D81370012010BD0B46413B32
:1003F000DBB2052B03D837391170012010BD0B4635
:10040000613BDBB2052B02D857391170012010BDBA
:10041000F0B5FFB082B0044600206CB30D4659B36E
:1004200040F200118D4227D86E0001A840F2002151
:10043000FFF77DFE280619D001A80F21224606E00D
:1004400037330370801C521C6D1E2B060ED01378A0
:100450001F460F400A2F01D3373700E0303747706F
:100460005F091B09052FEBD23033EAE7601C01A9B5
:100470003246FFF743FE01207FB002B0F0BD10B559
:1004800051B100220378D318DAB2401C491E0C0483
:10049000F8D15842C0B210BD0020C0B210BD00005B
:1004A000F0B581B00023A1B19AB10090FF250A48B0
:1004B0000A4C2E46F6B20B787340C75CE65C6E4081
:1004C000491C521E3D46F5D1380230430099088040
:1004D0000123184601B0F0BD341A0008341B00088F
:1004E00010B50120022100F08FFE012803D1012068
:1004F000014600F07FFE044C0121204601F0A0F9E6
:10050000204601F032F910BD00040040F0B589B07A
:10051000074601900A200025294600F0CFFF40F24F
:10052000005001F079F80124204600F007FE02AEE9
:10053000304600F097FEB47640F200103083069506
:10054000059523482830029043F200000790039558
:10055000B86804902046314600F006FE022738466F
:1005600000F0ECFD304600F07DFEB57640F2001064
:1005700030830595164D28462430029043F2000042
:10058000079001990868049088880690384631469B
:1005900000F0EAFD204600F0C1FD204600F056FEC6
:1005A000384600F0C3FD384600F050FE204639467C
:1005B00000F018FE3846394600F00CFE802128462F
:1005C00001F0A1F9384600F0A1FD09B0F0BDC04628
:1005D0000038014010B582B030486C4608222146F0
:1005E00000F058FE2078FF280AD018480068124909
:1005F000014001204007814218D100F0F1FA15E0D6
:1006000068468178212011B1FF2900D0084647496A
:1006100008700220C870032088706A461279072A81
:1006200000D810464870002000F05AFC002002B0AC
:1006300010BDC046003000080000FE2F040000205E
:1006400080B50248302100F055FA80BD0040000816
:10065000B0B5FFB0FFB082B06D46284640F2004111
:10066000FFF765FD0D4C2046294640F2004200F0A0
:1006700011FE2878FF280CD16D460020287001213A
:10068000204600F037FA2046294640F2001200F0DA
:100690007FFA7FB07FB002B0B0BDC0460030000826
:1006A000B0B584B000F0DEF85E4800240460446019
:1006B0008460C460184D40F24041A9811749A96087
:1006C00040F60001A98016492960012141701548B2
:1006D000039040F2E8305830029013480190134ADA
:1006E0002046294600F07AFB2846FFF70FFF01A8B5
:1006F00000F060FC00F0FCF802200D49224640F2B8
:10070000E83300F011F90B492046224640F2E83365
:1007100000F00AF904B0B0BD08110020920C0020CE
:10072000920400206901000852000020040000200B
:10073000C5020008D5050008F0B53C4FBD440024B3
:1007400000286BD00F46042968D306463948684410
:10075000012531462A46FFF7CFFDB11C36486844D3
:100760002A46FFF7C9FD311D2E4E307801280CD1E5
:10077000022030702F4868440068B0800C36012495
:1007800030462246FFF7CAFD48E0B088294A6A444D
:100790001288904242D12848684402887088401CE0
:1007A00090423BD10491381F7280010409D0014668
:1007B000049A1378B768FB18B360521C491E0B04E7
:1007C000F7D181B20291049F384600F037F805A8AE
:1007D00003903946029F3A46FFF790FC12480068A2
:1007E000BA08039900F0D4F9C0B10F490868C019DC
:1007F0000860B0887188491C81420ED1F068B168E8
:1008000088420BD1002030607060B060F060012041
:100810007070FFF71DFF2C4600E02C462046044F69
:10082000BD44F0BDF81000204C000020E4F7FFFFAD
:100830001C080000140800001808000070B571B111
:100840000022074B3F2495B25D5D0B3506786E4064
:100850000670521C2240401C491E0D04F3D170BD8D
:100860004C1C000880B50648006840F2E831B0FB37
:10087000F1F000F0DBF900B1FEE700F003F880BD15
:100880000000002000203049024688528B18586032
:100890009860D860186114323C2AF6D17047C0467F
:1008A00014214143F54800224252401842608260C0
:1008B000C26002617047C046F0B581B00024EF4DC0
:1008C00001200090274602E014373C2F0ED0EE198D
:1008D00070780028F8D07470F06831698847002873
:1008E000F2D00098E8557068B060EDE701B0F0BD57
:1008F000F0B581B00B4800F08FFE0920C406012539
:10090000002608272046294632463B4600F073FD64
:10091000204631462A463B4600F08EFDA762A7617D
:1009200001B0F0BD11050000B0B502280BD851B1DF
:100930004BB114244443D1480125055500194360A7
:100940008360C2600161B0BD1000002070B582B04C
:1009500090B3044665484078654E022819D1706806
:100960002146FFF78CFD72681055651CA9B2104630
:10097000FFF74EFDD8B170683A2101706D00A9B241
:100980004018401C0D4901242246FFF7A9FCED1C2C
:100990000EE0716801AD28462246FFF781FD7068C0
:1009A000001929880022FFF79BFCA51C01E0002408
:1009B00014B1A8B200F010FB02B070BD0A0D000027
:1009C000F0B581B0384E3468002C69D0F34F3888C8
:1009D000798881420AD2B9680918BA88151A20465E
:1009E0002A46FFF78BFB0020388000E000256019C5
:1009F0003A88B96889187B889A1AFFF77FFB38888C
:100A000079883980081A4719E54D6878022821D17C
:100A1000052F45D320783A2842D13819801E017815
:100A20000D293DD140780A283AD1B9B22046FFF7C6
:100A300097FCA8B33068027812B129788A422FD186
:100A40001A490B68401C791F4908491E32B300221D
:100A5000984725E0042F23D3207810B129788842C5
:100A60001ED1BD1E684621462A46FFF719FDB8B1C2
:100A7000605D611949780902081869460988884249
:100A80000ED10A480368F91E3268501C127812B160
:100A90000022984704E00122984701E0012298478C
:100AA000002001B0F0BDC046D8100020DC100020AE
:100AB00070B50C460546BA4800780D494E6830704E
:100AC000287870706878B070A878F070301D0122B6
:100AD0002146FFF705FCE91CB01D2246FFF70EFB7F
:100AE000A01D80B2FFF732FF70BDC046D2100020BB
:100AF000F0100020F0B581B0002449B30D46064641
:100B0000880280191449884222D800F017FC20205E
:100B100000F0CAFB102000F0C7FB042000F0C4FB6B
:100B200040F20047304600F0C9FB88B96D1EF61947
:100B30002804F7D100F002FC202000F0B5FB1020C3
:100B400000F0B2FB042000F0AFFB00F0B1FB012489
:100B5000204601B0F0BDC04600000108B0B5044613
:100B600000200A4DA9420FD374B19A420CD3012040
:100B700053B104C92270150EE570150CA570120A48
:100B80006270241D5B1EF4D1B0BDC0460038000861
:100B9000F0B581B00024D9B11546CAB10E4607465A
:100BA000A800C0190C49884212D800F0C7FBEFF327
:100BB000108072B63168384600F0D0FB40B96D1E27
:100BC000361D3F1D2804F5D162B600F071FB0124EB
:100BD000204601B0F0BDC046FFFF0008FEE7000060
:100BE00010B56C4800F082FE0124204600F086FA21
:100BF000022000F083FA15480168A143016006480D
:100C00004168064A11601168054A1160006880F366
:100C100008881068804710BD0040000808000020C8
:100C20000C000020704770477047000010B5401E50
:100C3000010E01D0012010BD044C606000F032FABA
:100C40000020A0600721216010BDC04610E000E038
:100C500010B50020094940F2001203E00A52143096
:100C60003C2809D00B5C012BF9D10B189C68002C97
:100C7000F4D0641E9C60F2E710BDC0461000002056
:100C8000B0B51B48014630390A6801252A430A607D
:100C90000A689207FCD502462C3A1368154C1C4092
:100CA00014601368144C1C4014600A68134B134002
:100CB0000B60011F0A680F239A430A60016840F223
:100CC000031291430160290402688A430260E90724
:100CD00002688A4302604168A943416028380024C1
:100CE000046000F0FFFCE806214600F0F1FBB0BD17
:100CF000301002400C00FF08FFFFC277FFFFF2FE3A
:100D000070B5DD4C0121204600F038FD012803D1EB
:100D10000121204600F02EFD204600F021FD002597
:100D20002046294600F0E2FC01262046314600F02C
:100D300083FDB4480570304600F0E0F90148042115
:100D4000016070BD28000048B0B5124C124D20461D
:100D5000294600F0EDFD01281AD12046294600F071
:100D6000DFFD204600F0A2FD534CA588022000F0D4
:100D700089FA281A608080B22188814208D082488E
:100D8000807808490B5C012007490022FFF7CCFD61
:100D9000B0BDC0460038014004070000E01000204C
:100DA000D2100020341C0008C109000870B50A48A0
:100DB00000F032FC0920C40601210025042620464B
:100DC0002A46334600F017FB0322204629463346C5
:100DD00000F032FBA66270BD11050000F0B585B0D1
:100DE0000026002A64D005460868002860D088885C
:100DF00000285DD0886800285AD08889002857D0FC
:100E000014462D4A00231360536093600E680396C6
:100E10002A4E2B4F3B708F6833600493776089882C
:100E2000918003999160308026A0405D194600F0C2
:100E300045FB6E0024A0805B00F0EEFB23A0805BEE
:100E400000F0EAFBA900039121A042580292092078
:100E5000C70601263846314600F09EFA1EA00399C7
:100E6000425803923846314600F096FA0221019129
:100E700038463246029B00F0BEFA384604993246A4
:100E8000029B00F0D9FA384601993246039B00F0E4
:100E9000B2FA384604993246039B00F0CDFAFFF7C8
:100EA00085FF607800F0B0F82846214600F018F879
:100EB000304605B0F0BDC046E0100020F010002024
:100EC000500000201B1C0000110511050E06110723
:100ED0000002000004000000000400000800000000
:100EE00070B50E46284900254D708D700D70F27852
:100EF0004A70012202408A7030780870900023A165
:100F00000C587078800023490958204600F0A6FC50
:100F1000B078401EC1B202292E4605D840B28000EA
:100F20001DA10E581FA10D582046294600F055FD61
:100F30002046314600F027FD00252046294600F0D6
:100F400037FD2046294600F008FD2046294600F0DE
:100F5000F7FC04252046294600F022FD0821204602
:100F600000F033FD204600F0D6FC1149204600F089
:100F7000D7FC2046294600F0FDFC4021204600F029
:100F8000BAFC012070BDC046D210002000380140DC
:100F900000440040141A000800060000000400008D
:100FA0000000000000100000001000000000000021
:100FB000060700000146002049B10A683AB14B68B3
:100FC0002BB103480260886802490860012070471D
:100FD000D8100020DC10002010B50146094801247B
:100FE0000470054804220260204600F045F92046BE
:100FF00000F08CF810BDC046180000480148007889
:101000007047C04650000020F0B585B0064619482C
:1010100000F002FB184C204600F06AFB01AF384696
:1010200000F012FC00257D80144800681449B0FBD4
:10103000F1F0401E388070001249085A0390029562
:101040002046394600F0A0FB10200126314600F072
:1010500035FA2046314600F0EFFB2046314600F0DD
:1010600089FB204600F07CFB2046294600F03EFB31
:1010700005B0F0BD010700000004004000000020A2
:10108000A08601003C1C0008002807D41F21014055
:1010900001228A4040098000014942507047C04601
:1010A00000E100E0FF20000603490A6882430320B4
:1010B000800710180860704720ED00E0002805D474
:1010C0000322034693430C4A9A1806E00F2202407B
:1010D000083A03239A43074BD2188007C00E8901B0
:1010E000C9B28140FF2383401068984308431060D1
:1010F0007047C0461CED00E000E400E014214143CD
:1011000057480A5801239A430A5070471421414313
:1011100053480A58012313430B507047142141438D
:101120004F480A5820239A430A50704714214143DC
:101130004B480A58202313430B50704710B5142214
:1011400042433049521853680124A343536000239B
:1011500053609360D360136180000F22824008685F
:101160001043086010BDC046B0B50C460546FFF7F9
:10117000C5FF142068433A49421823689360A36866
:10118000D360238A5360425843F600739A436368DE
:101190001343E2681A4363691343435042584023A0
:1011A000257E012D01D09A4300E01A434250425857
:1011B0008023657E012D01D09A4300E01A434250FE
:1011C00042581023A47E14B11A434250B0BD9A4332
:1011D0004250B0BD14224243214813588B43135050
:1011E0007047C046142242431D4813580B43135006
:1011F0007047C04680008140024802680A4302608E
:101200007047C0460400024010B50246002008297D
:1012100017D801238B4040F21414234203460ED00A
:1012200090000C4684400848036823405C1EA3419C
:1012300014245443201880680840411E88411840F7
:1012400010BD004010BDC0460000024014214143C3
:1012500003480A5844F200039A430A507047C046B4
:1012600008000240002181760183016041608160B5
:10127000C1600161416170471422424388B2044950
:101280005050704714214143014808587047C046E8
:101290000C00024032B103780B70521E491C401CF6
:1012A000002AF8D100207047234908607047C046E3
:1012B0003848016880220A4302607047F0B581B067
:1012C00005460F200404204600F016F808B101B0CE
:1012D000F0BD304E306802273843306075603068AA
:1012E000402101433160204600F006F83168B943DF
:1012F000316001B0F0BDC04670B5441E0025641ECB
:101300002E466E4100F008F8012801D1002EF6D1DA
:10131000012800D1052070BD07480168C90707D121
:101320000168C90606D400684108022008407047D9
:1013300001207047042070470C2002400448C16817
:10134000090603D503490160034901607047C0469F
:101350000420024023016745AB89EFCDF0B581B091
:101360000C4605460F2006043046FFF7C5FF08B1BE
:1013700001B0F0BD074908680127384308602C60B8
:101380003046FFF7B9FF034A1168B943116001B055
:10139000F0BDC04610200240F0B582B00191016A54
:1013A0000090446A00252E4603E02D1D761C082E71
:1013B0000AD01746F740FF07F7D0019FAF400F2331
:1013C000AB4099433943F0E70825002603E0361D7A
:1013D0006D1C102D0AD01346EB40DB07F7D0019BA4
:1013E000B3400F27B740BC431C43F0E700980162AD
:1013F000446202B0F0BDF0B582B001930568009080
:10140000C0680026374603E0B61C7F1C102F0ED0A4
:10141000019BFB40DB07F7D01346B3400324B440E5
:10142000A04318430B46B340A5431D43ECE7009986
:101430000D60C86002B0F0BDF0B581B0012902D1E5
:101440004168194301E04168994341600090816817
:1014500000240320264603E0A41C761C102E0AD08C
:101460001F46F740FF07F7D01746A7400546A5409F
:10147000A9433943F0E70098816001B0F0BD000056
:101480000B48016889000DD501214A070906036848
:101490000B4303600748006807490140914201D1AE
:1014A000FFF79EFBFFF7FCF8FFF706FAFCE7C046E4
:1014B00024100240004000080000FE2F10B544B286
:1014C0002046FFF7FBFD2046FFF7DEFD10BD0000C4
:1014D000024A0A40024302480260704780FFFF1F31
:1014E00008ED00E0F0B581B00146404B18680C22D1
:1014F00002403F48082A044618D11A689202120F87
:101500000F2A01D0941C00E010241D682D0101D584
:10151000113214461A68D20306D59A6A0F2515406F
:101520006A1CB0FBF2F200E0324A54431D681868AE
:101530001A6805291ED800902D062D0F2EA77F5D55
:101540002546FD409204520F2FA7BE5C2A46F2406A
:101550008E0001A08019874600F00AB800F00CB890
:1015600000F00CB800F03EB800F00FB800F015B86D
:10157000224637E0002235E02A4633E00098400555
:10158000400F385CC5402A462CE0D86AC0051BD401
:10159000D86AC00321D51F4A24E0D86A800721D029
:1015A000D86A03210840012822461BD0D86A084087
:1015B00048F20002022815D0D86A084003280C48D7
:1015C00000D0002001B0F0BD18680004800FD96A77
:1015D000002904D4B2FBF0F204E00D4A02E0401C02
:1015E000B5FBF0F2104601B0F0BDC0460410024059
:1015F00000127A0000093D00000000000000000019
:1016000001020304060708090000000001020304A8
:10161000809FD500003FAB011F21014001228A407D
:1016200080090C4943581343435070471F21014020
:1016300001228A4080090749435893434350704729
:101640001F21014001228A40800902494358134367
:10165000435070470010024070B51D48021F1168CA
:101660000123194311601B4C02211568661EA64216
:1016700002D20D403446F8D01468A40700D4FEE727
:10168000154C25680726B543256025680D43256060
:1016900004680460046804600468046004680F4D12
:1016A0002540056004680E4D254305601B0614683F
:1016B0001C43146013689B01FCD5026803239A4302
:1016C000026002680A43026001680907FCD570BD28
:1016D00004100240FF04000000200240FFFFC2F798
:1016E0000000040880B5FFF7B7FF80BD4162704776
:1016F00010B5174C174988420ADD1749884212DC99
:10170000454988421CD0474988421FD1641D17E0D3
:10171000424988420FD01149884210D0444988423A
:1017200014D1FD340CE04149884206D03E4988423C
:101730000CD1E41D04E0F63402E0A41D00E0F9340D
:101740002046FFF77DFF2046FFF770FF10BDC04623
:101750000B030000FF2B0140FF430140001000403D
:1017600001680122914301607047016801220A4328
:101770000260704702698A4302617047006908404D
:10178000411E88417047000010B50A888262224AD3
:10179000904202D0214B98420BD103687024A3439E
:1017A00003604B8804681C4304608B8804681C43F6
:1017B00004608B68C3621A4B984208DC174B98424E
:1017C0000ED01B4B98420BD0904209D01EE0154A18
:1017D000904205D0144A904202D0144A904215D14A
:1017E000026840F200339A430260CA8803681343D8
:1017F0000360104A82180A23DA41072A06D8012317
:101800009340E122134201D0097B01634169012227
:101810000A43426110BDC046002C01400004004054
:10182000FF3F0140004001400048014000440140AA
:101830000020004000D4FEBFC2688A43C2607047E7
:10184000C2680A43C2607047034900220273026003
:10185000426081607047C046FFFF0000B0B50D4692
:1018600004461F48844204D01E48844205D1022009
:1018700000E00520FFF736FE00E0002021680904A3
:1018800006D469084018B0FBF5F080B2E060B0BD46
:10189000690840004018B0FBF5F00349014000071B
:1018A000400F4018E060B0BDF0FF0000416A014801
:1018B00008407047FF01000010B50949884204D074
:1018C0000849884208D1084C00E0044C2046FFF744
:1018D000B7FE2046FFF7AAFE10BDC0460E0300006B
:1018E000003801400044004011040000016801225A
:1018F000914301607047826840239A438260826806
:101900000A4382607047826880239A4382608268BB
:101910000A4382607047016801220A4302607047EF
:101920001F220A4001219140026A0A430262704765
:101930001F220A4089090958D140012008407047F8
:10194000026801239A430260826840F200239A43AE
:10195000826082680A4382607047026801239A436A
:101960000260826840F200139A43826082680A43F0
:10197000826070471F220A400123934089090A5858
:101980001A430A507047026801239A4302600268B2
:1019900040F200639A43026002680A4302607047A3
:1019A000026804239A43026002680A430260704797
:1019B000026801239A430260426843F200039A439B
:1019C000426042680A4342607047026808239A43B3
:1019D000026002680A4302607047026801239A436A
:1019E0000260026841F200039A43026002680A43FF
:1019F0000260704702E008C8121F08C1002AFAD12D
:101A000070477047002001E001C1121F002AFBD17E
:101A1000704700008025000060090000C01200002F
:101A200080250000004B00000096000000E100004F
:101A300000C2010000C0C101C30302C2C60607C73D
:101A400005C5C404CC0C0DCD0FCFCE0E0ACACB0BEE
:101A5000C90908C8D81819D91BDBDA1A1EDEDF1F1E
:101A6000DD1D1CDC14D4D515D71716D6D21213D30E
:101A700011D1D010F03031F133F3F23236F6F737BE
:101A8000F53534F43CFCFD3DFF3F3EFEFA3A3BFBAE
:101A900039F9F83828E8E929EB2B2AEAEE2E2FEF5E
:101AA0002DEDEC2CE42425E527E7E62622E2E323CE
:101AB000E12120E0A06061A163A3A26266A6A767FE
:101AC000A56564A46CACAD6DAF6F6EAEAA6A6BAB6E
:101AD00069A9A86878B8B979BB7B7ABABE7E7FBF9E
:101AE0007DBDBC7CB47475B577B7B67672B2B3738E
:101AF000B17170B05090915193535292965657973E
:101B0000559594549C5C5D9D5F9F9E5E5A9A9B5B2D
:101B100099595898884849894B8B8A4A4E8E8F4FDD
:101B20008D4D4C8C4484854587474686824243834D
:101B30004181804000C1814001C0804101C080419D
:101B400000C1814001C0804100C1814000C181408D
:101B500001C0804101C0804100C1814000C181407D
:101B600001C0804100C1814001C0804101C080416D
:101B700000C1814001C0804100C1814000C181405D
:101B800001C0804100C1814001C0804101C080414D
:101B900000C1814000C1814001C0804101C080413D
:101BA00000C1814001C0804100C1814000C181402D
:101BB00001C0804101C0804100C1814000C181401D
:101BC00001C0804100C1814001C0804101C080410D
:101BD00000C1814000C1814001C0804101C08041FD
:101BE00000C1814001C0804100C1814000C18140ED
:101BF00001C0804100C1814001C0804101C08041DD
:101C000000C1814001C0804100C1814000C18140CC
:101C100001C0804101C0804100C1814000C18140BC
:101C200001C0804100C1814001C0804101C08041AC
:101C300000C181400410080402010101C800200312
:101C40009001C80064003A00260012005368656ED7
:101C50005A68656E20536F77617920536369656EAA
:101C6000636520616E6420546563686E6F6C6F6796
:101C70007920446576656C6F706D656E7420436F76
:101C80002E2C204C74642E2020202000B01C000834
:101C90000000002008000000F4190008B81C00082B
:101CA0000800002010150000041A000800000000C1
:081CB00000A24A042103030213
:04000005080000CD22
:00000001FF
