:020000040800F2
:10000000F0040020CD000008991600083115000802
:1000100000000000000000000000000000000000E0
:100020000000000000000000000000009D16000815
:1000300000000000000000009B1600089F1600084A
:10004000DF00000800000000DF000008DF000008FB
:10005000DF000008DF000008DF000008DF00000804
:1000600000000000DF000008DF000008DF000008DB
:10007000DF000008DF000008DF00000800000000CB
:10008000DF000008DF000008DF000008DF000008D4
:10009000DF000008DF000008DF000008DF000008C4
:1000A000DF000008DF000008DF000008DF000008B4
:1000B000DF000008DF0000080348854600F04CF927
:1000C0000048004715210008F0040020044880473C
:1000D00004480047FEE7FEE7FEE7FEE7FEE7FEE72F
:1000E00015170008B900000830B50B46014600207E
:1000F0002022012409E00D46D5409D4205D31D462E
:100100009540491B2546954040191546521E002D25
:10011000F1DC30BDD2B201E00270401C491EFBD2BE
:1001200070470022F6E710B513460A460446194602
:10013000FFF7F0FF204610BDF0B51FB488B00B9953
:100140000998002448400999C00F490049080991BD
:10015000C0070B990090490049080B91099908982C
:10016000A64608431CD00B990A98084318D0099852
:1001700001244000420D4800410D09982405000368
:10018000000B204309900B980003000B20430B90B9
:1001900050181C494018002201901446104605E0F2
:1001A000002001460DB0F0BD032801DA034600E04F
:1001B00003239C46C11A0AAE0AE05F0008ADED5B5E
:1001C0004F00F75B7D430027AA187C41491C5B1E4A
:1001D0006145F2DD410004AB5A522104120C0A437E
:1001E000240C401C0828DFDB01980290009970461F
:1001F00001910090059B049A0799069800F05AF81F
:10020000D0E700000DFCFFFF0EB5C217C10F504034
:10021000CA0740180021054B0293019200910A463B
:100220000B4600F047F803B000BD000033040000A7
:1002300070B5CD0F4A0009030123090B1B051943B3
:100240000B4BED070024520D9A4201DA002070BDDD
:10025000074B34339A4203DC9A1A00F00DF802E09F
:100260000449511888402C43F1D0404270BD000031
:10027000FF030000CDFBFFFF10B5202A04DB08467A
:10028000203AD040002110BD0B46D340D04020245E
:10029000A21A91400843194610BD10B5002B08DA88
:1002A0000024401C614192185B411A4301D140086F
:1002B000400010BDF0B51FB482B005460C0003D05D
:1002C000084601F03FFD02E001F03CFD203002460F
:1002D00000902146284600F051F8049B059A0446F8
:1002E0000F4618431143084314D0184610431BD03F
:1002F000009840210A1A18460599FFF7BDFF0546E8
:100300000E46009A0599049800F038F8084305D085
:10031000012004E02046394607B0F0BD0020C11797
:1003200005430E432C43374300990E986305401A4A
:100330007905E40A00220C43FD0A0A3002D50020A8
:100340000146E9E70105101969410C9C0D9D001952
:100350006941FFF7A2FFDFE7064C0125064E05E0E5
:10036000E36807CC2B430C3C98471034B442F7D3D6
:10037000FFF7A6FEE42100080422000810B5202A99
:1003800004DB0146203A9140002010BD914020231B
:100390009C1A0346E3401943904010BD70B50024F9
:1003A00000F066F80125ED030526360703E0641C1E
:1003B000E4B201F0F9FD2946304600F05FFA00286A
:1003C00002D0A02CF3D30FE0A02C0DD2002403E028
:1003D000641CE4B201F0E8FD2946304600F04EFA14
:1003E000002803D0C82C04D3012070BDC82CEFD343
:1003F000FAE7002070BD0121052310B5C9031B07D2
:10040000012804D00022184600F03DFA10BD012258
:10041000F9E7000070B500F0B6F800F0A6F8FFF7B5
:10042000BDFFCC2000F0BBF8BE2000F0B8F800F013
:100430008DF8044600F08AF8072805D9C043E14347
:10044000C0B2CCB2002500E001250002001900B2C4
:10045000FFF7DAFE0022054BFFF76EFEFFF7E8FE1E
:1004600000B2002D01D1404200B270BD0000E43F57
:1004700000B585B00120C00300900020019001204C
:1004800002900220039005206946000700F05CF905
:1004900005B000BD00B585B00120C003009001206B
:1004A000019002900220039005206946000700F0A9
:1004B0004BF905B000BD000000B5114887B0426B94
:1004C00001210A434263406B019108400590C80333
:1004D000009002200390029105206946000700F079
:1004E00033F900F081F8002807D001F065F800F03A
:1004F0003CF8FFF753FF07B000BD1020FBE70000FA
:100500000010024010B5FFF7C5FF0020FFF773FF92
:1005100001F06AFD0120FFF76EFFFFF7A9FF01F070
:1005200083FD01F081FD01210520C903000700F0D2
:10053000A5F9002801D0012400E0002401F014FDF9
:1005400001F012FD01F010FD204610BD70B5002530
:100550000124FFF7D7FFC00169080843641CE4B217
:10056000C5B2082CF5D9284670BD10B5FFF792FF2B
:100570000020FFF740FF01F097FD0120FFF73BFF50
:1005800001F0F2FC10BD10B5FFF7EFFFFFF706FF1B
:10059000CC2000F004F8442000F001F810BD70B544
:1005A0000546FFF777FF0124E807C00F6D08002814
:1005B0000AD00020FFF71FFF01F016FD0120FFF712
:1005C0001AFF01F051FD09E00020FFF714FF01F0D0
:1005D0004BFD0120FFF70FFF01F006FD641CE4B2A4
:1005E000082CE1D970BD704770B54648474A03688A
:1005F000454802211D184648012495420FD8017034
:10060000447081701421C17066218180FF21CD3139
:10061000C1804049018140494181182070BD3F4D52
:100620005D19954210D80170447081702421C17009
:100630008C21818027210901C1803749091D018151
:1006400037494181202070BD364C1D251E190824D4
:1006500096420FD80622027041708470C5706021E6
:100660008180FF219931C1802F4901812F4941812A
:10067000302070BD2E4E9E1996420FD804704170E6
:100680008470C57062218180FF21A531C180264917
:10069000B031018127494181402070BD26495C1855
:1006A0006821944212D809220270032242700A2261
:1006B00082701F22C2708180FF21AF31C1801F492B
:1006C00001811C495A314181482070BD1C4A9A1849
:1006D0001C4B9A4213D80B220270052242700C2246
:1006E00082702222C2708180FF21A831C1800E4910
:1006F000703101810F496C394181A82070BD002003
:1007000070BD000010000020804EB0FE3F4B4C003A
:10071000140000205C170000281F0000803C36FEFB
:1007200098290000801842FD0E140000C21A000033
:1007300080F44DFCC41B000080E2D3FB14150000C4
:10074000003AC1FABF7AF204F0B5002388E0012232
:100750009A409446144022007ED04C68022C01D06E
:10076000122C0CD1DC08A40027183C6A5D07ED0EA2
:100770000F26AE40B4430E69AE4026433E62056884
:100780005E000324B4400F79A543BF07BF0FB740F5
:100790002F4307604D68012D05D0022D03D0112D88
:1007A00001D0122D0ED18568CF68A543B7402F43E5
:1007B000876047686546AF430D79ED06ED0F9D40B4
:1007C0003D434560C568A5438C68B4402C43C46074
:1007D0004C68E40043D59D08244CAD002F193C6EB5
:1007E0009D07EE0E0F25B540AC4305252D07A84209
:1007F00001D100250FE01E4DA84201D101250AE0DC
:100800001C4DA84201D1022505E01B4DA84201D193
:10081000032500E00525B5402543144C3D66134DE6
:1008200080352E684F689643FF0300D516432E602F
:100830006E684F689643BF0300D516436E60256807
:100840004E689543F60200D51543256065684E68ED
:100850009543B60202D500E001E0154365605B1CDC
:100860000A681446DA4000D071E7F0BD0018024073
:100870000004005000080050000C005000690840BF
:1008800000D001207047002A01D081617047816249
:100890007047000001488068704700000400002095
:1008A000024881684268891881607047040000200E
:1008B00010B50848002401688215114301602046E4
:1008C00000F00AF8002801D0012401E000F028F827
:1008D000204610BD0020024070B50F4E0024716804
:1008E0000546002915D07D20C000FFF7FDFB01461D
:1008F0000A480068FFF7F8FB00F0F8FB002808D171
:10090000042D06D200222946401E00F01FF8356053
:1009100000E00124204670BD0400002010000020EB
:1009200008B50948016801221143016000681040C0
:10093000009005484038C26B01040A43C263C06B93
:100940000840009008BD00004010024010B501F0C2
:1009500011FA10BD10B50F4C2168032252029143C9
:1009600001432160C11FFF39FA390ED10A4806211F
:10097000006848430949FFF7B7FB401C02E0002824
:1009800005D0401E61694905F9D4002010BD03203F
:1009900010BD0000007000401000002040420F0019
:1009A000F8B5044600680026524D800358D55148DA
:1009B00000274038C06BC00009D44E484038C26B95
:1009C00001040A43C263C06B0840012700904A48F3
:1009D0000168821511430160FFF75CFF009005E09C
:1009E000FFF758FF0099401A022825D842480068AE
:1009F000C005F5D5E8690321090208400FD0A169B7
:100A000081420CD0E86903210902EA698843012187
:100A100009040A43EA61EA698A43EA61E861C007B6
:100A20000FD0FFF737FF009008E0FFF733FF009982
:100A3000411A3248814201D9032609E0E86980075A
:100A4000F3D5E869032109028843A1690843E861F5
:100A5000002F05D027484038C16B02049143C16381
:100A60002078C00705D06869616880088000084365
:100A700068612078800705D568690C218843A168E2
:100A8000084368612078400606D568690321090398
:100A90008843E168084368612088400411D568698B
:100AA00061698000800808436861012160698907E5
:100AB000884206D10F484038C16801221204114310
:100AC000C1602088000512D5686903218903884325
:100AD000216908436861012120698903884206D1A0
:100AE00004484038C168012212041143C1603046F5
:100AF000F8BD000040100240007000408813000064
:100B0000F8B50F46060043D04D4D28684007400F0A
:100B1000B84213D22868C008C00038432860FFF7E5
:100B2000B9FE044605E0FFF7B5FE011B45488142CA
:100B300061D828684007400FB842F4D13068424C71
:100B400081070DD5400704D5A06807210903084394
:100B5000A060A0680F2109028843B1680843A06023
:100B60003078C00732D0706801280AD002280BD034
:100B700000280FD03449403103280ED0C9698907B5
:100B800004E02168890301E021688901002906DB6E
:100B90000120F8BD21684905F8E7096AEFE7A16877
:100BA000C908C9000143A160FFF774FE009006E088
:100BB000FFF770FE0099411A224881421BD8A068B5
:100BC000382108407168C9008842F1D1286840077F
:100BD000400FB84217D91A480168C908C9003943FB
:100BE0000160FFF757FE054607E0FFF753FE411B84
:100BF0001448814201D90320F8BD1148006840071C
:100C0000400FB842F1D13078400706D5A0680721DF
:100C100009038843F1680843A06000F031F8A16837
:100C20003C2289091140094A515CC906C90EC840D5
:100C30000749086007480068FFF74EFEF8BD00004E
:100C400000200240881300000010024084210008A8
:100C50001000002004000020064807490068896849
:100C6000064A4904490F8900515CC906C90EC840AB
:100C7000704700001000002000100240C42100084E
:100C800010B5204CA068204A8006400F16D0A068FE
:100C90008006410F501001290FD0A1688906490F25
:100CA000022912D0A0688006400F042823D0A06833
:100CB0008006400F032821D0002010BD20680121AC
:100CC0008004400F8140104612E0E1688B07E16824
:100CD0009B0F4906490F491C032B00D01046FFF714
:100CE00003FAE1684904490E4843E168490F491C89
:100CF000FFF7FAF910BD0120C00310BD7D200002EE
:100D000010BD0000001002400024F400F8B50400FB
:100D10007ED020783827C007EB4D002846D0A86841
:100D2000E96838408907890F102802D008280BD0BD
:100D300001E0032908D001206268000482420AD140
:100D400029680143296015E0286880032ED5606872
:100D50000028DDD02AE0052301211B0489049A42E2
:100D60002A6802D10A432A60EAE782432A60286897
:100D700088432860606800280CD0FFF78BFD06468A
:100D800004E0FFF787FD801B642873D82868800380
:100D9000F7D50BE0FFF77EFD064604E0FFF77AFD8E
:100DA000801B6428F1D828688003F7D42078800756
:100DB00069D5A868E96838408A070721920FC902F7
:100DC000102802D0002813D001E0022A10D0E068D9
:100DD000002846D02868884321690843286028688D
:100DE000FF21013108432860FFF754FD06462CE03F
:100DF0002A68520502D5E268002A89D06A687F23F2
:100E00001B029A4363691B021A436A60002800E0D0
:100E10008DE00ED12868884321690843286028683E
:100E200001218004400F8140A848FFF75DF9A849DF
:100E30000860A8480068FFF74FFD002877D122E03E
:100E4000FFF728FD801B02289FD828684005F7D5AA
:100E500068687F2109028843616909020843686064
:100E600011E02968FF20013081432960FFF712FD5E
:100E7000064605E098E0FFF70DFD801B022884D8A8
:100E800028684005F7D42078934E00072ED5A8682F
:100E90008006400F03280AD0A0690028306A16D0C7
:100EA000012108433062FFF7F5FC07460BE0306A8A
:100EB00080071BD5A06900289FD017E0FFF7EAFC48
:100EC000C01B022870D8306A8007F7D50EE04008B2
:100ED00040003062FFF7DEFC074604E0FFF7DAFC73
:100EE000C01B022860D8306A8007F7D420784007FA
:100EF0006CD5A86800278006400F042818D0E86B3E
:100F0000C00008D4E96B012000070143E963E96BE5
:100F100001400127009171480168C90519D4016891
:100F2000821511430160FFF7B5FC00900DE083E0EE
:100F3000F06980074AD5A06800287DD046E0FFF719
:100F4000A9FC0099401A02282ED864480068C00500
:100F5000F5D5A168012910D004200529F16911D027
:100F600049084900F161F1698143F161A0680028F5
:100F700016D0FFF78FFC00900EE0F06901210843C6
:100F8000F061F3E70143F161F7E7FFF783FC0099B4
:100F9000411A534881426DD8F0698007F5D50EE0BB
:100FA000FFF778FC009007E064E0FFF773FC00991E
:100FB000411A4B4881425DD8F0698007F5D4002F73
:100FC00004D0E96B012000078143E963E069002850
:100FD00077D0A9688906490F022951D00126360623
:100FE000022828680DD0B0432860E8688008800097
:100FF000E860E8683B490840E860FFF74BFC0446BE
:101000003AE0B0432860FFF745FC074604E0FFF7ED
:1010100041FCC01B02282DD828688001F7D4616AE2
:10102000206AA26A0843E16A120211430843216B55
:101030000843E9682C4A00E041E011400843E860B9
:10104000286830432860E868012109070843E86000
:10105000FFF720FC044604E0FFF71CFC001B0228FD
:1010600008D828688001F7D52BE0FFF713FC001B98
:10107000022801D90320F8BD28688001F5D420E0BA
:101080000128F8D0E868226A8107890F914216D1B9
:101090007021626A0140914211D17F21A26A090246
:1010A0000140120291420AD11F214904E26A014023
:1010B000914204D1400F216B4007884201D00120AA
:1010C000F8BD0020F8BD0000001002400024F4002C
:1010D000100000200400002040100240007000407A
:1010E00088130000FFFFFEEF8C80C11F094910B577
:1010F000401E884201D9012010BD074C60610321C8
:10110000081F00F037FE0020A061072020610020AA
:1011100010BD0000FFFFFF0000E000E0F0B5034657
:1011200020331A7F012A1ED001271F7702225A7707
:1011300004686268A5680D4EB44205D116460F22B8
:10114000120596434A6832437026B2430E68896896
:1011500016438022954329436660006881605F776B
:1011600000201877F0BD0220F0BD0000002C0140E7
:1011700070B5040005D025462035687F002802D0D0
:1011800006E0012070BD00202877204600F00AF814
:1011900002206877211D206800F0C4FA01206877DA
:1011A000002070BD08B500680549884207D1054890
:1011B000C26B02210A43C263C06B0840009008BDA5
:1011C000000400400010024070B50546044620357A
:1011D000287F012817D001262E7702206877226801
:1011E00090682E4B1840FF231B02984390600A68BA
:1011F000502A32D00EDC202A4CD006DC002A49D0FE
:10120000102A3BD146E0022070BD302A42D0402A4D
:1012100034D137E0602A28D0702A12D00120000390
:10122000121A2BD0824229D1CB684A68896820687B
:1012300000F0BCFA206881680122920311438160AA
:101240001CE0CB684A688968206800F0AFFA216822
:10125000886877221043886010E0CA68496820686F
:1012600000F0BAFA5021206806E0CA684968206890
:1012700000F0C3FA6021206800F0A4FA6E77002025
:10128000287770BDCA684968206800F0A5FA402137
:101290002068F1E711462068EEE7000088FFCEFFE6
:1012A00030B5014660310A7F012A18D001220A7741
:1012B0002423024680321446136003681A681D68AE
:1012C0006D086D001D6001235B079A430023436690
:1012D00000680260202020600B77184630BD022095
:1012E00030BDF8B5054604466035287F01281DD07D
:1012F000012028772422204680300746026020689B
:10130000066802685208520002602068826807235B
:101310005B069A430A438260204600F081FA206807
:1013200006602020386000202877F8BD0220F8BD34
:10133000F8B5054604466035287F01281CD00120F9
:1013400028772422204680300746026020680668FD
:10135000026852085200026020688268D200D208F7
:101360000A438260204600F05BFA20680660202075
:10137000386000202877F8BD0220F8BD70B5040061
:1013800006D02046803005460068002802D007E0DD
:10139000012070BD00217C200155204600F026F878
:1013A000242028602068016849084900016020461F
:1013B00000F0FEFA0128ECD0A06A002802D02046F6
:1013C00000F05EFA206841680922D2029143416030
:1013D000206881682A229143816020680168012287
:1013E00011430160204600F0B1FA70BD10B586B01F
:1013F000044614216846FEF794FE1349206888428B
:101400001FD112480268012189030A430260006863
:10141000084005900D484038426B01210A43426361
:10142000406B049108400590032040020090022088
:101430000190002002900390052069460007FFF705
:1014400083F906B010BD0000003801404010024092
:10145000FFB5074604468037386885B00D4620281A
:1014600064D1002D0CD00798002809D00120A16874
:101470000003814207D12069002804D1E80702D087
:10148000012009B0F0BD204660300290007F0128A5
:101490004CD00298012101770020B86021203860EB
:1014A000FFF7F8F90190264640360798B082079872
:1014B000F0820120A1680003814202D12069002846
:1014C00002D00395002515E00020039012E00022D1
:1014D0008021204600F0F2FB002818D10398002854
:1014E00017D02168007888620398401C0390F08A26
:1014F000401EF082F08A019B002808980090E6D1F7
:1015000000224021204600F0D9FB002808D003200B
:10151000B7E728882168C005C00D8862AD1CE6E7E2
:1015200020203860029900200877AAE70220A8E767
:10153000FEE70000F0B587B014216846FEF7F1FD24
:101540001B48426B04210A434263426B0A400592E6
:10155000416B012529434163416B29400591426B51
:1015600002210A434263406B05260840CC0236073D
:101570000590002221463046FFF785F90D4F0022E5
:1015800010213846FFF77FF900940024019502945A
:10159000694630460394FFF7D7F810200090029474
:1015A0006946019503943846FFF7CEF807B0F0BDC1
:1015B000001002400004005010B588B000240094D0
:1015C00001941848029403940494059414490694D1
:1015D0000160154909788460416014490461C16063
:1015E00080218161FFF7C4FD002801D0FEF7FBFFD9
:1015F00001200003009069460A48FFF7E5FD002836
:1016000001D0FEF7F0FF049404A906480694FFF702
:1016100085FD002801D0FEF7E6FF08B010BD0000F0
:1016200000040040B000002014000020FFFF000074
:1016300010B5184816490160E121490241600021B6
:101640008160C16001618161C16101620C224162FE
:1016500042618162FFF792FE002801D0FEF7C3FFCE
:1016600000210C48FFF764FE002801D0FEF7BBFF05
:1016700000210848FFF735FE002801D0FEF7B3FF30
:101680000448FFF70DFE002801D0FEF7ACFF10BDA7
:10169000003801402400002070477047704710B5A3
:1016A000FFF7FEF810BD30B599B034216846FEF75B
:1016B00038FD00240D940E940F941C2111A8109451
:1016C000FEF72FFD01204002FFF744F90225E80153
:1016D000039000954020059008200A9080030B900D
:1016E0000795000304940C90089509946846FFF749
:1016F0000DFB07200D900F9402210E9510940DA85C
:10170000FFF7FEF901201190129411A8FFF748F994
:1017100019B030BD01200249C00688607047000042
:1017200000ED00E0F0B502681A4B1B4C984201D066
:10173000A04203D17025AA434D682A43174D184E85
:10174000184F98420AD0A04208D0174CA04205D0AA
:10175000A84203D0B04201D0B84205D114460322BA
:1017600012029443CA6822438024A2434C69224354
:1017700002608A68C2620A688262984205D0A84202
:1017800003D0B04201D0B84201D1096901630121FF
:101790004161F0BD002C01400004004000400140C8
:1017A00000440140004801400020004030B58468FA
:1017B000FF252D021B021343AC430B4323438360DD
:1017C00030BD00008268034B1A400A4307210A43D8
:1017D000826070478FFFCFFF30B5036A046A6408E8
:1017E000640004628469F025AC43120122430A2498
:1017F000A3430B438261036230BD30B5036A1024FA
:10180000A34303628469036A0F252D031203AC43CB
:101810002243A024A343090119438261016230BD20
:10182000F0B513A106C985B00192009112A206CAB3
:10183000039202910446416E4034002915D000689D
:101840008168806809014D0F400F02AE315C6F4620
:10185000385CC000FEF748FC6085785D715DC000B3
:10186000FEF742FC208505B0F0BD01206085F9E758
:10187000010101030701000008040204080101013D
:1018800010B5018DC90707D001684A6801235B04C0
:101890009A43C36A1A434A60018D890707D50168D4
:1018A0004A6801231B049A43036B1A434A60018D63
:1018B000490707D501684A6801239B049A43436B93
:1018C0001A434A60018D090707D501684A68012358
:1018D000DB039A43836B1A434A60018DC90607D51F
:1018E0000268916801231B039943C36B19439160FC
:1018F000018D890607D501688A6801235B039A4335
:10190000036C1A438A60018D490612D503685A6830
:1019100001210905446C8A4322435A60426C8A4281
:1019200007D10268516803235B059943836C19430F
:101930005160018D090607D501684A680123DB045F
:10194000C06C9A4302434A6010BD0000FEB50546D4
:10195000002680350446AE60FEF79CFF01902068AB
:101960000068124F000709D50121009700224905A0
:101970002046019B00F0A2F900280DD120680068E4
:1019800040070BD501210097002289052046019BC5
:1019900000F094F9002801D00320FEBD202028602B
:1019A0006860603426770020FEBD0000FFFFFF0165
:1019B000F8B5044680682169E26908436169002638
:1019C00011430843616E014320680268B24B1A401C
:1019D0000A43026021684868032212039043E268C8
:1019E00010434860A169206A226808439168AB4BA4
:1019F0001940014391602068C16A626A09090901BE
:101A00001143C162A64A2068A64990420CD1486998
:101A10008007800F23D0012804D002281FD003287C
:101A20001CD111E004201AE09F4A90420ED148696F
:101A30000C21084013D0042811D0082802D00C280B
:101A40000CD101E002200AE0082008E09749884212
:101A500002D09749884201D1002000E010200122E5
:101A6000D203E169D511934B934F91426FD1002876
:101A700006D0022835D004287AD0082869D17AE027
:101A8000FFF7EAF876E0012815D0022815D00328E0
:101A900015D0042815D0052815D0062815D00728FC
:101AA00015D0082815D0092815D00A2815D00B28DC
:101AB00014D0012512E0022510E004250EE00625D1
:101AC0000CE008250AE00A2508E00C2506E01025B0
:101AD00004E0202502E0402500E08025294610464C
:101AE0001BE0606A002815D001282AD002282AD0DD
:101AF00003282AD004282DD005282DD006282DD043
:101B000007282DD008282DD009282DD00A282DD01F
:101B10000B2800D0012529461846FEF7E5FA616832
:101B200040004A088018FEF7DFFA80B201461039FB
:101B3000B9420ED86049491C01400007400F0843D4
:101B40007FE00225E7E70425E5E70625E3E716E061
:101B50000EE08CE00825DEE70A25DCE70C25DAE755
:101B60001025D8E72025D6E74025D4E78025D2E701
:101B7000FFF786F80246606A00289AD083E70028BB
:101B800006D0022835D0042874D0082879D174E012
:101B9000FFF762F870E0012815D0022815D003285D
:101BA00015D0042815D0052815D0062815D00728EB
:101BB00015D0082815D0092815D00A2815D00B28CB
:101BC00014D0012512E0022510E004250EE00625C0
:101BD0000CE008250AE00A2508E00C2506E010259F
:101BE00004E0202502E0402500E08025294610463B
:101BF0001BE0606A002815D0012825D0022825D0D6
:101C0000032825D0042825D0052825D0062825D04E
:101C1000072825D0082825D0092825D00A2827D02C
:101C20000B2800D0012529461846FEF75DFA6168A9
:101C30004A088018FEF758FA80B201461039B942B6
:101C40001FD82168C8601DE00225ECE70425EAE7FB
:101C50000625E8E70825E6E70A25E4E70C25E2E79C
:101C60001025E0E72025DEE74025DCE702E008E07C
:101C70008025D8E7FFF704F80246606A0028A0D064
:101C800089E7012620460121403041850185002059
:101C9000E06620673046F8BDF369FFCFFFF4FF111F
:101CA000003801404010024000440040004800401D
:101CB000004C00400024F400EFFF0000FFB581B0AD
:101CC00017460E4604460A9D09E0681C07D0FEF739
:101CD000E1FD0499401AA8420CD8002D0AD02068D2
:101CE000C169304688431AD00020B842EDD00020A8
:101CF00005B0F0BD20680168FF22A1329143016068
:101D00002068816849084900816020212046803090
:101D1000016041600020603420770320E8E7012063
:101D2000E3E700000FB410B503A9044B044A02987E
:101D300000F052F810BC08BC04B01847F9200008A5
:101D4000200000202021020C01D010211046020AA0
:101D500001D010460839020901D01046091F820837
:101D600001D01046891E420801D0881E7047081A0B
:101D7000704700008307FF22DB0E9A408907090E97
:101D80009940002808DB830809489B001B18186845
:101D900090430843186070470007000F0838830815
:101DA00004489B001B18D86990430843D8617047CA
:101DB00000E400E000ED00E002E008C8121F08C1E6
:101DC000002AFAD170477047002001E001C1121FBC
:101DD000002AFBD170470000FFB58DB004460025F6
:101DE00006E025280AD0109A0F999047641C6D1CB4
:101DF00020780028F5D1284611B0F0BD0027012138
:101E0000484A009700E00743641C23780846203BBB
:101E100098401042F7D120782E2817D1042007438C
:101E20006078641C2A280CD10E98641C02C80091AA
:101E30000E900BE000990A22514330394018641C7F
:101E400000902078014630390929F3D920780028FC
:101E5000D1D0642808D0692806D075281ED0109AE1
:101E60000F9990476D1C5BE00A200E99019001C903
:101E70000E91002802DA40422D2102E0390504D5F6
:101E80002B216A461172012103E0F90704D02021B9
:101E9000F7E70BAE0B910DE00021FAE70A200E994F
:101EA000019001C90E91F7E70199FEF71DF9303154
:101EB000761E31700028F7D103A8801B20300190D6
:101EC000780701D5009801E001200090019988422F
:101ED00001DD401A00E000200027009006E002A883
:101EE000109AC05D0F9990476D1C7F1C0B9887421C
:101EF000F5DB04E0109A30200F9990476D1C009993
:101F0000481E00900029F5DC05E03078109A761C18
:101F10000F9990476D1C0199481E01900029F4DC2F
:101F2000641C65E7092801000B480C494089081A20
:101F30000B490A6850620B48026801231A43026089
:101F4000064A0968521E4B6A9342FCD3016849084D
:101F5000490001607047000014000020FFEF0000FE
:101F6000B0000020000400400B480C498088081A8B
:101F70000B490A6850620B48026801231A43026049
:101F8000064A0968521E4B6A9342FCD3016849080D
:101F9000490001607047000014000020FFEF0000BE
:101FA000B0000020000400400B480C494078081A9B
:101FB0000B490A6850620B48026801231A43026009
:101FC000064A0968521E4B6A9342FCD301684908CD
:101FD000490001607047000014000020FFEF00007E
:101FE000B0000020000400400B480C498078081A1B
:101FF0000B490A6850620B48026801231A430260C9
:10200000064A0968521E4B6A9342FCD3016849088C
:10201000490001607047000014000020FFEF00003D
:10202000B0000020000400400B480C49C078081A9A
:102030000B490A6850620B48026801231A43026088
:10204000064A0968521E4B6A9342FCD3016849084C
:10205000490001607047000014000020FFEF0000FD
:10206000B0000020000400400B480C49C088081A4A
:102070000B490A6850620B48026801231A43026048
:10208000064A0968521E4B6A9342FCD3016849080C
:10209000490001607047000014000020FFEF0000BD
:1020A000B0000020000400400B480C490089081AC9
:1020B0000B490A6850620B48026801231A43026008
:1020C000064A0968521E4B6A9342FCD301684908CC
:1020D000490001607047000014000020FFEF00007D
:1020E000B00000200004004010B5044601E0FFF7F6
:1020F0001BFF641EFBD210BD13B5044B01226946C1
:102100000348FFF7A5F900981CBD0000FFFF000081
:1021100024000020FEF7CCFBFFF7C5FAFFF70AFA10
:10212000FFF786FAFEF7C8F90E4C014620800EA094
:10213000FFF7F8FD20881028FDD00028FDD1FF25ED
:10214000F535FEF767F980B220800A21FDF7CCFF54
:102150000A46014609A0FFF7E5FD2846FFF7C4FF40
:10216000EFE7000000000020445331384232305F76
:10217000496E69743D25640A0000000025642E251F
:10218000640A0000000000000000000000000000E1
:10219000000000000000000000000000000000003F
:1021A0000000000001000000020000000300000029
:1021B0000400000006000000070000000800000006
:1021C0000900000000000000000000000000000006
:1021D00000000000010000000200000003000000F9
:1021E0000400000004220008000000202400000079
:1021F000B81D00082822000824000020CC0400009C
:10220000C81D0008000000000400000001000000DC
:10221000000000000024F40002010224900070027B
:082220002C1F982900000000AA
:04000005080000B936
:00000001FF
