:020000040800F2
:10400000701C0020E1400008F9630008754F0008AB
:1040100000000000000000000000000000000000A0
:10402000000000000000000000000000CB69000854
:104030000000000000000000FB630008FD690008AC
:10404000F3400008F3400008F3400008F340000884
:10405000F3400008F3400008F3400008F340000874
:1040600000000000F3400008F3400008F34000089F
:10407000F3400008F3400008C96F0008000000008A
:10408000F3400008F340000800000000F34000087F
:1040900081700008B5700008F3400008F340000884
:1040A000F3400008F3400008F3400008A571000841
:1040B000F3400008000000000000000000000000C5
:1040C000F340000800000000F34000080348854664
:1040D00000F07AFB00480047817A0008701C00203D
:1040E0000448804704480047FEE7FEE7FEE7FEE796
:1040F000FEE7FEE7056A0008CD400008D2B201E005
:104100000270401C491EFBD270470022F6E710B532
:1041100013460A4604461946FFF7F0FF204610BD35
:10412000F8B502464A40D40F42004B0052085B08E3
:104130009A4202D20246084611464A0023D0C30DD5
:104140004A00DDB2120EAD1A202D35DA49020126E1
:10415000490AF6058A19002C00D0524220214F1B33
:104160001146B9402A411018C20D9A4221D0002CA4
:1041700017D0012D08DCDA05801AD20F8019D2077A
:10418000DBB200F021F9F8BDDA05801A0123400006
:104190001B06C01880185A428018CA0F10434900E5
:1041A00007E04908C2071143DA05801A8019400860
:1041B000801800F001F9F8BD61000122511A001BBE
:1041C000F7E70122D2075140AAE70122D207504067
:1041D000A6E7024670B54A40D30FDB0740002DD05A
:1041E0004A002AD0010E140E000212020919400AD8
:1041F000520A8418E50104465443000A120A2E04A8
:104200005043A4194219200CC543AA18120C0125C9
:10421000AD03521C521912047F39240400D0521CE1
:10422000104301D44000491EC2B20C06C009201838
:10423000401C4008802A02D003E0002070BD4008E6
:104240004000002900DA0020184370BD70B5024616
:104250004A40D50F40004A00ED07400852080028A8
:1042600014D0002A12D0C40DD30D41020120C00584
:104270005202490A520AE41A091812187D3491426E
:1042800001D3641C00E04900002C01DA002070BD5D
:104290000023914201D3891A0343400849000028B2
:1042A000F7D100290AD0914202D10121C90705E0C6
:1042B000914201D2012101E00121C943E005C0186A
:1042C000401900F079F870BD0122D207002800DB08
:1042D000101A002900DB511A814201D801207047D1
:1042E00000207047C217C10F504010B54018CA07D0
:1042F0009623002100F068F810BDC20F4100400273
:104300000123400ADB05D207090EC0187F2901DA14
:1043100000207047962903DC9623591AC84001E013
:1043200096398840002AF4D04042704730B50B4699
:10433000014600202022012409E00D46D5409D427F
:1043400005D31D469540491B254695404019154605
:10435000521E002DF1DC30BDF0B51FB40646002022
:1043600082B005464024019100901BE0019922464D
:104370000F46304600F04AFA049A059B801A99418C
:1043800010D310461946224600F030FA361A8F41F3
:104390000197224601200021009F00F027FA3818DB
:1043A0004D4100902046641E0028DFDC019B0098F0
:1043B0002946324607B0F0BD002904DA401C490006
:1043C00001D140084000704770B40024050C05D1AD
:1043D0001024000402D1002921D01124050E01D19E
:1043E00000020834050F01D10001241D850F01D101
:1043F0008000A41C002801DB4000641C002908D0B8
:1044000020252E1B0D46F540A14000D00121294357
:10441000084301061B1B000ADB1D02D5002070BCEF
:104420007047DB05181880180029F8DA401C49008D
:10443000F5D170BC4008400070470000F0B5074659
:104440000846584087B0C00F049048000E465900F7
:1044500040084908BC1A884105D2384631461E46F4
:1044600017460B4602465800400810434CD0300D0A
:10447000039040055900400D490D0590401A0290E7
:10448000402872DA18030121000B09050843019046
:1044900004980092002805D00199524200208841DA
:1044A00000920190029840210A1A0199009800F0A8
:1044B0009DF905460C466B4607CB00F0B8F9C019CC
:1044C0007141039A0E0D0023D71756401A467A40C1
:1044D000164344D0049A002A2DD0029A012A039A46
:1044E00015DC1205C01A914101263605001C7141E8
:1044F000D20F059ED2070093019202962A462346C8
:1045000000F0B5F907B0F0BD38463146FAE71605B8
:10451000224A0F46B218C01AB74101210905001CF2
:104520004F4100187F41114618187941E20F10439E
:104530006D19644113E0E2076D0815436408C20772
:104540001443039A01261205C01A91413605001C36
:104550007141CE07400830434908C01851412A46EE
:10456000234600F077F9CDE7FFE7049801224000E9
:10457000C117121A00238B4104983146C417381A08
:10458000A141EEE730B40124E407634030BC55E7B5
:1045900030B40124E407614030BC4FE70000E0FF85
:1045A000F0B51FB488B00B990998002448400999C8
:1045B000C00F490049080991C0070B9900904900B4
:1045C00049080B9109990898A64608431CD00B99F5
:1045D0000A98084318D0099801244000420D480069
:1045E000410D099824050003000B204309900B9806
:1045F0000003000B20430B9050181C494018002268
:1046000001901446104605E0002001460DB0F0BDB3
:10461000032801DA034600E003239C46C11A0AAED0
:104620000AE05F0008ADED5B4F00F75B7D430027BC
:10463000AA187C41491C5B1E6145F2DD410004ABB8
:104640005A522104120C0A43240C401C0828DFDBB8
:10465000019802900099704601910090059B049A80
:104660000799069800F003F9D0E700000DFCFFFF62
:10467000F0B50C465C4085B0E40FE40703944C00B1
:1046800000266408590094464908024602962243CF
:1046900021D062460A431ED06200570D4A000E0325
:1046A0002303550D012402462C492405781B1B0BBE
:1046B000360B401823432643614600901C46501A8F
:1046C000B44103D30098401C009002E09218009877
:1046D0005B41002803DA0020014605B0F0BD002050
:1046E000012109050746864611E064461D46141B54
:1046F000B54106D36546521BB341744607430C438C
:10470000A646CD0740084908284392185B41054654
:104710000D43EAD11046184313D060461946504065
:104720007140084306D06046101AB34106D20122F8
:10473000002306E000220123DB0702E00122D2432E
:104740005310009874460105381C6141029C039D7A
:104750000019694100F07EF8BFE70000FD0300008A
:104760004A0009030123090B1B0519430A4B10B525
:10477000520D9A4202DA0020014610BD064B343336
:104780009A4203DC9A1A00F041F810BD034BD2188C
:1047900000F02CF810BD0000FF030000CDFBFFFF70
:1047A00010B5002904DB0124E40740428C41214676
:1047B000002B04DB1C460123DB075242A341994234
:1047C00000D1904210BD0000064C0125064E05E0C8
:1047D000E36807CC2B430C3C98471034B442F7D322
:1047E000FFF778FC589100087891000810B5202A4E
:1047F00004DB0146203A9140002010BD9140202367
:104800009C1A0346E3401943904010BD10B5202A7E
:1048100004DB0846203AD040002110BD0B46D340AF
:10482000D0402024A21A91400843194610BD10B56B
:10483000202A06DBCB170846203A1041C1170B434C
:1048400006E00B461341D0402024A21A91400843B1
:10485000194610BD10B5002B08DA0024401C614138
:1048600092185B411A4301D14008400010BDF0B5D9
:104870001FB482B005460C0003D0084603F0E8FFE1
:1048800002E003F0E5FF2030024600902146284672
:10489000FFF7ACFF049B059A04460F4618431143EB
:1048A000084314D0184610431BD0009840210A1A20
:1048B00018460599FFF7AAFF05460E46009A059986
:1048C0000498FFF793FF084305D0012004E0204639
:1048D000394607B0F0BD0020C11705430E432C43F5
:1048E000374300990E986305401A7905E40A0022BF
:1048F0000C43FD0A0A3002D500200146E9E7010514
:10490000101969410C9C0D9D00196941FFF7A2FF28
:10491000DFE7000080B582B040F6001003F0E4FA53
:10492000FFE740F6001003F0F1FA012801D0FFE79D
:10493000F7E70448062102F0F7FE019002F06EFF4F
:1049400002B080BDC409000081B00090009840F220
:10495000AC3141430091FFE70098411E00910028CF
:1049600001D0FFE7F8E701B0704781B00090FFE7A2
:104970000098411E0091002801D0FFE7F8E701B040
:10498000704781B000900098052141430091FFE7F6
:104990000098411E0091002801D0FFE7F8E701B020
:1049A000704781B00090009800010090FFE70098E8
:1049B000411E0091002801D0FFE7F8E701B07047E1
:1049C00081B00090009840F6804141430091FFE79C
:1049D0000098411E0091002801D0FFE7F8E701B0E0
:1049E0007047000084B0014603AA108002A800228C
:1049F0000280FFE702A8008803A9098888421ADA22
:104A0000FFE701A800210180FFE701A800880B490A
:104A100088420ADCFFE70098401C69460870FFE7FF
:104A20000198401C01A90880EFE7FFE70298401CAD
:104A300002A90880DEE704B07047C04618090000EC
:104A400082B001900198007869460870087802B039
:104A50007047000080B58EB013460C900B910AA8E9
:104A60000280424907910021059104AA11800C9906
:104A70003F4A114009910C993E4A114002AA118007
:104A8000029940F20042511A03AA1180008811884D
:104A9000884204DAFFE70A9803A90880FFE709982B
:104AA000079940F2004202F029FD00200890FFE73C
:104AB000089803A9098888420DD2FFE70B98089946
:104AC000405C079A02AB1B8859185054FFE70898BE
:104AD000401C0890ECE702F0CDFD3C2002F036FDD2
:104AE0000C982549401802F03FFD00210891FFE78E
:104AF0000898800A00280FD1FFE709980899401804
:104B00001D4A801803229143184A515802F0C6FDED
:104B10000899091D0891EBE702F020FD0C98007838
:104B20000B990978884204D0FFE70DA80021017095
:104B300017E004A8008800280FD0FFE705980B991C
:104B4000069A891804AA138801921A46FFF782FF71
:104B500000210591019A1180FFE70DA80121017044
:104B6000FFE70DA800780EB080BDC0463C000020D5
:104B700000FCFFFFFF0300000030000882B0014688
:104B800001AA107010780328009035D80098810091
:104B900001A251188F46C04600F006B800F00EB8CA
:104BA00000F016B800F01EB8154800210170154835
:104BB0000921017014480A2101701EE010480121EA
:104BC00001701048032101700F480421017014E0A6
:104BD0000B48012101700B48052101700A480C2186
:104BE00001700AE006480121017006480D2101709C
:104BF00005480E21017000E0FFE702B07047C04693
:104C000066180020671800206818002010B582B0D0
:104C100001A800210170FFE701A80078002800DD4D
:104C2000C6E001A800784000FC490A18085A91889B
:104C3000884239DDFFE701A800788000F7490818AD
:104C4000807FC007002822D1FFE7C94801684A1CBD
:104C5000026001A800784000F04A10188089401EC8
:104C6000814213D3FFE7C2480021016001A8017807
:104C7000EA4A1C3289005358012424042343535028
:104C800000788000115821401150FFE70BE0B84830
:104C90000021016001A800788000E049081801693E
:104CA000491C0161FFE77DE001A800784000DB4975
:104CB0000A18085A1189884238DAFFE701A80078F3
:104CC0008000D6490818007FC007002821D1FFE7DF
:104CD000A74801684A1C026001A800784000CF4A3A
:104CE00010188089401E814212D3FFE7A04800219E
:104CF000016001A80178C94A1C3289005358012477
:104D00002343535000788000115821401150FFE791
:104D10000BE097480021016001A800788000BF499E
:104D200008180169491C0161FFE73AE001A8007811
:104D30008000BA490818C069002823D0FFE701A8FD
:104D400001788900B54A51180B695B1C0B618849D1
:104D50000B685C1C0C600078400010188089401EB5
:104D600083420ED3FFE782480021016001A8027848
:104D70009200AA4B9A18D16100788000181801613E
:104D8000FFE70DE07A480021016001A80278920057
:104D9000A24B9A18D1610078800018180161FFE7D2
:104DA000FFE7FFE7FFE70198401C01A9087033E720
:104DB00001A801210170FFE701A80078012800DDAA
:104DC000D1E00198401E6946087008784000934978
:104DD0000818408801AA12785200891889888842E8
:104DE00039DDFFE701A8007880008C490818807F32
:104DF000C007002822D1FFE75C4801684A1C026016
:104E000001A800784000854A10188089401E814220
:104E100013D3FFE755480021016001A801787F4ABC
:104E20001C32890053580124240423435350007832
:104E30008000115821401150FFE70BE04B48002142
:104E4000016001A800788000F64908180169491C32
:104E50000161FFE781E0684600784000F1490818E9
:104E6000408801AA1278520089180989884238DAE4
:104E7000FFE701A800788000EA490818007FC00712
:104E8000002821D1FFE7394801684A1C026001A8C7
:104E900000784000E34A10188089401E814212D3F6
:104EA000FFE732480021016001A80178DD4A1C3289
:104EB000890053580124234353500078800011582F
:104EC00021401150FFE70BE028480021016001A8B4
:104ED00000788000D34908180169491C0161FFE787
:104EE0003AE001A800788000CE490818C06900287F
:104EF00023D0FFE701A801788900CA4A51180B693D
:104F00005B1C0B6119490B685C1C0C60007840004D
:104F100010188089401E83420ED3FFE713480021FA
:104F2000016001A802789200BE4B9A18D161007806
:104F3000800018180161FFE70DE00C4800210160B6
:104F400001A802789200B74B9A18D16100788000CE
:104F500018180161FFE7FFE7FFE7FFE70198401C32
:104F600001A9087028E702B010BDC046401000201B
:104F70003C100020FFE7FEE780B586B0A648002180
:104F80000170A848807E002804D0FFE7A54840882B
:104F9000019003E0A34800880190FFE7A148817ECB
:104FA0008900411809690291817E89004018C06911
:104FB000039004A800210170FFE704A800780228EC
:104FC00025D8FFE705A804210170FFE705A80078B0
:104FD000012816DBFFE704A80078800001A9085823
:104FE00005A90978C9000839C8408B490A78531CBB
:104FF0000B708A498854FFE70598401E05A9087080
:10500000E4E7FFE70498401C04A90870D5E782484C
:105010000178824800F06EFE06B080BDAC10002022
:10502000B0B58AB007A8002101807A4A937806AC0F
:105030002370D37805AC237013791B0255795B1963
:1050400003807548017003901046029400F012FE30
:1050500003990A78531C0B70704B98540878421CC3
:105060000A7003221A54079840000A78541C0C70E6
:10507000985402980278302A25DBFFE705A80078CB
:105080004F2820DCFFE705A8007807A90988401809
:10509000502818DCFFE707A80088002813D0FFE796
:1050A00006A800785E490978884210D0FFE706A874
:1050B00000785B494978884209D0FFE706A8007864
:1050C000002804D0FFE7022000F0DAFDA0E004A8E9
:1050D00000210170FFE704A8007807A90988884229
:1050E00000DB8FE005A800783038122801905FD8E7
:1050F0000198810001A251188F46C04600F024B8E3
:1051000000F032B800F054B800F052B800F050B8D7
:1051100000F04EB800F02DB800F04AB800F048B8E2
:1051200000F046B800F044B800F042B800F040B8D3
:1051300000F03EB800F03CB800F03AB800F020B8FB
:1051400000F026B800F02CB8D448807E002805D0A6
:10515000FFE73348407808A9088004E03048007829
:1051600008A90880FFE727E02D48807808A9088073
:1051700022E0CA48817E4018007E08A908801BE012
:10518000C648817E49004018808808A9088013E03D
:10519000C248817E49004018008908A908800BE0B8
:1051A000BE48817E89004018006908A9088003E094
:1051B00008A800210180FFE709A802210170FFE78C
:1051C00009A80078012813DBFFE708A8008809A9CF
:1051D0000978C9000839C840A7490A78531C0B70E0
:1051E000A6498854FFE70998401E09A90870E7E717
:1051F000FFE70598401C05A908700498401C04A905
:10520000087068E79C4801789C4800F073FDFFE750
:105210000AB0B0BDD1100020A91000204510002018
:1052200084150020AC100020B0B58AB007A800217A
:10523000018005A801808F4A937804AC2370D3784D
:1052400008AC237013791B0255795B1903808A48D7
:10525000017002901046019400F00CFD02990A784A
:10526000531C0B70854B98540878421C0A7004221A
:105270001A54059840000A78541C0C7098540198F0
:1052800002787F4B9A4209DCFFE708A8007805A95D
:10529000098840187B4988422BDBFFE708A8007883
:1052A000794988420FDBFFE708A8007877498842F0
:1052B00009DCFFE708A8007805A9098840187449A7
:1052C000884216DBFFE708A8007844F28051884244
:1052D00020DBFFE708A800786E4988421ADCFFE768
:1052E00008A8007805A9098840186B49884211DC94
:1052F000FFE705A8008800280CD0FFE705A8008874
:10530000C007002806D1FFE708A80078C0070028DA
:1053100004D0FFE7022000F0B3FCA9E003A80021BD
:105320000170FFE703A8007805A90988884200DB1F
:1053300098E008A800780028009008D0FFE70098BF
:10534000022825D0FFE70098042842D062E004A894
:105350000078212809DBFFE704A80078252804DC71
:10536000FFE74E480088069011E004A80078262840
:1053700009DBFFE704A80078292804DCFFE7474899
:105380004088069002E000200690FFE7FFE744E037
:1053900004A80078212809DBFFE704A80078252865
:1053A00004DCFFE73D480069069011E004A800789E
:1053B000262809DBFFE704A80078292804DCFFE79A
:1053C00036484069069002E000200690FFE7FFE7BC
:1053D00023E004A80078212809DBFFE704A800786F
:1053E000252804DCFFE72D48C069069011E004A8D9
:1053F0000078262809DBFFE704A80078292804DCC8
:10540000FFE72648006A069002E000200690FFE7CA
:10541000FFE702E000200690FFE709A804210170E1
:10542000FFE709A80078012812DBFFE7069809A921
:105430000978C9000839C840F2490A78531C0B7032
:10544000F1498854FFE70998401E09A90870E8E768
:10545000FFE70898801C08A908700398801C03A91E
:1054600008705FE7E7480178E74800F043FCFFE792
:105470000AB0B0BDD1100020A910002045100020B6
:105480000E45000011450000404500004245000067
:10549000454500008C4500008E450000AC10002002
:1054A000B0B58CB000200B900AA90880D44A93783C
:1054B00009AC2370D37808AC237013791B0255799B
:1054C0005B190B80CF49087010460494039100F0DB
:1054D000D1FB03990A78531C0B70CB4B9854087876
:1054E000421C0A7010221A540A9840000A78541C70
:1054F0000C70985404980278302A0DDBFFE708A856
:1055000000784F2808DCFFE708A800780AA9098876
:105510004018512805DBFFE708A80078702820D143
:10552000FFE70AA8008800281BD0FFE70AA8008828
:105530004000B3498979814213D1FFE709A8007877
:10554000B2490978884210D0FFE709A80078AF492E
:105550004978884209D0FFE709A80078002804D0DC
:10556000FFE7022000F08CFB48E105A80021017054
:10557000FFE705A800780AA90988884200DB38E11E
:1055800008A8007830384028029000D923E102981A
:10559000810001A251188F4600F080B800F0ADB82C
:1055A00000F0B7B800F0B6B800F0B5B800F0B4B885
:1055B00000F0B3B800F0CBB800F0CAB800F0C9B83A
:1055C00000F0C8B800F0C7B800F0C6B800F0C5B821
:1055D00000F0C4B800F0C3B800F0C2B800F0CFB813
:1055E00000F0DCB800F0E9B800F0E8B800F0E7B887
:1055F00000F0E6B800F0E5B800F0E4B800F0E3B879
:1056000000F0E2B800F0E1B800F0E0B800F0DFB878
:1056100000F0DEB800F0DDB800F0DDB800F0DBB877
:1056200000F0D9B800F0D7B800F0D5B800F0D3B882
:1056300000F0D1B800F0CFB800F0CDB800F0CBB892
:1056400000F0C9B800F0C7B800F0C5B800F0C3B8A2
:1056500000F0C1B800F0BFB800F0BDB800F0BBB8B2
:1056600000F0B9B800F0B7B800F0B5B800F0B3B8C2
:1056700000F0B1B800F0AFB800F0ADB800F0ABB8D2
:1056800000F0A9B800F0A7B800F0A5B800F0A3B8E2
:1056900000F0A1B800F09FB800F09CB80B98F64954
:1056A0004018C1790902007A081807A908800888FB
:1056B00021280DDBFFE707A80088252808DCFFE785
:1056C0000798EC49087002200122FFF7C3F913E0A4
:1056D00007A8008826280EDBFFE707A800882928EE
:1056E00009DCFFE70798E3494870491C03200122C1
:1056F000FFF7B0F9FFE7FFE76EE00B98DE494018CF
:10570000007ADC498870891C04200122FFF7A2F985
:1057100062E061E060E05FE05EE00B98D64940182F
:10572000C1790902007A081806A908800698384944
:105730008A7E0B4618339854887E0146113118181A
:105740000122019008460199FFF784F944E043E003
:1057500042E041E040E03FE03EE03DE03CE03BE055
:105760000B98C5494018C1790902007A08182849E0
:105770008880091D05200222FFF76CF92CE00B98A8
:10578000F6494018C1790902007A081820490881B1
:10579000083107200222FFF75DF91DE00B98EF4961
:1057A0004018C1790902007A0818194908611031B6
:1057B00009200222FFF74EF90EE00DE00CE00BE0AD
:1057C0000AE009E008E007E006E005E004E003E0A5
:1057D00002E001E012E0FFE70B98801C0B90FFE76E
:1057E0000898401C08A908700598401C05A9087075
:1057F000BFE6DA48062100F07DFAFFE70CB0B0BD45
:10580000D1100020A9100020451000208415002090
:10581000AC100020B0B58AB009A80021018008A80A
:10582000018007A8017006A8017092484078CB4912
:10583000897888420FD0FFE78E480078C749897879
:10584000884208D0FFE7C54881780902C078081867
:1058500008A9088007E0C148C07845F20011401847
:1058600008A90880FFE7BD48017909024279891833
:1058700009AA1180BA4900220A700390029100F02F
:10588000F9F902990A78531C0B70F94B985408786F
:10589000421C0A702B221A54039802790C78651C5A
:1058A0000D701A5542790C78651C0D701A5508AAAE
:1058B0001288724B9A4214DBFFE708A800887049EF
:1058C00088420EDCFFE708A8008809A9098840186B
:1058D0006C49884205DCFFE709A80088002804D14C
:1058E000FFE7022000F0CCF9C1E005A8002101701B
:1058F000FFE705A8007809A90988884200DBB0E025
:1059000008A8008845F2E011401A0528019000D946
:105910009CE00198810001A251188F4600F00AB85E
:1059200000F02FB800F035B800F03BB800F07EB8BA
:1059300000F084B8E24801784A1C0270E148E02295
:10594000425407A80078002805D0FFE707A8007890
:1059500033280DDBFFE7DA4801784A1C0270D94A88
:105960000123535401784B1C03700020505407E06E
:105970000798D3490A78531C0B70D2498854FFE723
:1059800065E0CF4801784A1C0270CE48E1224254BB
:105990005DE0CB4801784A1C0270CA48E2224254BA
:1059A00055E0C74801784A1C0270C648E3224254B9
:1059B00006A8072101700078002805D0FFE706A897
:1059C000007833280DDBFFE7BD4801784A1C0270E0
:1059D000BC4A0123535401784B1C037000205054DF
:1059E00023E00698B6490A78531C0B70B5498854D1
:1059F00004A800210170FFE704A8007806A909782F
:105A0000884211DAFFE704A800781F49401840785F
:105A1000AB490A78531C0B70AA498854FFE70498D5
:105A2000401C04A90870E7E7FFE710E0A4480178EC
:105A30004A1C0270A348E422425408E0A0480178BE
:105A40004A1C02709F48E522425400E0FFE7FFE74E
:105A50000898401C08A908800598401C05A90870F2
:105A600047E797480178974800F02EF9FFE70AB01A
:105A7000B0BDC04684150020D1100020E0510000C8
:105A8000E5510000E671000048910008B0B588B00B
:105A900007A8FF21017006A80021018005AA118036
:105AA000704B9C782402DD78641904801879000218
:105AB0005C7900191080824801700390184600F04C
:105AC000D9F803990A78531C0B707E4B98540878C8
:105AD000421C0A7041221A5404A802220270FFE7F5
:105AE00004A80078052810DCFFE704A800785D49C9
:105AF000085C73490A78531C0B7072498854FFE79D
:105B00000498401C04A90870EAE706A80088012848
:105B10000AD1FFE705A80088002805D1FFE7514812
:105B20000078002802D1FFE708B0B0BD002007A927
:105B300001220290FEF78EFF61490A78531C0B7018
:105B4000604B029C9C5409780190184600F0BCF808
:105B50001420FEF7F9FE01F0E5FBC046D11000204D
:105B6000A910002010B584B003A8002101803D4990
:105B700002900846029900F0A3FA022801D1FFE73B
:105B80006DE038480078292809DCFFE735480078BF
:105B9000262804DBFFE734480121817603E0324800
:105BA00000218176FFE703A80088002801DCFFE7D9
:105BB00055E02E4800782B49097888420DD0FFE740
:105BC0002A48407827490978884206D0FFE72548C7
:105BD0000078002801D0FFE741E022484078032800
:105BE000019010D0FFE7019804280FD0FFE701983B
:105BF00010280ED0FFE701982B280DD0FFE7019861
:105C000041280CD00EE0FFF70BFA26E0FFF70CFB63
:105C100023E0FFF745FC20E0FFF7FCFD1DE0FFF768
:105C200035FF1AE02648002101700E490A780378F2
:105C30005C1C0470234CE2544978802211430278A2
:105C4000531C0370A15401784A1C02700122625453
:105C50000178204600F038F8FFE7FFE7FFE704B0DF
:105C600010BDC046D1100020AC10002084150020CB
:105C70004510002081B000900098007801B0704776
:105C8000B0B584B0014603AA10700D48012202701D
:105C90000278531C03700B4B9C5C80252C439C5456
:105CA000039A0478651C05701A550078029018460E
:105CB000029A0191114600F007F804B0B0BDC04649
:105CC000A91000204510002080B582B00A4601903E
:105CD0006846017001980078002809D0FFE732205B
:105CE000FEF76EFE01986946097800F0FFFAFFE7BB
:105CF00002B080BD80B584B00A46039002A801704E
:105D00003221019008460092FEF75AFE039801994D
:105D1000097800F06DFA04B080BD80B588B00B46FC
:105D2000069005A8018004920088C007002804D0CE
:105D3000FFE707A80021018025E005A800884008AA
:105D400002A9088003A800210180FFE703A80088BA
:105D500002A90988884212DAFFE7069803A90A888F
:105D600052008018019100F012F80499019A1388EA
:105D7000C854FFE70398401C03A90880E6E702988F
:105D800007A90880FFE707A8008808B080BD82B097
:105D9000019068460021017001980078402808DCD5
:105DA000FFE701980078009940183038694608707C
:105DB00015E001980078602808DCFFE7019800787A
:105DC0000099401837386946087007E00198007854
:105DD00000994018573869460870FFE7FFE70098B8
:105DE00000016946087001984078402808DCFFE708
:105DF000019840780099401830386946087015E0DD
:105E000001984078602808DCFFE701984078009905
:105E1000401837386946087007E0019840780099C3
:105E20004018573869460870FFE7FFE76846007872
:105E300002B0704784B00A46029001A8018068460B
:105E400000210180FFE76846008801A9098888428F
:105E500034DAFFE7029869460988405C2F2801DCA4
:105E6000FFE72BE0029869460988405C3A2808DB86
:105E7000FFE7029869460988405C402801DCFFE79B
:105E80001CE0029869460988405C472808DBFFE768
:105E9000029869460988405C602801DCFFE70DE054
:105EA000029869460988405C672801DBFFE705E046
:105EB000FFE70098401C69460880C4E768460088F0
:105EC00001A90988884204D1FFE703A801210170D4
:105ED00003E003A800210170FFE703A8007804B0E5
:105EE000704780B586B00A46049003A801800088F8
:105EF000C007002804D0FFE705A8002101702CE0AE
:105F000003A801884908018002A80021017001A8A6
:105F10000180FFE701A8008803A90988884211DAF7
:105F2000FFE7049801A9098849004018FFF72FFFEF
:105F30000299081802A90870FFE70198401C01A9FE
:105F40000880E7E70298C04302A908700298401C45
:105F50000870029805A90870FFE705A8007806B048
:105F600080BD000082B0014601AA10703C48007854
:105F70000028009008D0FFE7009801282AD0FFE70A
:105F80000098022852D064E001A800783A2804D191
:105F9000FFE780480021018009E001A800780D2872
:105FA00004D1FFE72E4801210170FFE7FFE70198C8
:105FB00078490A88784B98540888401C08800888DB
:105FC00040F25821884204DBFFE725480221017096
:105FD000FFE742E001A800783A280DD1FFE76D48BD
:105FE000002101801E4A1170019902886A4B995460
:105FF0000188491C018018E001A800780A280FD107
:10600000FFE7174802210170019862490A88624B34
:1060100098540888401C08805D480121017003E005
:106020000F4802210170FFE7FFE716E001A80078A2
:106030003A280DD1FFE7574800210180084A117026
:1060400001990288544B99540188491C0180FFE74B
:1060500003E0034802210170FFE702B07047C04629
:106060001A00002083B0024602AB18700191187824
:106070000009694608700878092805DCFFE70098E0
:1060800030300199087004E00098373001990870A9
:10609000FFE702A800780F210840694608700878D9
:1060A000092805DCFFE7009830300199487004E0CA
:1060B0000098373001994870FFE703B0704700003F
:1060C00080B58AB0089007910898002804D1FFE7AE
:1060D00009A80021017057E02D480078002805D05C
:1060E000FFE72C480088002804D1FFE709A8002119
:1060F000017049E026480021017026480088C01E32
:106100002549491C80B2049008460499FFF792FE85
:10611000002804D1FFE709A80121017034E01D48DF
:106120000188491F1C4A531C89B2039018460292E9
:10613000FFF7D7FE06A90870087803990A88029B22
:10614000D218121F01901046FFF721FE01998142DB
:1061500004D0FFE705A80221017003E005A8032190
:106160000170FFE70B480088401F089A0A49491C44
:1061700080B2009008460099FFF7CFFD079908808C
:10618000059809A90870FFE709A800780AB080BD42
:106190008215002058180020D110002080B586B04C
:1061A0000B46059004A8018003920498400001A9C1
:1061B000088002A800210180FFE702A8008804A946
:1061C000098888420FDAFFE7059802A90988405C30
:1061D000039A49005118FFF745FFFFE70298401C5A
:1061E00002A90880E9E701A8008806B080BD000088
:1061F00010B58AB00A46089007A8018000880028D8
:1062000004D0FFE70898002804D1FFE709A800217F
:10621000018066E007A800884000401D724988425E
:1062200004DBFFE709A8002101805AE06F483A210A
:10623000017005A901220A80089A07AB1B88441C3B
:10624000049010460391194622460294FFF7A6FFD8
:1062500005990818039908800598401E81B2029894
:10626000FFF73FFE06A90870087803990A88049B87
:106270009918FFF7F7FE0598801C03990880088895
:106280000D22049B1A540598401C088008880A2295
:106290001A540920C006042101F032FB00200399A2
:1062A0000880FFE705A80188504A515C504B0190D7
:1062B0001846009202F0BCFA01990A88009B9A5C89
:1062C0000A2A01D1FFE704E00598401C05A90880CF
:1062D000E8E701F09DFA47480021017009A8018014
:1062E000FFE709A800880AB010BDC04610B58AB003
:1062F0000A46089007A801800088002804D0FFE71C
:106300000898002804D1FFE709A80021018066E071
:1063100007A800884000401D3349884204DBFFE79E
:1063200009A8002101805AE030483A21017005A9EE
:1063300001220A80089A07AB1B88441C049010466F
:106340000391194622460294FFF728FF0599081881
:10635000039908800598401E81B20298FFF7C1FD9D
:1063600006A90870087803990A88049B9918FFF712
:1063700079FE0598801C0399088008880D22049BEB
:106380001A540598401C088008880A221A540920CB
:10639000C006042101F0B4FA002003990880FFE749
:1063A00005A80188114A515C114B019018460092D2
:1063B00002F03EFA01990A88009B9A5C0A2A01D1F0
:1063C000FFE704E00598401C05A90880E8E701F014
:1063D0001FFA08480021017009A80180FFE709A8F9
:1063E00000880AB010BDC04659020000A91500205F
:1063F000529100081B0000207047704710B584B010
:1064000003A8012102900846029A01911146019ABF
:1064100001F050F802990A781F4B5B789A4206D037
:10642000FFE71D4900201622FEF714FBFFE71B487B
:106430000021162200900846009901F03BF80099CF
:106440008A78174B1A70CA785A700A799A708A79C2
:1064500012024B79D218AC4B9A800A7A1202CC798C
:1064600012191A818A7A12024C7A12199A810A7BBD
:106470001202CC7A1219DA818A7B12024C7B121931
:10648000DA800A7C1202CC7B12195A814A7C1A7675
:106490008A7C5A7604B010BD04000020260000203B
:1064A0008415002070B59EB01CA8002101701BA8A7
:1064B0000170FFE71DA800210170FFE71DA800780B
:1064C000002800DD0DE11DA800784EF2000118AA99
:1064D000062300F01BF91AA90870087800280AD0D2
:1064E000FFE71DA80178E44A0023535400781118EF
:1064F000105C4870EFE01DA80178DF4A0123535477
:1065000001785318515C59701899090218AA5378E8
:10651000C91817AB1980D1780902127989185980E6
:106520001988149008461393FDF7DCFE6F49FDF7B8
:1065300050FE6F491291FDF789FE6E49FDF7F0FD9F
:1065400014990A78920016AB985013984088FDF77A
:10655000C9FE6949FDF73DFE1299FDF777FE1499D2
:106560000A78920015AB985064480078002854D1FE
:10657000FFE71CA800210170FFE71CA80078002895
:1065800047DCFFE71BA800210170FFE71BA800788C
:10659000092838DCFFE717A8018811900846FDF7A5
:1065A000A1FE5249FDF715FE51491091FDF74EFE2F
:1065B0005049FDF7B5FD1CA90A7828231C46544311
:1065C000AE4A12191BAC2578AD0050511198408885
:1065D0000F910E930D94FDF785FE4749FDF7F9FDE8
:1065E0001099FDF733FE0F990A780E9B5343A54A85
:1065F000D2180D9B1C78A4001051FFE71B98401C7B
:106600001BA90870C2E7FFE71C98401C1CA9087072
:10661000B3E73A4801210170FFE71DA801788A001D
:1066200028231C464C439549091916ACA25803254A
:1066300000950A260C90104632460B932B460A947E
:106640000995089600F034FA0C990A7892000A9B92
:106650009850087882000B9C44438A48011915A879
:106660008258099C009407901046089A234600F02F
:106670001FFA0C990A789200079B985008788200BC
:106680000A9CA2581E4906901046FDF749FD1D4977
:106690000591FDF79EFD3F2109060491FDF740FDA0
:1066A000FDF72BFE06994A00174B98520C9802787A
:1066B0009400079D2859059903930292FDF789FDDF
:1066C0000499FDF72DFDFDF718FE02994A00039B82
:1066D0009A185080FFE7FFE71D98401C1DA908701D
:1066E000ECE6FEF793FAFFE71EB070BD00002F4303
:1066F00000FF7F47000034C20000C8424410002061
:10670000CD8C884300002041AC100020F0B58BB048
:106710001C460D4606460AAF387009A8018008924B
:1067200007A90B803A7805901046049403950296C9
:106730000191FEF723FA05980188089A019B1B78BE
:10674000882000F0A3F806A9087008780BB0F0BD07
:1067500080B584B0154801F005FD15480021802260
:1067600003900291029B01921A46019B01F0F9F8F5
:10677000032203980299019B01F03BF904B080BD0C
:1067800080B584B0094801F0EDFC094801210022E0
:10679000802303900292019301F0E3F8032203980F
:1067A0000299019B01F025F904B080BD120500009B
:1067B00000040048B0B584B003A800210170FFE7D1
:1067C00003A80078002829DCFFE702A80021017057
:1067D000FFE702A8007809281ADCFFE703A8017880
:1067E000282213464B432549C91802AB1C78A40044
:1067F000234D0D51007842432248801819788900B2
:10680000214A4250FFE70298401C02A90870E0E7C5
:10681000FFE70398401C03A90870D1E703A80021F3
:106820000170FFE703A80078002823DCFFE703A836
:106830000078714900F0CAF801A9087008780028AA
:1068400009D0FFE703A801780B4A002353540078CE
:106850008018437008E003A80178074A01235354C5
:10686000007880184370FFE7FFE70398401C03A9F6
:106870000870D7E704B0B0BDAA100020301800207F
:106880000000C8410818002000004842F0B58DB053
:106890001C460D4606460CAF38700BA801800A92C4
:1068A00009A90B7007A900220A70069405950496A1
:1068B000039702900191009200F006FB0398007884
:1068C00000F0C0FA00F044FB07990818019908701D
:1068D0000298407800F0B6FA00F03AFB07990818E1
:1068E000019908700298007800F0ACFA00F030FBD3
:1068F000079908180199087000F0E6FA0C98401CF6
:10690000C0B200F09FFA00F023FB07990818019924
:10691000087008A8009A0270FFE708A8007809A983
:106920000978491E88420DDAFFE7012000F040FA9D
:106930000A9908AA12788854FFE70898401C08A909
:106940000870EAE7002000F033FA0A9908AA1278E2
:10695000885400F0DBFA07A800780DB0F0BDB0B5A0
:1069600088B00A46034607AC207006A8018005A936
:1069700000250D700492039302940190009100F0A1
:10698000A3FA0298007800F05DFA00F0E1FA0599A8
:106990000818009908700198407800F053FA00F048
:1069A000D7FA05990818009908700198007800F046
:1069B00049FA00F0CDFA059908180099087000F01E
:1069C000A5FA0098007808B0B0BD704710B586B041
:1069D0000A46034605AC207004A801802078029284
:1069E0000193FEF7CBF888200349FFF7B8FF03A90E
:1069F0000870087806B010BD2923000080B500F0AB
:106A00004BFD80BD80B582B0204801680122114352
:106A10000160FFE71D4800688007002801D4FFE7F8
:106A2000F8E71B4801681B4A1140016001681A4AD7
:106A30001140016015480168184A1140016018486A
:106A400001680F22914301601648016840F2031269
:106A500091430160016801221304994301600168B8
:106A6000D3079943016010480168914301600F48C2
:106A7000002101600192009101F03CFC0198C006E8
:106A8000009901F0C3F802B080BDC046001002407A
:106A9000041002400C00FF08FFFFC277FFFFF2FE68
:106AA0002C10024030100240341002400810024006
:106AB000F0B595B01A9C1D461646074613901291E4
:106AC00011A8028010A90B800FA90C8000210B9146
:106AD00000880A2803D0FFE770481490D9E010A876
:106AE00000880FA90988401811A90988884203DB8A
:106AF000FFE769481490CCE000200E90FFE70E9865
:106B000011A90988491E88420BDAFFE712980E99ED
:106B10008900421852684250FFE70E98401C0E90C0
:106B2000EDE7139812990E9A92008850129801A9D5
:106B30001CC81CC11CC81CC13CC83CC100200E9014
:106B4000FFE70E980FA90988884231DAFFE7002095
:106B50000D90FFE70D9811A909880E9AD24351189C
:106B6000884220DAFFE70D98800001A90A1808582A
:106B70005168FDF7A9FB002810D1FFE70D988000B0
:106B800001A908580C900D9880000A1852680A5004
:106B90000C980D9A920051184860FFE7FFE70D9896
:106BA000401C0D90D6E7FFE70E98401C0E90C8E7FA
:106BB00000200E90FFE70E9810A90988884236DA67
:106BC000FFE711A800880FA90988C94308180D908C
:106BD000FFE70D980E99884224DDFFE70D988000AD
:106BE00001A90A18121F126809581046FDF76CFB1C
:106BF000002812D1FFE70D98800001A94018001F5E
:106C000000680C900D9880000A180858121F106038
:106C10000C980D9A92008850FFE7FFE70D98401EF0
:106C20000D90D6E7FFE70E98401C0E90C3E710A822
:106C300000880E90FFE70E9811A909880FAA128804
:106C4000891A88420DDAFFE70E98800001A90958D9
:106C50000B98FDF765FA0B90FFE70E98401C0E901D
:106C6000E9E711A8008810A909880FAA12888918D5
:106C7000401AFDF737FB0B99009008460099FDF785
:106C8000E5FA0B9001A82821FDF73FFA0B98149024
:106C9000FFE7149815B0F0BD00005E4400C07944D1
:106CA00080B584B0C74840210390029100F020FED7
:106CB000FFF766FD8021039800F01AFE0120019085
:106CC000FDF75FFE0398029900F01AFE0198FDF7A8
:106CD00058FE0398029900F00BFE04B080BDC04638
:106CE00080B588B0204801F03DFAB6480121002265
:106CF0004023079006910592049300F032FE032092
:106D00000799039008460599039A049B00F071FEC9
:106D100007980499059A00F0FBFD14480290FDF7CE
:106D200024FE07980499069A00F0F2FD8020079946
:106D3000019008460699059A019B00F012FE0798FB
:106D40000599039A019B00F054FE07980199059A52
:106D500000F0DEFD0298FDF708FE07980199069AFB
:106D600000F0D6FD08B080BD12050000102700001D
:106D700080B584B0934840210390029100F0B8FDA3
:106D8000FFF7FEFC8021039800F0BAFD012001907E
:106D9000FDF7F7FD0398029900F0B2FD0198FDF7A9
:106DA000F0FD0398029900F0A3FD04B080BDC04639
:106DB00080B588B0014607AA107005A800220270AD
:106DC00004910392FFF7C4FC06A803990170FFE742
:106DD00006A80078072826DCFFE77A4840210290C1
:106DE000019100F085FD0120FDF7CBFD029801998E
:106DF00000F086FD0598400005A9087080210298E2
:106E000000F09AFD002805D0FFE70598401C05A971
:106E10000870FFE70120FDF7A8FDFFE70698401C7A
:106E200006A90870D4E707A80078002803D1FFE777
:106E3000FFF79EFF02E0FFF733FFFFE705A80078AA
:106E400008B080BD80B588B0014607AA10700591D2
:106E5000FFF796FC5B48402100F04AFD06A80021A0
:106E60000170FFE706A8007807282ADCFFE707A8DB
:106E70000178CA09534980230490084603911946B2
:106E800000F046FD07984000049908700120029028
:106E9000FDF777FD4020039901900846019900F025
:106EA0002FFD0298FDF76DFD0398019900F020FD7C
:106EB0000298FDF766FDFFE70698401C06A90870DA
:106EC000D0E708B080BDC04680B584B0FFF758FC5D
:106ED0003C4880210390029100F012FD402003996C
:106EE00001900846019900F00BFD01200090FDF78C
:106EF00058FD0398029900F0FBFC0098FDF751FD46
:106F00000398019900F0F4FC04B080BD80B584B012
:106F1000FFF736FC2B4840210390029100F0E8FC7B
:106F20008020039901900846019900F0E1FC0120BE
:106F30000090FDF736FD0398029900F0E1FC0098FF
:106F4000FDF72FFD0398019900F0DAFC04B080BD35
:106F500080B584B002A800210170FFF7F9FB194841
:106F60008021019000F0CCFC01200090FDF7FDFC99
:106F70004021019800F0C4FC0098FDF7F6FCFFE703
:106F80001048802100F0D8FC00280FD0FFE70298BD
:106F9000401C02A908700878FB2806DBFFE7FFF712
:106FA000B5FF03A80121017008E0E9E70548402189
:106FB00000F09EFC03A800210170FFE703A8007801
:106FC00004B080BD0004004880B582B0274802218B
:106FD00001F0BCFA00281DD0FFE72448022101F08F
:106FE000ABFA2348008823490988884209DBFFE778
:106FF0001F480188491C01801F480188491C0180E5
:1070000003E01C4800210180FFE71848042101F03B
:1070100089FAFFE71548042101F098FA002822D0E8
:10702000FFE712480221019001F072FA0421019851
:1070300001F082FA0F4800880D490988884209DB6F
:10704000FFE70C480188491C01800C480188491C55
:10705000018003E0064800210180FFE70348022188
:1070600001F060FAFFE702B080BDC046002C01408D
:107070005A1800205C180020220000202400002064
:1070800080B584B003A8002101804348012101F0AC
:107090005DFA002809D0FFE73F480121019101F086
:1070A0004BFA034801990170FFE704B080BDC04668
:1070B000D010002080B582B001A8002101802048B6
:1070C000012101F043FA002809D0FFE71C48012103
:1070D00001F032FA03480188491C0180FFE702B041
:1070E00080BDC0462000002080B58AB0134801F062
:1070F00039F81348029001F00BF903A827490180E1
:10710000002141808180264A0592C1800173029945
:1071100001900846019901F07DF91520032100F046
:107120005BFD029801F0EAF80121029801F0F0F904
:10713000029801F05DF90AB080BDC046110600005A
:107140000044014080B58AB040F2106001F00AF8B6
:107150001148029001F0DCF803A8104901800021D9
:10716000418081800E4A0592C1800173029901908D
:107170000846019901F04EF91420022100F02CFD7F
:10718000029801F0BBF80121029801F0CBF90298B6
:1071900001F037F90AB080BD004001401F1C00001B
:1071A0000F27000080B584B0BA48284901F0EEFAF4
:1071B000002819D0FFE7B7482449039001F0C6FA28
:1071C000039801F039FA224908700878FEF7CAFEE0
:1071D00020480078C0084B2805D3FFE7AD480521BB
:1071E00001F08EFAFFE7FFE7AA481B4901F0CEFA4B
:1071F000002828D0FFE7A7481749029001F0A6FA17
:10720000164801784A1C0270154A515C029A019096
:10721000104601F019FA0120FDF7E4FB114800784F
:1072200001990A7890420DDCFFE70920C00604218D
:1072300000F05EFB9748072101F062FA094800213F
:107240000170FFE7FFE704B080BDC04605000507F9
:10725000A815002029130020070007076418002044
:107260002A1300206518002081B001466A4610707C
:10727000107840B200280DD4FFE76846007840B28D
:107280001F2102460A400121914040098000024A24
:107290008150FFE701B0704700E100E070B582B0B7
:1072A000024601AB18700091187840B2002817D43C
:1072B000FFE701A8017849B20322D2431140184BDD
:1072C000C958007840B28407E40EFF25A540A943C1
:1072D000009DAD01EDB2A54029431040C1501AE018
:1072E00001A801780F22114008390323DB4319401C
:1072F0000A4C0959007840B28507ED0EFF26AE40D2
:10730000B143009EB601F6B2AE403143104008389A
:1073100018400151FFE702B070BDC0461CED00E00F
:1073200000E400E0BFF34F8F034804490160BFF35E
:107330004F8FFFE700BFFDE70CED00E00400FA050A
:1073400080B586B01A4800F00DFF0920C006012163
:1073500040F2002205900491039200F067FA40F297
:1073600000400599029008460499029A00F05EFADE
:1073700002200599019008460199049A039B00F0A8
:10738000F0FA00200599009008460099049A039BA2
:1073900000F02FFB05980199049A029B00F0E1FA96
:1073A00005980099049A029B00F023FB06B080BD6B
:1073B0001105000080B584B0344800F0D3FE344895
:1073C000811C04220123039010461A4600F072F833
:1073D000D3490290084601F043F903988178491E89
:1073E000062901913CD80198810001A251188F46CD
:1073F00000F00CB800F010B800F014B800F018B8A5
:1074000000F01CB800F020B800F024B8C44840F6E2
:10741000601101F0B9F829E0C14841F2C02101F042
:10742000B3F823E0BE4842F2805101F0ADF81DE010
:10743000BB4844F6003101F0A7F817E0B84849F21C
:10744000006101F0A1F811E0B5484EF2001101F021
:107450009BF80BE0E1204102B14801F095F805E00E
:10746000AF4842F2805101F08FF8FFE700F0B2FE22
:10747000AB480421009001F0BCF90821009801F00C
:10748000C7F9009801F016F904B080BD0E0600009F
:10749000841500200038014005480068002805D008
:1074A000FFE703480168491E0160FFE77047C046D7
:1074B0000418002085B013460490039102A80280AE
:1074C000049821494018009000200190FFE701989E
:1074D00002A9098888420DD2FFE70098411C00915B
:1074E000007803994A1C03920870FFE70198401C3A
:1074F0000190ECE7002005B07047C04680B584B02D
:1075000013460390029101A8028068460021018081
:10751000FFE76846008801A90988884212DAFFE778
:10752000039809494018FDF78BFA02996A461288B8
:1075300088540398401C0390FFE70098401C69465C
:107540000880E6E704B080BD0030000881B00090FC
:1075500000984749086001B07047C0466448016818
:10756000802211430160704780B584B003900F20E2
:10757000000400F027F802A90870087800281BD141
:10758000FFE75B48016802221143016003990C4B3D
:10759000196001684023194301600F21090401901B
:1075A0000846009200F00EF802A9087001980168E0
:1075B000009A91430160FFE702A8007804B080BD03
:1075C0001420024080B584B0039002A8012101700C
:1075D000FFE700F025F802A908700398401E039009
:1075E000FFE702A8007800210128019105D1FFE7FB
:1075F0000398411E88410190FFE70198C0070028C9
:10760000E7D1FFE702A80078012804D1FFE702A82C
:1076100005210170FFE702A8007804B080BD0000DA
:1076200081B068460021017011480068C007002839
:1076300004D0FFE768460121017015E00C4800689E
:10764000C006002804D5FFE76846042101700AE05F
:10765000074800684007002804D5FFE76846022174
:107660000170FFE7FFE7FFE76846007801B0704769
:107670000C2002401E4800680006002806D5FFE7DF
:1076800003480449016004490160FFE77047C046B0
:107690000420024023016745AB89EFCD80B586B059
:1076A000059004910F200004FFF78CFF03A90870D8
:1076B0000878002817D1FFE70D480168012211431F
:1076C00001600499059B19600F2109040290084686
:1076D0000192FFF777FF03A9087002980168019AE9
:1076E00091430160FFE703A8007806B080BDC04663
:1076F0001020024080B582B00190009101A801786D
:10770000074800F0A1FFFFE70548064900F0DBFF4E
:10771000002801D1FFE7F7E7019802B080BDC0461D
:10772000003801400707000010B587B00A4603463D
:1077300005AC208004A801702F480390002002901F
:1077400038482E490160FFE72D48006801210840B4
:107750000290FFE70398401E03900021002801914A
:1077600005D0FFE70298411E88410190FFE701988C
:10777000C0070028E8D1FFE70298002804D0FFE7FF
:1077800006A80021017033E004A800781D490860B4
:1077900019480390FFE71A48006802210840029048
:1077A000FFE70398401E039000210028009105D0B8
:1077B000FFE70298411E88410090FFE70098C0074C
:1077C0000028E8D1FFE70298002804D0FFE706A8C8
:1077D000002101700CE005A800880B4908400B4906
:1077E000086010480C49016006A801210170FFE7FC
:1077F00006A8007807B010BDFFFF0F005555000028
:107800000C30004004300040FF0F00000830004002
:107810000448014901607047AAAA000001480249D2
:107820000160704700300040CCCC000086B005906D
:10783000049103920598006A01900598406A0090AF
:1078400002A800210180FFE702A8008807281ED8AF
:10785000FFE702A800880399C140C807002810D09C
:10786000FFE702A8018889000F228A40019991430D
:10787000019104990088800081400198084301909B
:10788000FFE7FFE70298401C02A90880DCE702A896
:1078900008210180FFE702A800880F2820D8FFE711
:1078A00002A800880399C140C807002812D0FFE74A
:1078B00002A80188890020390F228A40009991434B
:1078C0000091049900888000203881400098084386
:1078D0000090FFE7FFE70298401C02A90880DAE762
:1078E00001980599086200980599486206B07047AA
:1078F00082B00190009100980199886202B07047AF
:1079000082B00190009100980199886102B070479F
:1079100083B01346029001916846027000780028F7
:1079200004D0FFE701980299886103E00198029969
:107930008862FFE703B0704783B00190009101981F
:1079400000690099084204D0FFE702A801210170F4
:1079500003E002A800210170FFE702A8007803B04D
:10796000704787B0069005910492039306980068CB
:1079700001900698C068009002A800210180FFE7EE
:1079800002A800880F282CD8FFE702A800880399D6
:10799000C140C80700281ED0FFE702A8018849009F
:1079A000032213468B40019999430191059903885D
:1079B0005B009940019B0B430193018849008A4079
:1079C00000999143009104990088400081400098FB
:1079D00008430090FFE7FFE70298401C02A90880D7
:1079E000CEE701980699086000980699C86007B02C
:1079F000704710B586B00C46059004A8017003923C
:107A000002930078012806D1FFE7029805994A6899
:107A100002434A6005E0029805994A6882434A6039
:107A2000FFE705988068009001A800210180FFE72A
:107A300001A800880F281ED8FFE701A80088029936
:107A4000C140C807002810D0FFE701A801884900FD
:107A500003228A40009991430091039900884000D5
:107A60008140009808430090FFE7FFE70198401C21
:107A700001A90880DCE700980599886006B010BD70
:107A800080B58AB0002009900121C90644F20002A5
:107A900004900846114600F0B9F805A8049901734E
:107AA00042480790424806904248059040F2F41040
:107AB0000390FCF749FFFFF713F9FEF77BFEFEF793
:107AC000F1FC0398FCF740FFFEF7ECFC1B200221C1
:107AD00000F082F8FFF734FCFFF76CFC3648052114
:107AE00000F021FEFCF716FFFFF72CFBFFF7FCFA76
:107AF000FEF784FCFFE7FFF78BFE30480078002894
:107B000006D0FFE72D4800210170FEF7CBFCFFE710
:107B10002B480078002817D1FFE72A480168491C44
:107B20000160006840F2E83188420CD1FFE709208B
:107B3000C0060421FFF7DCFE214801210170214825
:107B400000210160FFE7FFE71F480078012803D10B
:107B5000FFE7FEF707F827E01C48817E4018007E0B
:107B6000002820D0FFE71A480121029000F0DAFC3B
:107B7000029800F046FC1748008814498A7E89184C
:107B8000097E88420ED1FFE7FDF7F6F91048012182
:107B9000019000F0BDFC019800F02AFC0D48002186
:107BA0000180FFE7FFE7FFE7A5E7C04667660D0A2C
:107BB000676177656467677300380140D010002003
:107BC0001B0000206018002082150020AC1000204F
:107BD000004401402000002010B586B00A4603464C
:107BE00005AC207004A80170217849B20078039098
:107BF00008460399029201930094FFF74FFB009807
:107C0000017848B2FFF730FB06B010BD82B001909A
:107C1000009101980099034A114008430249086005
:107C200002B0704780FFFF1F08ED00E09BB00146E7
:107C30001AAA10700020199018901790169015909D
:107C4000149013901290119010900F900E900D9030
:107C50000C900B900A908D4A09928D4A08920790D9
:107C6000069005920490039202908A4800680C22C4
:107C700010408008199019980028019008D0FFE75B
:107C80000198012807D0FFE70198022806D045E0B7
:107C90008348159045E08248159042E07D48016890
:107CA0000F2292041140890C0F9100680121C9062E
:107CB0000840C00E0E900E98012804D1FFE70F98DF
:107CC00011300F900BE00F980F2803D1FFE7102021
:107CD0000F9003E00F98801C0F90FFE7FFE76D48BF
:107CE0000068012109040840000C0D900D9800283F
:107CF0000ED0FFE7694800680F210840401C0C9037
:107D00000C986749B1FBF0F00F994143159104E0DD
:107D10000F98614941431591FFE702E060481590D3
:107D2000FFE75C480168C9B209090B910B9906AAE3
:107D3000515C0A9115990A9AD1401491016840F258
:107D400000721140090A0B910B9904AA515C0A9127
:107D500014990A9AD1401391006843F60001084033
:107D6000C00A0B900B9802A9085C0A9014980A9913
:107D7000C84012901AA800780528009000D981E028
:107D80000098810001A251188F46C04600F00AB841
:107D900000F00BB800F00CB800F00DB800F00EB811
:107DA00000F041B8159816906DE0149816906AE0AE
:107DB0001398169067E01298169064E039480068AE
:107DC00040F20011084088420FD0FFE735480068B4
:107DD000012109040840884203D0FFE7334811908D
:107DE00002E031481190FFE71AE02A48006880B2AB
:107DF000800B18902B480068C00F17901798002828
:107E000007D0FFE714981899491CB0FBF1F01190C6
:107E100005E012981899B0FBF1F01190FFE7FFE729
:107E2000119816902FE01F4800688007002803D1A2
:107E3000FFE71298109022E01A48006803210840DA
:107E4000012803D1FFE71598109017E01548006846
:107E500003210840022804D1FFE748F200001090F7
:107E60000BE01048006803210840032803D1FFE716
:107E70000B48109000E0FFE7FFE7FFE7FFE71098EF
:107E8000169000E0FFE716981BB070470607080938
:107E9000010203040410024000093D002C100240BE
:107EA00000127A0030100240003FAB01809FD500E5
:107EB00082B001466A46108010888009C44BC058C1
:107EC00012881F231A40D040C007002804D0FFE7C3
:107ED00001A80121017003E001A800210170FFE762
:107EE00001A8007802B0704710B581B001466A461B
:107EF000108010881F220346134001229A408009F7
:107F0000F74BC4581443C45001B010BD80B58CB0B9
:107F100001460BAA108000200A9009AB187008AB2C
:107F200018701088002807906BD0FFE7079810287A
:107F300016D0FFE70798182800D1DBE040F60000D4
:107F40000799814235D0FFE740F60010079981423A
:107F500000D1A7E040F60050079981427AD0F1E0C5
:107F6000FFE708A8007800210028069108D1FFE764
:107F70000A9840F60001401A411E88410690FFE72A
:107F80000698C007002809D0FFE71120FFF790FFEF
:107F900008A908700A98401C0A90E2E71120FFF730
:107FA00087FF002804D0FFE709A801210170FFE73F
:107FB000C9E0FFE708A8007800210028059107D153
:107FC000FFE70A986549401A411E88410590FFE77E
:107FD0000598C007002809D0FFE76148FFF768FF50
:107FE00008A908700A98401C0A90E3E75C48FFF76C
:107FF0005FFF002804D0FFE709A801210170FFE717
:10800000A1E0FFE708A8007800210028049108D12A
:10801000FFE70A9840F20051401A411E884104903F
:10802000FFE70498C007002809D0FFE70120FFF709
:108030003FFF08A908700A98401C0A90E2E7012057
:10804000FFF736FF002804D0FFE709A801210170DF
:10805000FFE778E0FFE708A80078002100280391F7
:1080600007D1FFE70A983A49401A411E8841039018
:10807000FFE70398C007002809D0FFE73648FFF75D
:1080800017FF08A908700A98401C0A90E3E73248D5
:10809000FFF70EFF002804D0FFE709A801210170B7
:1080A000FFE750E0FFE708A80078002100280291D0
:1080B00007D1FFE70A982649401A411E88410290DD
:1080C000FFE70298C007002809D0FFE72148FFF723
:1080D000EFFE08A908700A98401C0A90E3E71D48C3
:1080E000FFF7E6FE002804D0FFE709A80121017090
:1080F000FFE728E0FFE708A80078002100280191A9
:1081000007D1FFE70A981249401A411E88410190A1
:10811000FFE70198C007002809D0FFE71920FFF703
:10812000C7FE08A908700A98401C0A90E3E71920C6
:10813000FFF7BEFE002804D0FFE709A80121017067
:10814000FFE700E0FFE709A800780CB080BDC0465B
:10815000FFFF0F0001090000010D0000FFFFFF03FA
:108160000108000010B581B001466A4610801088F1
:108170001F220346134001229A408009584BC458DD
:108180001443C45001B010BD10B581B001466A4619
:10819000108010881F220346134001229A40800954
:1081A0004F4BC4589443C45001B010BD10B581B0BA
:1081B00001466A46108010881F22034613400122A0
:1081C0009A408009464BC4581443C45001B010BDB6
:1081D0000010024080B584B00C48FFF7C3FF0920AF
:1081E000C006012100220423039002910192009312
:1081F000FFF7B7FB03980199029A009BFFF7F9FB81
:1082000003980099FFF774FB04B080BD11050000CE
:1082100083B000200290019031480168012211438F
:108220000160FFE70298401C02902D48006802217F
:1082300008400190FFE7019800210028009108D133
:10824000FFE7029840F20051401A411E8841009019
:10825000FFE70098C0070028E4D1FFE72048006846
:108260008007002802D4FFE7FFE7FEE71D4801680A
:1082700007229143016001680222114301601A48FC
:108280000168016001680160016801600168174AC6
:10829000114001600168164A1143016010480168ED
:1082A0000122120611430160FFE70D4800688001BA
:1082B000002801D4FFE7F8E70B4801680322914347
:1082C00001600168022211430160FFE7064800686F
:1082D0000007002801D4FFE7F8E703B07047C04665
:1082E000001002400020024004100240FFFFC2F7CD
:1082F0000000040880B5FFF78BFF80BD81B00090BF
:108300000098016880221143016001B070470000AD
:1083100080B58AB00990099878498842089026D09B
:10832000FFE72D480899814229D0FFE77448089952
:1083300081422CD0FFE77048089981420FD0FFE7B7
:108340007048089981422BD0FFE76F480899814215
:108350002FD0FFE76D480899814232D039E0234899
:108360000790FFF723FF0798FFF70EFF32E01E4844
:108370000690FFF71BFF0698FFF706FF2AE0194853
:108380000590FFF713FF0598FFF7FEFE22E040F28D
:1083900008400490FFF70AFF0498FFF7F5FE19E084
:1083A00040F210300390FFF701FF0398FFF7ECFE57
:1083B00010E00B480290FFF7F9FE0298FFF7E4FE89
:1083C00008E006480190FFF7F1FE0198FFF7DCFE98
:1083D00000E0FFE70AB080BD00100040120300007B
:1083E0001103000004040000010400000B0300005E
:1083F00081B000900098016801229143016001B0B2
:10840000704781B00090009801680122114301601B
:1084100001B0704782B001900091009800880199E6
:10842000886201983449884205D0FFE701983349B2
:10843000884212D1FFE701980168702291430160E0
:108440000098408801990A6802430A600098808871
:1084500001990A6802430A60FFE700988068019961
:10846000C86201982449884219D0FFE7019823493E
:10847000884214D0FFE70198214988420FD0FFE7D6
:108480000198204988420AD0FFE701981E49884296
:1084900005D0FFE701981D4988420DD1FFE70198FB
:1084A000016840F20032914301600098C088019950
:1084B0000A6802430A60FFE701980F4988420FD01B
:1084C000FFE701980F4988420AD0FFE701980E495B
:1084D000884205D0FFE701980C49884205D1FFE7A3
:1084E0000098007B01990863FFE701984169012228
:1084F0001143416102B07047002C0140000400406C
:10850000002000400040014000440140004801407C
:1085100082B00190009100980199CA688243CA60B4
:1085200002B0704782B00190009100980199CA682A
:108530000243CA6002B0704782B001900091009877
:1085400001990A6982430A6102B0704784B00290BF
:1085500001910298C0680199084000900298006952
:108560000199084208D0FFE70098002804D0FFE7EF
:1085700003A80121017003E003A800210170FFE7B7
:1085800003A8007804B0704780B588B007900691C2
:10859000002005900490039002900798414988427A
:1085A00001900AD0FFE74048019981420AD1FFE7D4
:1085B0000520FFF73BFB059005E00220FFF736FBA7
:1085C000059000E0FFE7079800680004002818D530
:1085D000FFE70598400006994A088018B0FBF1F0C3
:1085E0000290029813490840049002980007400F37
:1085F000039004A8008803A9098808430799C86064
:1086000016E0059806994A088018B0FBF1F0029030
:10861000029808490840049002980F2108400390EE
:1086200004A8008803A9098808430799C860FFE7E0
:1086300008B080BDF0FF000081B000900098406A53
:108640000649084001B0704782B00190009100983F
:10865000024908400199886202B07047FF0100009A
:1086600080B584B0039003980E49884202900DD0E3
:10867000FFE70D480299814210D1FFE70C480190B5
:10868000FFF794FD0198FFF77FFD08E00748009091
:10869000FFF78CFD0098FFF777FD00E0FFE704B0DF
:1086A00080BDC04600440040003801401104000075
:1086B0000E03000081B00090009801680122114370
:1086C000016001B0704783B00A460190684601809E
:1086D000019903889B09C95800881F231840C1408D
:1086E000C807002804D0FFE702A80121017003E0B9
:1086F00002A800210170FFE702A8007803B07047CC
:1087000010B582B00A4601906846018000881F219A
:1087100003460B4001219940019B80091C588C4362
:108720001C5002B010BD10B582B00A4601906846D8
:10873000018000881F2103460B4001219940019BC5
:1087400080091C580C431C5002B010BD82B001902F
:10875000009100980C49884208D1FFE70198D02188
:10876000425848F200039A4342500BE000981F2100
:1087700009040840000C012181400198026A0A4363
:108780000262FFE702B0704709340F3410B585B0BC
:1087900003900291002001900090039802A909889B
:1087A0008909405802991F22114001231C468C4020
:1087B0002040019003980299890D405802991204B3
:1087C0001140090C8B40184000900098002808D0F8
:1087D000FFE70198002804D0FFE704A801210170F9
:1087E00003E004A800210170FFE704A8007805B0A9
:1087F00010BD82B00190009101980168042291435C
:108800000160009801990A6802430A6002B070474B
:1088100082B00190009101980168082291430160A3
:10882000009801990A6802430A6002B0704700008C
:108830000FB410B503A9044B044A029800F0E8F8FD
:1088400010BC08BC04B01847F576000800000020F2
:108850002021020C01D010211046020A01D010463E
:108860000839020901D01046091F820801D01046BC
:10887000891E420801D0881E7047081A704702E01E
:1088800008C8121F08C1002AFAD17047704700209B
:1088900001E001C1121F002AFBD17047F0B51FB4DF
:1088A00086B00998089A030D0021024314D051485C
:1088B000514A1818504305141198012810981AD0DD
:1088C000281A401C00264D4F4D49009601910490F6
:1088D000002812DA444211E01198012449A301282A
:1088E00001D11098C1430698119A84600360C26058
:1088F00041600BB0F0BD4042E4E704462105002092
:108900003F4A001C51410391029012E0E00707D05A
:1089100032463B4601990098FBF742FE01910090D8
:1089200032463B4610461946FBF73AFE06460F46CE
:108930006410002CEAD10498039B0028029A09993C
:10894000089806DAFBF72CFE019B009AFBF728FE3D
:1089500005E0FBF78DFE019B009AFBF789FE0446BC
:108960000E460022284BFBF71BFF03D80020C04314
:10897000014607E00022254B20463146FBF75EFD0D
:10898000FBF7EEFE102409E0002C0ADB0A2200238C
:10899000FBF7E2FC079B30321A55641E02460A437D
:1089A000F2D11122641C079B121B1C19119B012B75
:1089B00003D0012308430ED10AE0084304D011205C
:1089C00010900020119077E71098151A6D1E0BE09B
:1089D0001098824202DD00236D1C03E0824201DA1E
:1089E00000236D1E002BEED0069811998260C160A5
:1089F00030C07EE701FCFFFF104D00000000144076
:108A00000000F03F300000000000F0430000E03FB5
:108A1000FFB597B00646002518E2252877D1002437
:108A20002746FD49049400E00443761C3278012077
:108A3000203A90400842F7D130782A280ED00222FE
:108A4000307801463039092916D804990A23594348
:108A5000303940181443761C0490F1E7189802C886
:108A600004911890002904DA01204003044348428D
:108A7000049002200443761C30782E2814D1042060
:108A800004437078761C2A2809D11898761C80C86F
:108A9000189009E00A214F43303FC719761C3078FF
:108AA000014630390929F5D930786C2810D006DC18
:108AB0004C281AD068280ED06A2817D104E07428F0
:108AC00013D07A2812D110E00120400504430CE0B5
:108AD0000121090501E0032109050C437178814258
:108AE00003D1012000052418761C761C30781190E3
:108AF00066280BD013DC58287DD009DC00287BD0F9
:108B00004528F6D04628F4D047281AD1A5E118E028
:108B1000632835D0642870D0652812D19DE1702873
:108B20006CD008DC6728F1D069287BD06E280DD086
:108B30006F2806D1BAE073282ED0752871D0782816
:108B400059D01A9A199990476D1C7EE16002400F26
:108B5000022809D003280DD00428189801680DD0E8
:108B60000D60001D189070E11898EA1701680D60FB
:108B70004A60F6E7189801680D80F2E70D70F0E79B
:108B800018986A4601781172001D189000205072E2
:108B900002A80090012005E0189802C81890002053
:108BA0000091C04361070DD5002101E00199491CE6
:108BB0000191B94212DA8142F8DB009A515C002936
:108BC000F4D10BE0002101E00199491C019181429F
:108BD000FADB019A0099895C0029F5D10199049882
:108BE0001A9B471A21463846199A00F097FA0199BC
:108BF000401945180BE04FE02CE113E04EE00098DF
:108C000000990078491C00911A9A19999047019887
:108C1000401E0190401CF2D1214638461A9B199AF9
:108C200010E137E00A200021009001916002410F1D
:108C3000022907D0189A01CA1892C217944603292C
:108C400008D00AE01898C01DC108C90005C91891CC
:108C5000944607E000B2C2179446042902D140B2FC
:108C6000C1178C4600226146944506DA0A46002167
:108C7000404291418C462D2102E0210504D52B2153
:108C80006A461173012103E0E10701D02021F7E7D3
:108C9000029155E00A200AE0102008E01020009020
:108CA0000021042004430191082703E0082000214B
:108CB000019100906002410F022907D0189A01CA61
:108CC000189200229446032908D008E01898C01D85
:108CD000C108C90005C91891944603E080B204296F
:108CE00000D1C0B200210291210729D51199702924
:108CF00006D0009A1021019B4A401A4305D00EE08D
:108D000040216A461173012108E06146014306D003
:108D100030216A4611731199517302210291009A10
:108D20000821019B4A401A430AD16146014301D1FF
:108D3000610705D530216A46117301217F1E02911A
:108D40001199582904D035A10E910DA90D910DE06E
:108D500037A1F9E76146019B009AFBF7FDFA0E9BEC
:108D60008C469B5C0D9A521E0D9213706146014316
:108D7000F0D10D9805A9081A20300190600703D59D
:108D800001200004844300E001270198874201DDAF
:108D9000381A00E000200199009041180298091843
:108DA0000498401A0490E00306D421461A9B199AAD
:108DB000049800F0B3F94519002706E003A81A9AB1
:108DC000C05D199990476D1C7F1C02988742F5DBA6
:108DD000E0030CD521461A9B199A049800F09EF9DD
:108DE000451904E01A9A3020199990476D1C009992
:108DF000481E00900029F5DC08E00D980D990078D8
:108E0000491C0D911A9A199990476D1C0199481E99
:108E100001900029F1DC63E109280100303132338F
:108E200034353637383961626364656600000000A6
:108E30003031323334353637383941424344454690
:108E40000000000000F05AF94519761C307800281F
:108E500000D0E2E528461BB0F0BD600700D406272D
:108E60001898C01DC108C90048680A680831C30FB6
:108E7000DB071891190001D09CA108E0210501D55C
:108E80009BA104E0E10701D09AA100E09AA1430070
:108E900011985B08109165280CD006DC452809D094
:108EA00046281DD0472841D141E0662818D06728C0
:108EB0003CD13CE00021112F01DB112000E0781CA7
:108EC0000191009008A911A8FFF7E8FC13990591FA
:108ED0000021119A15927F1C12980197009150E081
:108EE0000120C00703900120019008A9009711A854
:108EF000FFF7D4FC139A149905920022119B00925B
:108F000012981593059A0192002901D0104602E0AB
:108F1000791C40180190381A01D5019804E04042AC
:108F2000401E0090781C0190C01B029043E0012F6E
:108F300000DA01270021112F01DD112000E0384661
:108F40000191009008A911A8FFF7A8FC13990591B9
:108F5000119A0021129815920091019721070CD4C3
:108F60000599B94201DB019900E00191012904DD75
:108F7000159A491E515C302906D0B84201DA011D0C
:108F800005DA0121029115E00199491EEDE700285B
:108F900005DC0099411800910199091A03E0019A32
:108FA000411C914200DD01910099401A401C029041
:108FB0000120C0070390200706D40299019881423E
:108FC00002DB0020C043029000206946C87707AF4B
:108FD000012103980337C907884224D00220119049
:108FE0002B201290039800280CDA404203902D2089
:108FF000129007E00A210398FBF798F930317F1EA1
:10900000039039701199481E11900029F2DC0398E1
:109010000028EFD1791E129808703078202108407E
:109020004530BF1E387006A8C01BC01D03901098A5
:109030000078002800D00120019941180298C0173B
:109040000918039809180498401A401E0490E00378
:1090500006D421461A9B199A049800F05FF8451926
:1090600010980078002803D01A9A199990476D1C1F
:10907000E00324D521461A9B199A049800F04EF873
:1090800045191CE00098002807DB009905988842E4
:1090900003DD1598405C199901E0199930201A9A5E
:1090A000904700986D1C401C00900298401E029052
:1090B000002804D11A9A2E20199990476D1C019905
:1090C000481E01900029DDDC05E038781A9A7F1CE3
:1090D000199990476D1C0399481E03900029F4DCF0
:1090E00021461A9B199A0498ACE600002D00000056
:1090F0002B0000002000000000000000F8B504462E
:1091000000251E461746880404D405E03946202071
:10911000B0476D1C641EF9D52846F8BDFFB504465E
:10912000002581B01E46C80301D5302700E0202766
:10913000880404D505E038460399B0476D1C641EC9
:10914000F9D5284605B0F0BD074744312E302E3002
:109150000000256300000000789100080000002056
:10916000200000007E880008989100082000002060
:10917000501C00008E88000800000000000221261C
:1091800003BF0F470A1E001E002003C80000000096
:089190000000020100000000D4
:04000005080040CDE2
:00000001FF
